:100000000090002005660200B5730200B57302007F
:10001000B5730200B5730200B5730200B573020038
:10002000B5730200B5730200B5730200AD7602002D
:10003000B5730200B573020031F4010045410200BE
:10004000B5730200B5730200B5730200B573020008
:10005000B5730200B5730200B5730200B5730200F8
:10006000B5730200B5730200B5730200B5730200E8
:10007000B5730200B5730200B5730200B5730200D8
:0C008000B5730200B5730200B5730200F6
:10009000F0B591B00791044606463036011D0125A2
:1000A000069250040D9408910995019607D408888A
:1000B00089780904401800260496039669E123F024
:1000C000B9FD039026F06EFE3078304C4821605424
:1000D0002A4625464835014611408207D20F51185D
:1000E0004007C00F0F1820341421204626F0ECFCE6
:1000F000277500266675A675E6750D9C244825496A
:100100000160254825490860254FB88D1F49C881E1
:1001100022F0D9FEB8862148868010200F901B4916
:100120000F464871EE70AE80608823F08FF9032887
:100130003DD122F09BFB388100267E61A06B103000
:1001400023F0F6FD24F0ECF97881A16B088B134FB6
:10015000F883488B3884888B78842420085C800757
:10016000C00F388388680327002867D0827B121865
:10017000D37B0F221A40072A14D8C0467A4412793A
:10018000520097442B190F0F0F0F323900610020D6
:1001900040140840D6BE898E005555553C20094074
:1001A0000620094049200026F34A165422E0014661
:1001B0000496089D0746DDE008462430CA8BEF4BC5
:1001C0001A860A8C5A86498C9986007809990840C3
:1001D00098834920E84A115405260BE049200999E3
:1001E000E54A11540326374604E049200999E24ABA
:1001F00011540226089D23E000266E700999E970CB
:10020000817B0918497C890617D000210E460EF023
:1002100059FA3520D84A105C0028089D10D0608813
:10022000032738401146213189780904490D884255
:1002300006D04C200999115402E08427089DCE4A2B
:100240000E964B26905D00280BD0104600233832C6
:100250008363C363137253819381A06B08300121C0
:1002600004E0A06B08300221002213460EF018F8BB
:10027000002100282DD00C96109102220E9E3146AE
:100280000B9211404A424A41431E581E8341134378
:100290000493012B21D1D64806800022B74E7281EB
:1002A000A36B2525585D03240440F482585D400863
:1002B00004263040CF4C2085585DC006C00F6085B5
:1002C00000290A960CD10020C94988810D9CAA4EAC
:1002D0001BE0832704910E464CE08327A64E33E0B3
:1002E000586825331B78D90707D1C3495A073340CB
:1002F000D41721405A00204001E0C049491C0D9C00
:100300009D4EBB4B26F06CFFB9490E98C00703D138
:1003100000200882089D17E0A26B1068525D9307C9
:100320000AD4B54D0A9B13405207D1170D405A000D
:100330002B460840AE4902E0B04A531C0022089DFB
:100340000B82A23121F023F80C98305C002810D0E9
:10035000A06B083023F0B6FC002801D18421717114
:100360000B990172B16B884201D10020B0630F9EDE
:1003700000E0109E2888A978090440183902FF225D
:1003800012029043401828800F2F01D902210E43FA
:10039000099DFF210902014003200E9000028142C5
:1003A00061D1A8040590964B29020846B030079AFF
:1003B000024202915BD0104608400B90069D2846F1
:1003C00018400A906C4F8F48C06A04285BD310967F
:1003D00000200C9021F094FD80B2441D21460E981F
:1003E000814378690F911EF09DFD0646786986422B
:1003F00004D008201099014310917E61002E3AD05C
:10040000A108F0893518103528461BF003FF0B981A
:100410000028594F16D04B20385C002812D068684D
:100420000F21090401400E98000481420AD1284698
:1004300022F0B6FAC00602D535200C9939544D2069
:1004400009993954F0893118FA79CA740F9940180A
:10045000F0810420109E06430D9CA06B103023F009
:1004600067FC0A9DAFE7B00700D5D1E2D6E210964F
:10047000069E354611E085203F4F78716248099904
:1004800001600D9C109E1096B879002804D0E06B96
:100490005E49C9681FF094FA069E059806406806F2
:1004A0002946C50F0F4608460299084003D0324935
:1004B0004A2201238B54B30C10990D430799C907A5
:1004C00012D0059939400FD14A490988042920D111
:1004D0002A48406D28498A69801A60634020487123
:1004E000032000BF00BF4FE00798000401D4049927
:1004F00057E021484079102803D13E48008820F079
:1005000061FF26F00BF9424A25F094FF00231946BB
:1005100047E0BA0529D41093CB1F5A425A41164CD2
:100520004A23E35C5E1EB341002829D11A4327D138
:10053000022903D13520205C002825D10120049018
:100540004820205C002800D198E12E480521016058
:10055000A07900280D9C04D0E06B2C49C9681FF0DD
:100560002FFA22F06DF90023C1E7032017F0FAFA01
:100570000149487108E0C046006100203C20094064
:10058000022017F0EFFA60712248407926F0C6F891
:100590001F4A25F04FFF032000BF00BF002319466C
:1005A0000D9CF803109307D5A06B10300E4623F076
:1005B000BFFB3146124807402646313600295CD041
:1005C0000F95144A48200C901056002828D47578AE
:1005D000052D00D9002507210840801E052829D8AF
:1005E0007844007940008744191723211D27C0460D
:1005F00096200940062009400A8000000A80FFFF7B
:10060000FFFFFEFFA0110840301008409465002055
:10061000FF00FF0000610020E8070BD026250DE059
:1006200005460BE001200540263507E0E80701D02C
:10063000272503E0252501E06D0825352020105CE5
:10064000918920F0EBFB0A90E8B20B9019F03EFD87
:10065000002803D026F0D0FD002827D0089A26F0E5
:1006600037FBF04908404121490201431180000C49
:10067000907002200F9D05430D9C1098002800D11A
:10068000BCE1FD482127C15D3F200840109019F0D2
:100690001DFD002803D026F0AFFD00281CD0089ACD
:1006A00026F016FBF34925F080FAA7E109988003AC
:1006B000079001212046069106F0BCFB21F0D8FBF3
:1006C000079807422DD1B078002800D19CE0EB4874
:1006D00025F0A2F804464BE02046099906F0AAFB53
:1006E00021F0C6FB0D98806B81680020002953D053
:1006F0000B910C900F954C26DF4CA55D2020205CC3
:10070000A18920F08BFB0146002D57D0029841189B
:10071000E0310A91DA48008D22F098FE0020A055C1
:100720004DE00D9803991BF0C9FD04460F2838D8F9
:100730004B20D14A105C00280AD03520105C0028DC
:1007400006D00C9826F070F9002801D17D20C44312
:100750000D98C06BCA4FF9681CF0FCFAC64A90713C
:100760004A2000211154387F800701D025F006FC73
:10077000089FE0B21028069B14D2C249002088834B
:100780006CB20B99402901D240202843BA4ABE4F8F
:10079000002C57D4054657E00A900D9CB64A0646F1
:1007A00003E1089F3888B978090440182102B14A4A
:1007B000104001433980000CB8705AE70A910F9D30
:1007C0000B98817B0A18D17B0F263140072913D162
:1007D000547C002529460DF075FFA009022800D1A0
:1007E000C6E02B46012800D1ACE000280F9DA24EA8
:1007F00000D0D3E04920D4E0089A26F069FA9D4958
:1008000025F0D3F99C4ACFE04B209B49085C002897
:10081000089F67D03520085C002863D00A9826F02E
:1008200096FA601A80009721C9004018703024F0B1
:10083000F3FF04460C98904A26F0F6F8002898D169
:100840008224AFE77F200540E8B27886107900283F
:1008500004D028068D4941408D4801604920105C34
:1008600000283AD0154622F0B9FEAA79B88D8949F8
:10087000002A0F9D3AD0803108463AE03520205CAE
:10088000002800D180E62120205C264621367178A0
:1008900009020818B178090440187F4901408029ED
:1008A00000D071E67D480721016021F0C9FF4C208E
:1008B000215C0020002900D10AE2B1780904490D29
:1008C0000D9C6288042313400B436D490B85012165
:1008D000C9030D430146109B63E6D803401C0F9DDE
:1008E0001F4607E025F069FF044642E78007800EB7
:1008F0004840069F25F016FEFC48C78325F05AFDA8
:10090000022000BF00BFFC4805210160002C14D468
:100910000B9825388740F24A0C99505CB8435054E4
:10092000B17800290D9C00D1A7E6002800D0A4E6EC
:10093000019800780C9950549FE60020E8490C9AE1
:10094000885499E63520E64E305C00280F9D00D192
:100950004BE149203354089A26F0BAF9E849084097
:10096000B90201431180000C90700220054319E088
:100970003520DB4B185C002800D14BE149200021D9
:100980001954089A26F0A4F9DD490840B90226F066
:1009900045F80F9D05430D9C1A4605E04920335448
:1009A000352033540D9C32460C9EA06B08303832F3
:1009B000012133460DF074FC074633463246002FC2
:1009C0000CD0781E414241410E4207D10992411E8E
:1009D0008841012219465140014325D12846089BF0
:1009E00019889A7812048918C54A11408322120284
:1009F0000A431A80090C997002250543A80701D4FF
:100A00002E460BE0E06BBD49C9681EF0D9FF2E46AB
:100A100021F016FF25F01CFA24F02AFB304611B015
:100A2000F0BDC046FF00FF0007930B920C960F9598
:100A30009720C5000A984019703026F088F9601A8E
:100A400084004D20A64E305C002829D04836F0792D
:100A5000A3498989069120F0E1F90A900C200699B2
:100A600020F0DCF961190A9A89180C1800207071BD
:100A70009B4E16E0FF00FF0000610020881300007D
:100A8000946500209620094006200940D6BE898E34
:100A9000401408403181000080FF1F00A011084071
:100AA0000834204624F0B8FE0A903520305C002837
:100AB00012D02020305CB18920F0B0F94821715C5F
:100AC0003246483212790FF09BF900280D9904D173
:100AD0007D20C0430A9000E00D99099A8348028066
:100AE0007D4804254581896B25240A5D0E9B1A40AB
:100AF0007A4BC282085D400828401885085DC00610
:100B0000C00F58855020305C002802D0588D2843F3
:100B100058850C980028079B0CD0486825310A7826
:100B2000D1070CD1724953072A40DB1719401840EE
:100B3000520007E000206D4988810B9A07E06D495B
:100B4000491C0022694B26F04BFB0B9A079B002B9C
:100B50000DD00D98816B08680A5D91070ED4644929
:100B600015405207D217114010406A0009E00020DA
:100B70005E4908820D9C0F9D10990CE05D49491C4F
:100B800000220F9D594B19821946A23120F0FFFB1C
:100B90000D9C10990B9A0A9BD8B2102808D3089A7A
:100BA00026F096F81902564B184025F037FF24E737
:100BB00000254E48858340314848418630790028D9
:100BC00004D0080648494140464801604920305C4D
:100BD000002857D022F002FDB2794048808D494963
:100BE000002A52D08031084652E049200121315478
:100BF0000B980068002868D00D9CA06B08300F4649
:100C00003246383202211E460DF04AFB3A4607466C
:100C1000099BD4E64920012119540B980468002C43
:100C20000F9D52D0A07B0019C17B314007290CD108
:100C3000407C3F2809D80B99887B0818007C0B3032
:100C4000FC21014020460DF03DFD0D98806B0830E1
:100C5000234A3832022726460024394623460DF01F
:100C60001FFB3A4623460746B07B3018007C1C49E0
:100C7000483188710B9CA07B20180D9C007CC871AA
:100C8000099E9CE6D003401C02E08007800E48408D
:100C900025F048FC25F08EFB14480B99C1831648BB
:100CA00005210160A06B083023F00CF8002801D169
:100CB0008421717102210172B16B884200D1B56348
:100CC0007F1EEFD110200F9D97E628460D9C86E6EB
:100CD000049B014664E4C0463C20094006200940CC
:100CE0000061002040140840D6BE898E962009403D
:100CF0000A8000000A80FFFF301008409465002041
:100D0000FF00FF0031810000F0B597B00F460646A6
:100D10004C1C0D782846214624F028FA002806D0DD
:100D200028463146224626F0BFFB17B0F0BD12948C
:100D30000F972320C000301810902A2D34461395A9
:100D400000D95AE2DD20400020180D906720800075
:100D500020180C905720800020181190FF22104678
:100D6000063020180E902346F03320468C300B902E
:100D700020468A300A90264677362546763527461D
:100D8000673713984000C046784480884000874405
:100D90004B0185011901EB0134023402F8011C01F9
:100DA0009D01B2012502FB01CB00340234023F0158
:100DB00034020501C400E70139003900FE013402A4
:100DC000A00034023402340230003402340234020F
:100DD0003402340234022A002A002A003402340287
:100DE00034023402300020461299139A26F00AFC8D
:100DF0009BE7139A82480079800700D5C9E01098D4
:100E0000427205E309941398142803D178790028D5
:100E100000D16AE10F9B5878997809020918D878AF
:100E20001A791202161858799A7912021218D8797A
:100E30001B7A1B021818139B152B00D0E1E189B215
:100E40001B2312931B290F4600D8129F2923DD0074
:100E50001B292B4600D33346FB24FB2F00D3274608
:100E6000684EFB29314600D8194689B2CB08292B98
:100E7000129B00D33B46A9420E4600D82E46614F36
:100E8000B942214600D819465E4B9E4200D35D4EC2
:100E900097B21B2F3A4600D8129A1B2F2B4600D32D
:100EA0000346FB2A00D32246FB2F564C204600D88F
:100EB000184683B2D80829280D9F00D31292AB425E
:100EC000184600D82846A34200D811E2FB2220464B
:100ED0000FE20C9B32460D9D0F984178807881423D
:100EE000264609D107200840129C207000D124E337
:100EF000491E014200D16EE318211E2430462246CD
:100F00001DF0F0FCB17900222046134617F058FC82
:100F1000A87840210143A97007E70E980078C00621
:100F200000D58BE1122071E23D4609940E9F387C7A
:100F3000012817D00F98811C4078109A10708D20CE
:100F400040003E46099F38180224224624F045FA04
:100F500001464720800038183746224624F03DFAE3
:100F6000012030746879002800D1BEE0B87C0028E8
:100F700000D0DAE63C46787C002800D0D5E60C218B
:100F8000099806F0F7F9002800D148E20120A07482
:100F9000CBE6204612991CF0B8FFC6E6119F0F98C9
:100FA00041788278204626F043F82878012800D03E
:100FB00046E1307801460F39022900D338E201209A
:100FC0007873B2E61298007890E0119F1E460C9D4F
:100FD0000E9B0D9A129800780E38082800D9A4E6C6
:100FE0004000C04678448088400087440E00CA0212
:100FF0000D000D00C6020D00D2020D00D802C04641
:101000009E670020904200008FE6032030758CE63A
:1010100012950E9D1396A07926F004FA002800D1AF
:1010200012E10F213A225FE113960F98811C40785C
:101030000B9D2870A81CFD4E02270F903A46B04722
:101040000146281D12903A46B0470146A81D0E9051
:101050003A46B0470146284608300D903A46B04718
:1010600001462878002827462C460A9D14D0129A5B
:101070001288531E9BB2082B00D3082383420BD344
:101080000F9B1B88934207D8062A05D32E46254678
:10109000EC4CA24200D240E3302027E0119D2046D4
:1010A00062300522129924F098F901460B9F3846C8
:1010B0000C30022224F091F9B8892189401A80B2BB
:1010C000E149884200D8C5E028200FE02046129967
:1010D0001DF09CFB7879002807D0092120461CF0E0
:1010E0009DFD012800D020E699E13D20109908726D
:1010F0000120C87119E61546119A0994187D012836
:1011000000D012E61E46099F3846129914461DF07B
:101110007DFB02203075B9790E357A1900201AF05E
:10112000BDFB22460E984078000702D4C748D086FF
:101130005086C7484078800600D4F6E5908E1B287C
:101140000BD1108E1B2808D12920C000D18E8142DE
:1011500003D1518E814200D1E7E51421099849E07D
:10116000002011990872E0E50E980078C00778D148
:101170001A205873187B0D2101283AD1F4222046F9
:10118000ADE001209873D0E50120D873CDE50C9D2A
:101190000D9A0E9840780921084200D135E10F9B45
:1011A0005878997801400720084058701746D17840
:1011B0000140517000D1B3E1481E084200D1F4E172
:1011C000032900D905E22B460220020600D13DE2A8
:1011D000084200D03DE2C0B24008F6E70B98807BA1
:1011E00001287FD100203870787118800120187391
:1011F0000B21204619F000F897E5109813994172D9
:1012000006E18BB21B2B0D9F14D3FB2B12D8B3B26C
:10121000DC08292C0ED38F4CA3420BD893B21B2B86
:1012200008D3FB2B06D82923DD0083B2AB4201D3C0
:10123000A3425ED914211E22099856E01321E8E04A
:10124000002023F007FF70E52878800700D503E130
:101250000F20DBE00121B9720020E08329702046D5
:10126000B3E1002038707871254620469C301390F9
:101270000120089318742046B430714C0826129946
:101280003246A04701462846BC300222A04701460C
:101290002C46A4342F46AC3738463246684B984724
:1012A00012903846314623F00BF92E46A03604271B
:1012B000304612993A46624B98473046394623F0F9
:1012C000FFF8204625F0D4FC139825F0CCFC0898B4
:1012D000007B0421012800D0DBE1F422284615F030
:1012E0004FFC22E514211E2220461DF0FBFA1CE5CE
:1012F000129A119B5987DE871A87988780B25A8E77
:10130000824200D302463878A9231B019A42144630
:1013100000D81C46042800D014460C9FFD88FC8091
:1013200004280DD109981BF0EFF80246B888131A6B
:10133000581E8341BA80119E718F0D9800780CE081
:10134000119AD28EB3B29A4200D31A460C9FBB8830
:10135000D31A5E1EB341BA80119E651B6C1EA54157
:10136000B78E89B28F4200D30F461D430C9C218853
:101370007E1A711E8E4127800D99097901231293DF
:101380001DF0BEFE874201D2208805E00D99087845
:101390000979A28826F0BEF811993543E0820B8EB8
:1013A000088F834200D303466088191A4A1E914170
:1013B0000C9A0D4353808342099E03D9107D8021EE
:1013C00001431175002D11D011980386D5884586EB
:1013D0001188818614469288C2861398142800D0FA
:1013E000A0E0B07900951CF041FF03E013981428A9
:1013F00000D09CE01521304605F0BCFF002800D04D
:1014000093E4E948007812990CE01620109948728C
:101410000721204605F0AEFF002800D085E4E24811
:1014200000780121890311F019F97EE4DB530200F1
:10143000162800D079E40D9DA87801216AE5C04600
:10144000DB530200810C0000FE7F00004808000012
:101450009E670020904200002F4609940F9B587809
:1014600006909E78D8781979090208180D90587955
:101470009979090208180C90D879197A0902081884
:101480000890587A0790987A0590DC7A187B597BF7
:101490000902091814A80180997BDA7B12025118FD
:1014A0004180197C5A7C120251188180997CDA7C27
:1014B00012025118C180197D5A7D12025118018102
:1014C000997DDA7D120251184181052025F0B2FB89
:1014D000002800D19CE030020699461820020599A8
:1014E0004218099C208914A9069292B2089B9FB2C7
:1014F0000097019007980290039204910596B1B26B
:101500000D9882B20C9886B220460F92334613F0A3
:10151000EAFC002800D1C1E00D991E262F4679E093
:10152000387897E0217D08200843224600E0107DAE
:10153000202101431175FFF7F8FB107816282F467C
:101540001A4607D1B17914463A780020134617F0AD
:1015500037F92246022090763878107601247C7183
:101560001188139139791546928823461DF0C8FDDC
:10157000139981421BD228881EE000203872FFF7A1
:10158000D4FB012038731878FD2101401970FFF752
:10159000CCFB287D122101432975FFF7C6FB90780B
:1015A000122101439170FFF7C0FB084653E0287EEB
:1015B0003979AA8825F0AEFF119AE882B8784021DF
:1015C0000143B97014701821304626F035F8FFF742
:1015D000ACFB04203EE068700F9AD17812791202B9
:1015E000511899833289891A89B2704A914200D977
:1015F0006AE51C460121997604281A462F46ACD18B
:10160000304614461AF080FF2246A0807878A4E77E
:101610000D991A2638784007099D05D40F20109996
:10162000487207212846F5E60C460F212846324627
:101630001DF058F9A979089880B20090A2B20C98D0
:1016400083B230461CF0EEFDFFF76FFB08461D46E7
:1016500001E01D4678702E46C1B2042904D120460F
:101660001AF052FFB08078782546C0B223F040FAD5
:10167000307634883979B28825F04CFF844201D223
:10168000308804E0307E3979B28825F043FFF0825B
:101690001721284613F0FEFEFFF747FB10960E9722
:1016A000119D059828820D9B6B820C9EAE82089836
:1016B000E8820799297606996983149F1599169AE5
:1016C000EF6129626A620B998B80CE8008810220CB
:1016D000087000204880A08EC11D0A9A1180618E7A
:1016E00049080F9A8A4226460AD11099814207D1A9
:1016F000F08E00090E99814202D110213046C9E7CF
:10170000129800780128139932D108780F282FD128
:10171000F121304618F070FD34E02C46354640008B
:101720002070580060805000A08020890001208136
:101730000222304623F051FE30883989401A80B2A7
:101740001A49884200D9BFE40D9800880E9909888B
:10175000491C129A12884A435100884221D901201B
:10176000139948740021F983119A107038462CE7B8
:10177000887A002802D008781A280DD1F121304645
:1017800013F088FEB079298A6A8AAB8AEC8A0094C1
:1017900018F0CEF8FFF7C9FA0F20C873F3213046CE
:1017A00028E53B20A2E4C046BA690020FE7F000085
:1017B000F0B591B0002902D4002400F0FFFC0C46E3
:1017C000294F387816F072FB002801D100F0F3FCA5
:1017D00005460078A2280D955FD0B02801D000F012
:1017E000E7FC0EA800210180204E7068002808D177
:1017F00025F0BCF825F06CFD7060002801D100F0E8
:10180000D2FC06943E461436002418223046214667
:101810000B9224F0D9FC287901210C91811E162904
:1018200001D900F0B9FC401C059007964900C0465C
:101830007944898849008F441B00AF04AF04AF048A
:10184000D400AF047100AF040C02AF044302AF0434
:101850007700AF044C01AF04D901AF04AF04AF046B
:10186000AE02AF047902C046D8720020E0710020B9
:1018700025F07CF8B8826888314622F061FD0028A6
:1018800000D1F3E22889B98A884200D30846B88299
:1018900001200C90032000F06DFC687965282ED1A2
:1018A0000C370C97384625F09FFE002819D00646C5
:1018B0000089B17A37460C373A460FF023FB0546CC
:1018C000142801D0002D0CD10C98314624F064F876
:1018D000142D03D1B17A384624F034FD304625F07A
:1018E000FFFC0C9825F0F0FC00280D9D07D0F14876
:1018F0000078F1490870F14900220A7001E0ED48D2
:101900000078FF2801D100F053FC294622F0AEFBFD
:10191000002801D000F04CFC00F04DFC00210EAA84
:1019200028460AF0E5FA1EE3688822F019FD0490C3
:10193000401E0B90B88A00242246A9898A4200D30F
:10194000B1E280B20B99814200DCACE2089224F053
:10195000ECFE80B210A91DF0D5F9012700280C97E4
:1019600000D1A9E201460A946888099010AA128859
:10197000EB48436828790B9CA7B20026E94CA51CCC
:101980000095019602970390099806F02FFB002816
:1019900000D08DE2A06900280D9D079E09D16888BE
:1019A0000F210023E04A14F0E3F9A061002800D1E0
:1019B000E5E2A18A62885318049FBB4203D30B9AC5
:1019C000521A628092B24018D549496823F0F0FF5C
:1019D0006088A18A0818A082089A521C0A9CA41C3C
:1019E000ABE7688822F0BCFC24F0BDFE10AC00948C
:1019F00016F076FE0546781F0A90F81FC94F00249E
:101A000080B20990B81C0890A1B2002D00D11CE250
:101A10000A98884200DC18E20B910C940D9F78889C
:101A200010A90A88BE494B6839790024089E00969F
:101A30000194099E02960391294606F0D7FA0028E0
:101A40001CD13A8AB7484088824217D17869B44994
:101A5000496822F0C5FE0028B24F10D0B8690028AE
:101A60000AD10D98408807210023AF4A14F080F96D
:101A7000B861002800D12BE36C8900E0A94F0D98D4
:101A8000418910A802880FAB284613F089FF05464C
:101A9000002C13D0B8690C9A511C0B9BC454200A1B
:101AA0001446BA69A31C89B25054002D99B207D0CC
:101AB0000F98BA6950540FA8407804E00C9CA3E733
:101AC000BA69FF205054E11CBA69241D89B25054F0
:101AD0009AE7688822F044FC24F045FE10AC00949C
:101AE00016F0FEFD0146B81F0A9000258D48801CA7
:101AF000099008950C950D46002D00D1EFE10D9C45
:101B0000608810A90A88294616F0D0FC002800D069
:101B1000E7E10C9F60880B9010A90A8880494B6808
:101B200020790A9CA4B200262946099D00953546D5
:101B30000196029403900B980E4606F057FA00287F
:101B400000D0D0E1BCB2002C0FD07648C18A4088CA
:101B5000021D8A4200D0F3E100190A9988422F46FB
:101B600000DDEEE16F4FB86910E00D984088112755
:101B7000002339466C4A14F0FBF86A4A9061002849
:101B800000D178E25188091DD1821746B17A0C9BA9
:101B90005A1C0155F07AB9699C1C92B288540D9870
:101BA000418910A802880FAB304613F0F9FE0546B4
:101BB0000028A1B205D00F98BA6950540FA84078F8
:101BC00002E0BA69FF2050540C9BD91CBA6989B253
:101BD00050541C1DB869A1B24018514949687A880F
:101BE00023F0E6FE788800190C9085E70124287C14
:101BF0000027022804D1687C012801D10327002492
:101C0000288910A91DF07EF8002C00D128E1064695
:101C1000002800D124E1307A80060CD510A8008875
:101C200024F0AEFA002800D122E20346688812228E
:101C3000314698470746002F079E00D038E2688853
:101C40002989EA686B896C7C002C00D11AE2522544
:101C500019E2288910A91DF055F8002800D10EE1DD
:101C6000064668880B21304A0FAB14F081F8B86142
:101C7000002800D12CE1034668880C9010A90A883E
:101C80000FA908882C7900270799009101970290E5
:101C900003940C98314606F0A9F9002800D139E1E7
:101CA00006462048806912F0FDF9162E00D138E171
:101CB0003746E5E0BE770020BD7700207978002028
:101CC000288910A91DF01EF8002800D1DCE0064686
:101CD00068880D21144A0FAB14F04AF8B861002847
:101CE00000D1F6E10346688810A90A8869890FAC1B
:101CF00024882D79079F009701AF32C7314606F03F
:101D000075F9002800D10FE107460648806912F0F6
:101D1000C9F9162F0D9D079E00D10DE12BE1C0469C
:101D2000E0710020D8720020FFFF00006888089052
:101D300021F02CFC0A90002800D1A8E0287A012884
:101D400000D0E9E1FC48857809942046C6B2AE424D
:101D500000D321E10A9A52680C237343D75A002F0B
:101D600000D11AE1002C0ED0BC4200D046E1D218BE
:101D700053888EB29E4200D040E19288099BD318CE
:101D80000993511805E0D1188A8849880992891861
:101D90003C46401CDAE768880124214622F0C4F85A
:101DA000002876D00C942E460836308810A91CF0F6
:101DB000A9FF002800D190E00746007A800600D5F0
:101DC00097E06F88384621F0E1FB002806D1DB4818
:101DD00021F0DCFB002800D1B0E00780D6498A78EA
:101DE0000C2151430C3100231A460C32914200D190
:101DF000A4E04468E35A002B1346F6D1A0180C382F
:101E00000C2731463A4623F0D3FD079C2046314645
:101E10003A4623F0CDFD6888AA89172100273B4662
:101E200013F0A6FFF549C861002800D188E12969AF
:101E3000AA8923F0BDFD6888214620F01DFB0028FB
:101E4000264600D0CDE10746CCE1200425D0880805
:101E5000B8820D9D6888079E31461FF071FE80E0B4
:101E6000002C079E00D121E1012721E16888298902
:101E7000BA8A914200D311461BF01AFB8CE101276C
:101E800028890EA908804CE00127079E73E0089876
:101E900047E1142068700E2720E10D9D28890EA9C6
:101EA00008800A2719E16888314620F011FB3AE1E1
:101EB00007460D9D079E0A9C24F037FC0EA908805A
:101EC000CE488069002800D140E112F0EBF83DE1F6
:101ED00028890EA90880112723E00C9F32E1089F72
:101EE0002FE0074601E00746354668890EA90880BD
:101EF00027E010A8008824F043F9002800D1BFE0B3
:101F000003466888122239469847002800D158E7CE
:101F1000074617E16888079920F0F0FA002800D0FA
:101F2000162701200C9010E10D9D6888079E314610
:101F300020F0B8FA002818D10027CFE0092701E1E6
:101F40002F460C980004079E11D0AC4DE98A0C98DE
:101F500080B21DF095FDA8820D9D688831461FF066
:101F600007FE002801D10746B8E01627B6E0002F8B
:101F700000D10A270D9D28890EA90880AEE0A86827
:101F80000A9A8118805C4978090208180EA908800D
:101F900001200C901127DDE02846C0B201280998E5
:101FA00060D900042AD0099880B21AF055FB0028A5
:101FB00024D00B90B54200D335460C276F43002444
:101FC00025460A984668A74200D18AE03619B168CA
:101FD00000290AD0A8B20B9A1018B28823F0E8FCA6
:101FE000B0884519B06812F05DF8002C04D00021CB
:101FF0000C22304624F0E8F80C34E2E700220123FA
:102000001746591E7E48807881420D9D079E00D359
:10201000DDE00A994C68A15A002900D1D7E083423B
:102020000B9806D0A0188089002801D0162000E067
:1020300018206F880C92A618B2680993B388758827
:1020400000950190384613F065FC099B074600286F
:1020500004D0162F00D0B4E00020B0600C9A0C32EF
:102060005B1CCEE70A984668B268B3880D9D3FE0D6
:102070000E27079E1CE070890EA908800D9D2CE09C
:102080000E275FE02D7900240094019513F042FCA7
:10209000162819D0074600280D9D07D1687C002816
:1020A00000D1A1E001200C90274606E0002F09D0C6
:1020B00028890EA9088001200C90687C002845D052
:1020C000002743E00027F6E70C9427460D9DF4E730
:1020D0000D9D28890EA908801127079E01200C90CC
:1020E00034E00B9AB260099BB3800D9D688808901C
:1020F000318870881824009001949BB2089813F0DE
:1021000009FC002808D00746162811D10020B0602D
:102110000A981BF079FC3FE00A981BF075FC079EBB
:10212000688824F0CFF801210C91002826D133E0F3
:1021300030880EA9088049E0E0710020FFFF000010
:102140000C97112730880EA90880079E002F13D006
:10215000162F11D0687814280ED0287927490875D1
:102160000E98C8820F766888314623F0EDF9002872
:1021700002D00120059001E0162F0DD16888059945
:10218000CDB22946324613F065F8002803D0304618
:10219000294624F0D7F80D9D28461DF0D1FA0C9859
:1021A0000028069C04D028460830297924F0CAF873
:1021B000284622F035FB0120C0078443204611B099
:1021C000F0BD0C98205A0EA908800D9D079E0A9814
:1021D0001BF01AFC01200C90162FDDD0002F9FD091
:1021E000B4E7162700207AE7688824F073F8012105
:1021F0000C91002800D157E71627A7E7D8720020D6
:10220000E0710020F0B591B00446807800251028D8
:1022100000D99CE34000C046784480884000874451
:102220001000960396039603960356003A00960311
:10223000960320015000E500FC0096036E01370173
:1022400070036078002800D081E324F05FFB0790E2
:1022500024F04CFC089021F035F90BAC20700226DC
:10226000102730463946079AB04B98470320394625
:10227000089AAE4FB847042001212246B84720787B
:102280003043032800D062E3012016F0F1F9024642
:1022900006200146F9E0A0881DF052FC24F0D4FD90
:1022A000002800D053E3A24CA07B012800D05FE1BE
:1022B00021F0BCFD0021A173606A627D23F084FFE0
:1022C0005DE16078002800D140E10025FDE2607802
:1022D000FC2802D0002800D039E30126E178201D37
:1022E00062890892277B00250095314009AA2B4678
:1022F00024F029FA00286DD109A8007821F079FF8F
:1023000004463E46083E701E86418948C07D8000D6
:1023100024F0DEFF0790002800D177E109A806909D
:1023200001788348C078801E42424241009208985A
:10233000059422463B4618F08BF80BAC002714227C
:102340002046394623F040FF069800780621069182
:10235000484324301021224622F05CFF002818D187
:102360000BA8FF21102222F0D2FB002811D109A8CE
:1023700001780698484325300BAC224610320421E0
:1023800022F048FF012105980140089822461AF0E2
:10239000F1FB09A800785321890040186449C97DE0
:1023A0008900079A22F036FF002800D16DE16048CD
:1023B000007E002807D10598800704D55D48017884
:1023C00008981BF07BFE09A8007818F0B3FA07986C
:1023D00024F086FF002E00D1B9E25548C0780228CB
:1023E00000D0B4E2089824F0DFFDB0E2012523F02C
:1023F000A1FF002800D1AAE24D48C06A002800D100
:10240000A1E00668002E00D19DE0E01C6189227BDE
:10241000637B24690094B04799E2A588277B28460E
:102420001CF0E6FD002800D190E2044623F082FF74
:10243000002800D08AE2A01D6179002300930126C4
:1024400031400BAA24F07FF9002800D1E2E038489F
:10245000C078002800D074E20521284622F0CFFA87
:1024600074E2201DE17800230093012529400BAA86
:1024700024F069F9002800D069E20BA80178062051
:10248000484325300C340421224623F0C1FA5EE291
:10249000274FF86A002806D04368002B03D0A08895
:1024A00000210A469847F978A088002953D01CF0EB
:1024B0009FFD002800D14AE20646A07AC00715D049
:1024C000B01D727900230093012111401A46089330
:1024D00024F039F9002809D07079022806D3A089A0
:1024E00053218900B431084200D1F0E0F87B022882
:1024F00036D1A07A000733D4A08803212DE060787C
:10250000062800D0B2E0A0881CF072FD002800D19F
:10251000ACE00749897C491E032900D9A6E0C046E2
:102520007944097949008F440799949E115A020011
:10253000C07000208F680020A388417900221846CF
:1025400011F074FB92E06089012106E0A079C007D8
:102550001BD10025BEE10125052122F050FAF6E14C
:102560000125A08808347179224611F05FFBEEE165
:10257000E07C002839D010F06DFE0020E07450207F
:1025800021F07CF81AF05EFCE1E109A8002508269C
:102590002946324623F018FEA0881CF029FD0028A9
:1025A0004CD007466069002815D006970790113077
:1025B00000210622089022F0AAFA002800D1A4E007
:1025C000002706220798394622F0A1FA002800D1F8
:1025D00083E06761069F78790121014009A8817134
:1025E000B91D062223F0E4F9B4E0607D002686429E
:1025F000C5D2616A895D012906D1F0B20AF088FE70
:10260000606A00218155607D761CF0E7042022F08D
:1026100021FD9CE10BA8007821F0EBFDFF2800D103
:102620008FE10246780745D4002A43D10BA80178F0
:10263000A37C0096284617F00BFF87E122F010F8E4
:10264000002800D196E0CE480078042110F006F86A
:1026500090E0CD4800210A4602F052FEA0880521F4
:102660001AF08EFE02E0A0881DF056FF0125C54835
:10267000C06A002800D16AE14368002B00D166E1FE
:10268000A08862780221984761E1079C204621F0EA
:10269000F7FFBC48C07D874200D388E62188002927
:1026A00005D0A278089822F0B9F9B648C07D7F1C01
:1026B000241DF0E70C2007400C2F00D13CE1082F2F
:1026C00000D135E1042FB1D1D007AFD139E1A088D5
:1026D000032122F094F9089D39E105960798007CC2
:1026E0000121014007913E46761C0898067000972C
:1026F00007993A463B4624F026F8002801D13006D7
:10270000F2D13006059E00D163E76269002A069F78
:1027100020D00596107C0121014009A88171089202
:10272000164611360622314623F042F978790128FF
:1027300005D138460C30B91D062223F039F9B81DF1
:102740000622314623F034F90898007C0221014327
:102750007971059EA1793879FD220240480802234B
:102760000340D018090702D4DF21084001E02021EE
:1027700008433871A0794107C90F09AAD3790640E7
:102780001E430E43D6716169002921D00BAE10277C
:1027900030463A4623F00CF93046394621F090FE97
:1027A0007A4800780D277A4E854211D23168C919CE
:1027B0000A460D3A1278FF2A07D00BA8102222F001
:1027C0000FF8012805D0714800786D1C1E37EBE723
:1027D000FF2509A881790026009610AA334623F028
:1027E000B2FFFF2D1DD034281BD16648007D012883
:1027F00062D0002815D1664801681E226A438818F5
:10280000401C895C0025009510AA2B4623F09BFFF5
:10281000002806D110A800780AF07AFD002800D11F
:1028200098E009A88179009610AA334623F08BFF1F
:10283000002804D01DF044F910A908701DE061695A
:1028400010A80078002918D0062343432333102111
:102850000BAA184622F0DEFC00280CD10BA8FF21A1
:10286000102222F054F9002805D109A98A79012003
:10287000104022F089FA10A800784249497D884228
:1028800018D2A26825460C352ACD0F690095019112
:102890000297039609A909F0D9FD0546A08814F00E
:1028A00063FC002D38D010A800780AF031FD1AF032
:1028B000C9FA06E0152504E0A08805211AF060FD9C
:1028C0000125A0881DF03CF960780B2802D1A08872
:1028D0001DF022FE2B4EF06A002812D04368002B18
:1028E0000FD0A0886278012198476078002808D12D
:1028F000A079C00705D0F06A4368A08803212A4662
:102900009847012521F0ACFE002820D01C48007813
:1029100004210FF0A3FE1AE01A48817DA088002947
:1029200002D01DF00DF901E01BF050FE3546CBE75B
:102930000920024205D079E6D00702D0100700D561
:1029400074E661790022284611F070F901252846C5
:1029500011B0F0BD1AF076FA1DF0B2F810A90870A7
:10296000A1680891E1682369626900292F4600D0B7
:102970000F69009201910297039509A9089A8AE7C5
:102980008F680020C070002009040000E569002065
:1029900094690020F0B595B00F4609780626002905
:1029A00002D17C78012C02D1304615B0F0BD0692E0
:1029B000BD781D2D01D01B2D1CD132490978FF296E
:1029C000F2D000261D2D079070D120F0A3FD002825
:1029D0006CD00546827A002A67D050B200260028C3
:1029E000E2D41D21079821F06BFEA87A80210143D3
:1029F000A972D9E7079020F08DFD0024002800D1AE
:102A0000BCE2012D06D10546B868B98809AA21F0B3
:102A1000E7FF0BE0817804268D42C5D14368002B87
:102A2000C2D00546B868B98809AA98470646002862
:102A3000BAD12E46A878401FC1B2C2014908511828
:102A4000C9B2092900D9A3E001252A468A405723A3
:102A50001A4200D196E0BF78E8410928059500D9CF
:102A60005EE2059D4000C04678448088400087446F
:102A70000B001A0198005702390157025101570201
:102A80005702E10074770020052F00D026E124F0E2
:102A90000DF909A98A780A980988012A00D0EAE183
:102AA00089004018011FC01EEBE12E460596BA684A
:102AB000BB8809A8009000252846214620F0FAFA94
:102AC00006460028079A00D06EE70FA8FF21017084
:102AD00008A80570F54E706800280AD00368002B1E
:102AE00007D008A914460FAA204698472246002876
:102AF0001CD03078BB7809A90091002411462246E9
:102B000019F030FC0646002800D04DE70A9800284E
:102B100001D0069804700599002900D12EE2B878FA
:102B20001D2800D02AE21D20887227E20FA8017814
:102B300008A80278204616F0FFFF22460028D8D0C9
:102B40000A98002802D001200699087005990029EA
:102B500008D0B8781D2805D11D20887210461FF0B6
:102B60001DFC2246706800280AD04468002C07D05B
:102B70001046164622F0ECFE012801D13046A0474F
:102B80002E4611E7092903D13169002900D062E7F7
:102B90003546707AC6490978884200D0DEE00026C2
:102BA000F1E0092F00D000E109A801884A1E408801
:102BB00042432423F55C6D1CF5540A9B92B29D1888
:102BC0009A5C6B781B029A180292327B012A00D021
:102BD0004FE10197414309AA0027178089B2039169
:102BE0000496354613353946CEB203998E4200D34A
:102BF0003DE10499897C0A9A9219521D401F83B2C3
:102C000028461AF0D7FA002810D0B8B2864206D06B
:102C10000A990818891909AA528822F0C9FE09A937
:102C20004888C719099A521C0A8001E009A84088FF
:102C30003118D9E7307B012800D0C2E0172F00D02F
:102C4000E7E03069717D0C256943425A09AB1B8866
:102C50009A4200D0DDE04018418809AA528891428A
:102C600000D0D6E0828809A989888A4200D0D0E0C5
:102C700080680B9921F0B4FD002800D1C9E00197CC
:102C8000707D411CC8B271753746317D884200D3D2
:102C90007EE1396945434E193888495B7288B388AB
:102CA000B5680095AAE0072F18D123F0FFFF0A9816
:102CB00009A9098889004018011F0978C01E0078F9
:102CC00000024018F189884200D31AE131460C31E4
:102CD000401CB081308819F0F6F8E0E009A80079CE
:102CE0000A28A4E00D2F00D09EE023F0DFFF09A802
:102CF0000588308821F034FB401EA84200DD00E149
:102D000031460C310998F2891018F081308822F090
:102D100063FCC4E0112F00D092E00998401E09A97D
:102D2000498841432420325C521C32540A9889B2AB
:102D300040188178C07800024018002599498842DF
:102D400000D1F3E0411CB181F189814200D8EDE06E
:102D500031460C31308820F017FEA0E0BB7809A97D
:102D6000009100240799224619F0FCFA0646002833
:102D700009D1B97809A81CF0F7F80028264602D036
:102D80000026069806702946A8780328079808D1D7
:102D9000898909AA1288914200D311461AF088FB4A
:102DA0002946084614F0CFFBFEE509A8007906285D
:102DB00001D00A287ED12420305C00283ED1012099
:102DC0007BE0172F25D1308821F0CAFA401FB18B44
:102DD0000A18B283718A511A8BB2B18A8B4200D31E
:102DE00091E00197CD1A854200DB05463088318A93
:102DF0003746B669F3180093ABB292B219F025FDCD
:102E0000002800D1BCE00FA8002101703E46019FC0
:102E100002E00FA80021017030880FA922F0A0FB6A
:102E2000012F17D101201EE009A800790728059D70
:102E300076D12420305C0028059D71D0002556E015
:102E400009A800790A28059D6AD12420305C4542F2
:102E500045414CE0307A514918F056FA1920B070CB
:102E60004F48706016200125012859D084E0049E47
:102E7000019F029925E012224A4380180146123927
:102E800011380978007800024018F189884238D258
:102E900031460C31401CB081308822F06DFB307A15
:102EA0003E4918F031FA162540E0C04674770020FC
:102EB000CB6900202420305C401C2421705409A8D8
:102EC0004188481E00250A46374988420FD8308A73
:102ED00082420CD2521CF281317B012916D10FA9FA
:102EE0000A804880314888802820887110E0012FAE
:102EF00016D1002D14D109A800790A2801D1012585
:102F00002DE0002512E00FA8012184E731460E31A3
:102F1000308820F04BFD307A204918F0F5F916255D
:102F200009A8092F02D10088002813D0707A09A9B6
:102F30000091002207993B4619F014FA002802D0AC
:102F40000120059006E009A839461CF00DF8414221
:102F500041410591162D0ED0002D059D07D1707AA7
:102F6000B378002100911A22079919F0FBF9304635
:102F700014F0E9FA00E0059D06980570264613E571
:102F80003E46387A054918F0BFF91620019F6AE7D6
:102F90003E46B87D0FA9087039E7C046307500007D
:102FA000216E0200FFFF0000FDFF00000203000091
:102FB000F0B593B0002800D12BE204461B2000019D
:102FC00020180D905B20800020180E90FF200146F5
:102FD000663163182321C90061180A910146063140
:102FE00061180B912146F0310F91214684311091E7
:102FF00026467736214676311191214667310C916C
:103000000E3020180490581C03902046E0300790A2
:103010002046A43006902046D03005902046B4309B
:1030200009902046BC3008901F4F1293B07A0025BB
:10303000002800D155E2317808462D380D2800D8F7
:10304000ECE1881E282846D84000C0467844808895
:1030500040008744F00149002B00E000B300FC0071
:1030600049008000490003012F017B009B001001F3
:10307000720041015B014900620049004E008E0070
:103080004900490049004900EC0149004900490054
:10309000490049004900E801E801E8014900490008
:1030A00049004900EC01C0461067002024F05CF89C
:1030B00000D0ECE1F87A002800D1C4E100200C999E
:1030C0004871F12124F02EF9A0790999089A1BF092
:1030D000F1F8129BAAE7F22900D11DE1F12900D1F4
:1030E000FFE1F32900D1E4E1002021F0B3FF129BBE
:1030F0009CE724F039F800D0ADE10D9A107B410631
:1031000040D4C10700D079E1810700D400E2BC219E
:1031100008401073A1791A2076E124F025F800D038
:103120009BE10D9A1078810600D523E1810700D438
:1031300089E1DD21084010702EE124F015F800D05F
:10314000A9E11879012800D19DE038E124F00CF8BC
:1031500000D1C5E085E124F007F800D099E1F87AC4
:10316000002800D16FE1608CE08302200F99087580
:1031700029E123F0F9FF00D08FE10D9A107B410681
:1031800000D460E1BF21084010731CE123F0ECFF84
:1031900000D06AE1F87A002800D014E10F9F387D52
:1031A000032800D0AAE1A1791A20049A18F076FB2E
:1031B00000203875204617F04DFC45E023F0D4FF81
:1031C00000D062E1F87A002800D13CE1608CE08315
:1031D000204617F03FFC01250C9F3D70204619F05A
:1031E00086FB7D710F9D297B0B9802781020104083
:1031F000012900D0ECE0002808D0002012990870C6
:1032000048780A99896C490818F07EF8A07900215D
:103210001EF0C4F9EBE023F0A7FF00D083E0F87ABA
:1032200000280F9F09D0012110988175A0790A46C6
:1032300024F0F0F800207860B860B87B012800D056
:1032400001E1062124F06EF8129BC14FEEE6072142
:1032500024F0A4F9012800D1B5E042E123F084FF75
:1032600074D10F98C07B012800D0ECE0F12124F04C
:1032700059F8129BDAE623F077FF00D003E11879C2
:10328000012800D08CE00E98007E0F2803D000208B
:1032900021F0E0FE129B002018710E98407EA1796B
:1032A000109DAA895208EB892D8A2D0900951AF0E4
:1032B00095FF88E023F058FF00D0DFE00B99087CF1
:1032C000012800D0EBE0487C01287CD123F059FA9A
:1032D00000201CF032F976E023F046FF00D0BEE07B
:1032E000F87A002810D0002210988275A079012762
:1032F000394624F08FF802960C9E3770204619F05C
:10330000F6FA7771924F029EB87A5AE023F02CFFBA
:1033100000D0A8E0F87A54E01098817824F002F800
:10332000012011990FE00F990878012800D1DBE006
:103330004878002800D1D4E007980699059A19F03A
:10334000E1FC01200F990870129B6FE60B2124F01D
:1033500025F9012800D0C4E000220F98C27310980C
:103360008275A0790125294624F054F8119805703A
:10337000129B5BE6DF210140117001070CD5D721BC
:1033800008400D990870A0790E9D298EAA8E6B8E2B
:10339000ED8E00951AF06AFF00200E99887712E0F2
:1033A000D87801280BD10020D870A179109DA88968
:1033B0004208EB89288A000900901A2077E71098C4
:1033C000007900283FD0204617F044FB129B2DE6E1
:1033D000002807D00A98806C42085E482146039B6B
:1033E00023F0CCFBA079002101221EF0BDF8584F3C
:1033F000002028732874E881129B17E6BE2108403C
:1034000010730E98407EA1790022134615F0D8F96A
:10341000D9E7002021F01EFE012562E0204624F0BD
:1034200045F805465DE0204624F014F8F9E720460B
:1034300024F004F8F5E723F097FE4DD1B87A002880
:1034400001D0162103E023F0D5FA4AD122212046EB
:1034500020F0D8F8E0E716213FE014213DE01121EB
:103460003BE00D2139E0122137E00E2124F096F8DF
:103470001199087001200F99087532E001200B990D
:1034800088740C2129E00F2127E0062125E0042182
:1034900023E0092121E010211FE017211DE023F086
:1034A000A9FA1ED123F06DF9222528461CF045F813
:1034B00038E01098817808460C38082842D8C04671
:1034C0007844007940008744043D04303D3D3D3D53
:1034D000040023F027FF0FE0022124F05FF8119988
:1034E0000870284613B0F0BD052124F057F80128D4
:1034F000F7D100250F9885730120F0E723F07AFAC1
:10350000EFD1A17922252846049A18F0C7F909E0DD
:1035100023F070FAE5D1A17922250022284613462E
:1035200015F04EF92046294692E7F12123F0FAFEE4
:10353000A0790E9C21886288A388E488009416F004
:10354000F7F9CEE70025284621F084FDC9E7C046FB
:1035500010670020A1600100F0B5A5B00446FB484B
:103560004068002802D0804700284BD00321F84B48
:10357000F8480078421E1394002C0E9200D00122CD
:103580000904159159780F9199781691DA731F46AD
:10359000183700241494844222D21698A0421AD0DC
:1035A000E5B2002117AA04262846334622F0D4F8B3
:1035B00017981599084202D01499491C1491304368
:1035C000C0B27C2806D10621F8262846324622F0D1
:1035D000CFF83E70DE4B641CDE4800780C37DAE72B
:1035E0001499C9B2401E884204D15879002801D1EB
:1035F00000201FE201200490C2021399002903D089
:10360000084602E00B2015E21020511A0591129293
:10361000101A089000200C9007900F9D0E9C0C999A
:10362000200400D1D4E11491D87B002801D10120DD
:10363000D873EEB2002717AA04233046394622F089
:103640008BF817981399002913D01599084213D0B5
:10365000701CFC4909781CF013FA0D46F84B1298BF
:1036600018825973D87B401ED873641E1499491C64
:10367000D6E70B970F9D02E00E9414990B910F95CE
:10368000C0B2702804D00F98C0B270211DF0EEFFB8
:103690001698C4B2002517AE0423204629463246A8
:1036A00022F05AF83078FE2803D0FE2120461DF083
:1036B000DDFF0621FE262046324622F059F80C2274
:1036C000104660431194DE4F394616310C18A01C89
:1036D0000A90A67016983873129838820F987873EB
:1036E000C3B216931492104658430818C6887E82B7
:1036F000FF20B873BD827D208100D448069123F05D
:10370000E3F9CE480570F87BCF49169A511808188E
:10371000CC49097800B2169118F0AAFB0F9B3A46E3
:10372000119F1091A01D0990E0880D902946DCB2F0
:10373000BC4200D1BCE0E80700D0CEE0B7B2162F03
:1037400000D89CE0BD480078002800D050E71691D2
:103750000F93F01F039081B218AD20462A4615F052
:1037600029FDE98908461030B8420DD8A87A962874
:103770000AD10398451A18A8427AA8B203912346A1
:1037800017F0AEFC002828D0751EAD4A0F9B119F84
:10379000A8B2172800D219E1362802D82E46163EC4
:1037A00000E02026AD1BB3B2A9B21DAA204621F02D
:1037B000D3FFA34A0F9B3004EAD0B0B21DA9401832
:1037C000401E0078962801D0761EF4E77619002571
:1037D00016999C4800781690A9E7019518A8C07A18
:1037E0000025C107964A119F04D180070F9B04D47E
:1037F000019EEDE7019E0F9BEAE70398C11D0D981E
:1038000080B2039189B2091812980091814201D9BE
:10381000049DDDE789480078019F039E310420D094
:1038200000281ED10396B6B20698864200D3069EA3
:10383000B9B220460297854A334621F08DFF0D9F8D
:10384000B9B21198814A33461DF0CCFA7B49087011
:10385000BF190D97029FBF1903998E1B784A0F9BC2
:10386000DCE71699491C1298009C844203D1019E02
:103870000D90049D01E0019E0D94119FA9E7002980
:1038800003D014986043101886831098C0B2844205
:10389000119F29D0601C169989B21CF0F1F8684A72
:1038A0000B460846149948431018868B00253DE7BF
:1038B00062480078002800D09AE6169A11B2624851
:1038C0001018001900B218F0D3FA5D4A0B46C8B2BE
:1038D000149948431018868B0CE0002905D01498E1
:1038E00044431019868300E0109B54480078002858
:1038F00000D07DE60D99118296829373099801801C
:10390000517B1220125E0124384623461FF062FDCF
:103910004B48817B14204A4A125E022338461FF02E
:1039200059FD4748008A1399002907D0059981421B
:1039300007990B9E04DB2146079401E000210B9EB2
:1039400011910899814207DB7C2106E03872002042
:10395000C4610020BB690020782138461DF086FE36
:103960000BF00AFF05463846354FF97B491BF973C2
:103970000621FC24224621F0FBFE0A980470B87848
:10398000B1B2691808182F490E7831461CF078F842
:10399000B9701691481CC0B231461CF071F87970AC
:1039A000B97B149848433818808B102805D1481CDF
:1039B00031461CF065F8224B00E03B460F910E9813
:1039C000401B0E901198C00702D126E610268CE706
:1039D0007C201EF0ADFA0446FF281AD17E201EF08E
:1039E000A7FA0446FF2814D115494C780C206043EF
:1039F0000818807DFF2808D0887812490978401877
:103A0000401E18F035FA0C4603E07E2120461DF0DA
:103A10002DFE0B4DEC70E0B20C2141436818808BF9
:103A2000E880A878FE211DF021FE00206871288A18
:103A30001299081A00B225B0F0BDC04638720020B5
:103A4000C4610020BB690020FFFF00005455002026
:103A5000F0B59DB00446FB4E3078FB4D287003282E
:103A600000D024E100203070287011A823F098F8CD
:103A7000002800D019E101200F9011902846243031
:103A800011A91BF009FC002800D00EE10F98C0021C
:103A90000D90EE4F5E21384623F016F80C370A21C0
:103AA000FF2238460C9222F097FE1EF00BFF0020FA
:103AB000109021461AF0D6FCA86029460C3123F05C
:103AC000EBF82C696D69204629461BF0D9FFC1B27D
:103AD000062900D30621DD480170DD4F39700D98AD
:103AE000854200D0E1E0C802844200D2DDE0D64841
:103AF0008068002800D1D8E0D44A109E56710C9BF3
:103B0000D3700F98C002D080069609960796059646
:103B1000049608960A96019302930393CCB2A642A8
:103B200000D3C6E0F4B200251CAA0423204629468F
:103B300021F012FE1BAA20460E952946F14DA847FA
:103B400001271AAA20463946A847022119AA204669
:103B5000A8471C99C8B20246703A0E2A04D83B46C0
:103B60009340E94A134203D10246FE3A022A03D2A5
:103B70008A0CE64B9A421FD020460EF09DFFDD498D
:103B80000870002800D0CAE0354600261CAA04238D
:103B90002046314621F0E0FD1BAA204631462E4644
:103BA000D84DA84701211AAA2046A847022119AAE0
:103BB0002046A8471C99C8B20C2210967243CE4BDF
:103BC0009E183346163318700A0AF2758903890F56
:103BD00071761BA989783176FD2801D9102126E05C
:103BE0001BA90988CA4A914221D10B930E981490BF
:103BF0000D9DA8B2051FA9B214AA0423204621F0E6
:103C0000ABFD1498411C03D12946C24A1140F0D1A2
:103C100039460B9BFAB2042A06D8C2B2FF2A00D05A
:103C20003946000A7F1CF5E7C8B229181878B18315
:103C30001AA98978B1761A99F18319A98978F17648
:103C400019993184702828D07828AC4F109E20D044
:103C50007C280AD07E2812D0FE280BD0FF2814D151
:103C60000698401C069003961CE00598401C0590A1
:103C7000029617E00998401C09900C9612E0B0B229
:103C800001900798401C07900CE00A98401C0A908D
:103C900008E00498401C049004E00898401C089038
:103CA000964F109E761C397838E7012030701DB091
:103CB000F0BD0A9800060BD10998C0B2012807D8B8
:103CC0000898C0B2012803D80798C0B2012810D9BB
:103CD0008B48042202700024CAB2E0B290420FD294
:103CE0000EF0EAFE834A117801431170641C3978A2
:103CF000F2E70698C0B2A04214D1814800220270B7
:103D000000207D4C6070491EA170E070A18BE180A5
:103D10007E211DF0ABFCA078FE211DF0A7FC7548AC
:103D20000078C4E70898000624D00998000605D159
:103D30000698000603980C9000D18BE07048022191
:103D400001706D4E0C9FB770781C80B221461BF03D
:103D500097FE7170FCB220460EF0AEFE6549087009
:103D6000FE2120461DF082FC0F9870710020FFF7A5
:103D7000F3FBD4E7099800061ED00C980390604826
:103D80000F9A02705C4C0398A070401C80B2C9B2BC
:103D90001BF076FE6170029880B2FF2822D1019854
:103DA000FF2800D098E0544AD17088B20C214143DA
:103DB0005018808BD080B2E70598049A1043000613
:103DC0004E4F85D01FF0F2FAA04247D30698000666
:103DD00000D18AE048488078FE211DF047FC474822
:103DE0000178CCE7444A0299D1700C214143501824
:103DF000808BD080182892D3C11F0298C0B289B29C
:103E000014AC224615F0D6F9E07A4007AED53A490F
:103E1000C878C98814ACE289891AC91F00220092A7
:103E200089B20323224607F0D7FC002800D076E7AA
:103E3000A189002900D172E714A8007C1BF040FD85
:103E40006DE7C046DF76002038720020C461002094
:103E5000BB6900201FF0AAFAA04246D228480321DD
:103E600001701FF0A3FA0446234E30730C25284638
:103E700060433018817E7173C07EB0730BF07CFCA0
:103E800000191E490C7821461BF0FAFDB170481C40
:103E9000C0B221461BF0F4FD71707C201EF048F882
:103EA000FF2810D17E201EF043F8FF280BD1FF2001
:103EB0001EF03EF8FF2806D178201EF039F8FF28C2
:103EC00001D10D4840780C49C870C0B2454348192B
:103ED000808BC88088781FE70749019ACA700C2038
:103EE00050430818808BC88019E7054806210170E7
:103EF000FEE7C04638720020C4610020BB69002084
:103F0000C6690020E563020001510000832500001E
:103F1000FFFF0000FCFF0000F0B587B01646054625
:103F2000041D50040595029440D40191C805C00EAB
:103F300000D189E0052080033146814303910020B0
:103F40000690824C82480068042800D288E00496DB
:103F500000201DF0D5FF80B2451D2F467D4807404B
:103F6000606939461AF0DEFF06466069864204D071
:103F700008200699014306916661002E69D0A908C0
:103F8000F08935461035281818F044F9F0892918B9
:103F9000E279CA70C019F0810420069901430691A4
:103FA000059D686B23F00AFB039ECBE704962E4623
:103FB0003036F94C1FF03EFE039022F0F3FE6F6B9B
:103FC0007969B869009121600002F5490860F548F7
:103FD000808DF64CE0811EF076FFF2498886002045
:103FE0000190EE4908830697788AED498880102071
:103FF000607168881FF02AFA0446307816F066F877
:1040000029468227002822D005460846313000780C
:1040100029461CF0CBFE002800D0AFE0032C00D0D6
:10402000ABE00698007C41424141284602F002FF85
:104030001DF01EFFD948019AC286B056C1B2402970
:1040400000D2CDE01146CDE00020069011E00D46F3
:1040500095E085206071D84801210160059D049E8E
:10406000A079002804D0A86BD149C96816F060F87F
:10407000029C0198800431D50496CC4E7089CF49BA
:104080004968411A4220375A0391B94225D2442047
:10409000345A686B1FF016FE002810D002210172FE
:1040A0008189B26B904202D10020B063F063481D59
:1040B000C34908403F1A641E0398B842E9D30398E5
:1040C00087420DD1002C0BD4383603987081B4810F
:1040D000102006990143029C09E0049E06990AE01B
:1040E00084207071B44801210160029C0699B44893
:1040F000001D049E06437006C70F0F430120C50331
:10410000681C019901422FD0032000BF00BFA448C2
:1041100080880599496B48820224A4484079102878
:104120001CD1019828409F48008815D1411E0629BE
:1041300000D997E01320C0467944097949008F449B
:104140000D03939191959700142007E000610020E2
:10415000CC110840FCFF01001DF034F92743029CFC
:104160002178000208182080B807059D14D5A86B97
:104170008F49C96815F0DCFF0EE02746059D049EB7
:10418000F8B20F2801D8002000E00120029C21781D
:104190003A02891821804700607800020321090251
:1041A000884212D1F00305D5686B23F007FA01208D
:1041B000000486438248001D064206D0686B7B4A95
:1041C00038320023D9430AF06BF8B80705D51EF042
:1041D00037FB21F03DFE20F04BFF384607B0F0BD25
:1041E000402211437F240028059D049E01D40846E7
:1041F00000E020406B4948866C490979002904D0C9
:1042000000060099484068490860FF206449888298
:104210002846039918F052F807460F28B0D8A86B23
:104220000025002829465D4B45D06149C9681962BF
:104230001C820021417084700278D2071CD1584A38
:10424000D186118751879187D187198059809980AC
:10425000D980198159819981D98101758160C160A5
:10426000016124E0102079E7152077E7412075E708
:10427000022013F077FC71E7017A494AD186417A2E
:104280001187817A5187C17A9187017BD187417BE0
:104290001980817B5980C17B9980017CD980417CC8
:1042A0001981817C5981C17C9981017DD9810078F6
:1042B0000221014049083D48817102980078012897
:1042C000284604D13A48C0680599096A081A01903D
:1042D0001FF084F91EF0CAFA344F38817D610598C9
:1042E000406B23F06BF9012620F01AF978810698CB
:1042F000017C00292B4604D0428A182111404B42F0
:104300004B413704294C22463832A563E5631672C7
:10431000558195810221039209F0C2FFA2792148BB
:10432000808D2449002A02D08031084602E04007EF
:10433000400E4840059D0499B943049122F0F2F8DB
:104340000698007C002806D0698E01984018002845
:1043500004DC132703E0042410490DE00327049E26
:10436000002902D0012800DA0AE7002900D1084616
:104370000A494882032400260E8722F01BF80220F7
:1043800000BF00BF0C4804600023D9430698039A7D
:1043900009F086FF0327F2E6401408407C2009401C
:1043A0003C200940062009404014084000610020DC
:1043B0009465002071A1000030100840CC11084025
:1043C000FCFF0100F0B595B022F0DCFAFF2800D127
:1043D000F0E10446F848456822F0D4FA7B229100C7
:1043E0004143681871218900405CC00700D0E1E1B9
:1043F0000B92E0B222F020FE06460746FF20203056
:10440000315C012903D1301841783846D0E10F20C2
:10441000400130180F90DB204000301812909F248C
:104420003546763523F01FF9A87C022814D10F9861
:10443000808800070ED5B979788E4208BB8EF88E39
:1044400000090090002019F0C9FE0F9A90881821E9
:10445000884390800020A87403954B21912260002E
:10446000334696330D93129B1B78022B02D1002307
:10447000129C237089005500341830462E30059068
:104480000D98007802280BD1002014910D99087026
:10449000B87931466231059A127B1BF0D1F9149933
:1044A000139777180A9670190C90218B002902D067
:1044B000A07D0EF0D3F80720049023F0D5F8139ACE
:1044C00050891081BD4E717C707B11904318F07B38
:1044D00014901818B37BC018357C089540191090BB
:1044E000B748056892793C200790029250432818FB
:1044F0003025405D0690B88809914018B880F07C5E
:10450000FD882818F880307D3D8928183881788901
:10451000119A80187881B8890E93C018089BB881C9
:10452000F88914994018F881388AC0183882B07C0C
:10453000258828182080707A658828186080F07A8D
:10454000A5882818A080B07AE5882818E080307BFC
:10455000658928186081307AA5892818A0810C9A6D
:104560009088401C908010881099401810805088C6
:10457000119C001950803D68002D10D021460698EE
:1045800040002A182B5A109C1B192B524A20135AF0
:1045900059181152B07B0E90F07B1490337C09981F
:1045A00000280A9D27D10E98002824D114980028AD
:1045B00021D1002B1FD10020139CE0830F9E306877
:1045C000B188049A11400127FA070240501803D01D
:1045D0000021029819F0FCFA784B587B00281BD078
:1045E000207C002801D0E089A081207F012830D1E3
:1045F000608CE0832DE00027129807840F9E3068BE
:10460000C10F139C47D0B1884A07920F3AD00021BE
:10461000029819F0DDFA3EE00C99C888401CC88069
:10462000207C0227002814D0606940000599097891
:10463000644A4A4380180B99090140181490604954
:104640000968A2793846079F7A4307468918149863
:1046500048862089A189884204D0401A25D95A4920
:10466000884222DCB088800606D40C980088002896
:1046700000D19BE008219AE0A0793E2122F026FF9C
:10468000FD2194E0CAB2521C03231340049A9143C3
:1046900059183060B1802089E1890818A081207FF5
:1046A0000128464B01D1608CE0832B20C0002918E3
:1046B000587A00280FD0012020770398007800282E
:1046C00009D10398807C002805D10D980078002836
:1046D00001D1608CE083087900280BD0022804D136
:1046E000987B002801D1002003E0187D002801D02C
:1046F00002200871587800280FD058682168C860D7
:104700002F480168A079079A4243891800224A86F7
:10471000B188012212020A4311E029480268A079F7
:10472000079B4343D218538E0B60244B116A2268B7
:10473000D1600021E1832177B188244A0A40B28008
:10474000743599787F2900D181212970812901D080
:1047500022F088FE204622F0ABFC01282AD000255A
:104760002046294622F037F82046294620F083F9D2
:1047700022F0A6FD22F096FE204622F066FF22F0EF
:104780009BFC1348103014F08FFE384610992246D7
:104790000CF044FE022F00D0257400F01BFA22F02A
:1047A00097FE002806D006F019FA03E03E212046C5
:1047B0001EF028FF15B0F0BDDC6800201067002057
:1047C00008780020C4090000AA100000FFFE0000C5
:1047D00040740020F0B591B00646002710970F975F
:1047E0001E20002E00D1DAE10C90356E0FA910AA20
:1047F00030460BF0DBFC072801D10720CFE1324621
:104800002932706E132140567F2805D100211046B1
:1048100014461FF0FDF90AE010700021144620F044
:1048200083FFC0B222F02EFA002800D1E2E00D94FE
:1048300030465D3008902846C0300A9028468030C7
:104840000990284665300B902C463034291DD548F8
:10485000286006918F700F80EF71D348A8602846BA
:104860000C30242122F030F907202070601C0F2129
:1048700022F02AF90D98C057394620F055FF607094
:10488000706E407A2070069B188801221043FE212A
:104890000491884318800592EA7122F011FD7D2170
:1048A0004901401828620794A7703046294622F033
:1048B00033FC2846403029466831A863E9632A2141
:1048C000009022F001F97F200B994871EF662F6765
:1048D0006F67286A3061B548007808990870B44855
:1048E000007800280D9A16D0507E049908400228BE
:1048F00011D1B04800680D30144621F02AF9224643
:10490000002808D130463030AA490968C91D06225E
:1049100021F04EF82246507E411E8841079B1946E1
:10492000343103910E9634240294195DFD220A401D
:1049300040001018185528465830303606969E4BC1
:104940000624314622469847099E37709B48F080DE
:104950000895059D358108988C3006992246964B1E
:104960009847F4723C20019737540A9E9348708010
:10497000B58008990298079A105C4001402207927E
:104980001040001DB0710D460846C83006992246F9
:10499000894B9847F4710E98807B012801D0042838
:1049A0002AD1039E30784001079908400D99897EED
:1049B000C9014018401C099FB8720C20F8722C469F
:1049C000284692300E9D3C3506220792294620F05B
:1049D000EFFF0D98807E3178059A1040049A1140BF
:1049E0000818307020465E302946079A20F0E0FF14
:1049F0000A9B41E01220D2E027460E9B986E0028C9
:104A00002C4612D0C11C0A78497809028A180CD0A9
:104A1000411D204692301E4621F0BCF83346B06E50
:104A2000C078099AD17A0818D072D86E0028019EF1
:104A300011D0C11C0A78497809028A180BD0411D8F
:104A40002046CE3021F0A6F80E9BD86EC0780A9A88
:104A5000D1790818D071987B0228394600D03146A8
:104A6000032800D102210A9B099F03980078400186
:104A7000079A10404018B872214678312546B4355F
:104A8000F87A801DB880D879801D18804C488078CD
:104A9000400606D5B87A20221043B87298791043A0
:104AA000987127464837384620F0C2FE38462946D6
:104AB00020F0BEFE254650351FF0B4FA01462846C8
:104AC00020F086FE0E98006FC17800790002411830
:104AD00002D03C48484300E03B48E0623B480026A7
:104AE000022726616761A0610E9B586E807C0B9D3A
:104AF000297803220240FC20084080182870586E54
:104B0000807C002803D12A480078012817D122F0A0
:104B1000D3F9054622F0D4F9014628461CF096FF49
:104B200000280C983BD10B9A107818210143117082
:104B30001F48007801281FD10098056028E0022056
:104B40001EF090FA002824D0044616F0DBFF00285F
:104B50001FD10B9A107804210143117020796179DB
:104B600009020818A1790904E279120651180818F7
:104B7000001F009908600CE00E98406E807C04993C
:104B80000140022901D100990D603843032800D16A
:104B900065640F98002801D00D498180304611B01E
:104BA000F0BDC04601100000910000009778002081
:104BB000E468002094690020B1590200030200005B
:104BC0009E670020409C000000204E00DD90010008
:104BD000AC0D0000F0B589B021F0D4FE0446FF28EA
:104BE00002D1002020F036FAE0B222F025FA044685
:104BF0001B200001231820560028079306D57F218B
:104C000008401870204611F0FBFF079B22468832AF
:104C100021462E31A06E00680068002802D00020D6
:104C2000E08311E04820085C00280DD110780028AE
:104C30000AD1907B002807D19879002804D1207FE1
:104C4000012801D1608CEBE708920091DD272B2031
:104C500006902189E08B04914E1C35186581204611
:104C60001FF086F9002803D1C1480078012803D13C
:104C70000020E083668135467E000698C0000590DE
:104C8000089F387801280BD17A88A9B204981DF0C2
:104C900057FA002804D021F07BFD2DD07A8821E03E
:104CA000B87B01280BD1208961893A8A1DF048FA26
:104CB000002804D021F06CFD1ED03A8A12E0079B38
:104CC0009879012818D1208961891A891DF038FA4C
:104CD000079B002810D062892189481C80B282423B
:104CE0000AD01A89824207D0501E608180B222F019
:104CF0004EFB401EE083079BA5190598261898795E
:104D000000210291012814D118892189491C89B2F6
:104D100088420ED820461F4622F073FC6A782A701B
:104D20000220B871089FA17900200292134613F067
:104D300047FD3079002804D00020E0832089401C02
:104D40006081039638780128069510D178882189EA
:104D50004A1C92B290420AD1608122F018FB618E07
:104D60004143F8880E18204610F074F800E0668E73
:104D70000F21254620357F48E28B0592571C77434B
:104D800002467A432668F068019210180790F06096
:104D900079483822825C002A06D0784A5278002A64
:104DA00004D0774800220280608A0EE00491744AA1
:104DB00013885A1C72490A80002B01D0608A03E0D4
:104DC000408F039AD28810180499784349010491BE
:104DD000192109011AF054FE401C6061A761059970
:104DE0002970684B1968A2793C256A4389180A6AB8
:104DF0003261079A101A0862B06008798880A08A28
:104E00001A68A67929467143079252181146323121
:104E1000538E400018185086089A1278022A05D13D
:104E2000009A1278534B5A4310180880049AA3181A
:104E30002027524A5278002A089305D0998839428F
:104E400010D13146079A1DE0029A042A03D1E122CB
:104E50001201801808809888384201D0002008800C
:104E6000069F2BE0002130461E4622F02FFBB08823
:104E7000B843B08043480268A179284648431018D7
:104E8000408E0E466943079251180A6A3E4BD2186B
:104E90000A6223689A60019FD21B1A617B22120169
:104EA00082184A86069F3B78042B04D13231572260
:104EB000920182180A8090B203990860618E33488B
:104EC000027C437C1B029A18837C1B04C07C000676
:104ED000C01880180068484364211AF0D1FD2549A4
:104EE00041432948401890306E4307998919C86298
:104EF000FF20063020180421062220F020FA002886
:104F00000CD021F057FD41B21E4E3268A3796B439D
:104F1000D318491001220240184609E0194E3068A2
:104F2000A1796943401808998968092289560022A5
:104F30001BF004FF3978002903D1002020F08AF803
:104F40003978A0793A7914F06BF9204622F0ADFB5C
:104F50003068A1794D434019216848600C48072109
:104F60000170204614F050FE002009B0F0BDC0468C
:104F7000E8690020C40900002473002010670020A5
:104F80006478002008780020C0FAFFFF70AA0200B1
:104F9000D9690020F0B58BB00446016CC26A1BF0E1
:104FA00025FEE16F4A1C904201D9352591E1002888
:104FB00013D0206C8A0087180837891C384621F0E6
:104FC00003FCA168384620F0AEFD002807D0E66F4C
:104FD000711C884205D9C6257BE1532579E16C25F2
:104FE00077E123786625022B00D272E1052B00D9E8
:104FF0006FE10890216C0A68981E434243410125E5
:105000002A405A4080200A9022500898E0672046A3
:105010003A460B4611F0B4FE20784000001F2946A6
:1050200081400A982150216C20460A461CF0C2FC9F
:10503000E667E16C20460A952A4620F0C1FD626EC3
:10504000A06EE16CA36FE56F0095A34DA847A26E1B
:10505000E06E21F072FEA06EE26E21F06EFE216F16
:10506000226B20461BF0C2FDE56FA84201D93C250A
:105070002FE100280ED0606CE26E216F22F06AF9F9
:10508000216F626B20461BF0B1FDE56FA84203D98A
:1050900065251EE1C3251CE1074600280ED0A06C43
:1050A000216FA26E22F056F9E16EE26820461BF0F5
:1050B0009DFDE56FAF4203D95C250AE1562508E165
:1050C00026468036A26EE16E206F22F043F9E26C34
:1050D000206D216FA36FE56F009500F0FBFDE06F81
:1050E000421C09963260656D0026277821F0F5FD97
:1050F00009DA616C284621F0C9FA09980268900023
:105100002D18761CF1E7A56D002621F0E6FD06DAE4
:10511000A16C284621F0BAFA21F048FBF5E7E56DCD
:10512000002621F0DAFD06DAE16C284621F0AEFA1D
:1051300021F03CFBF5E7216C08688007C20F089856
:1051400040010290401C0190002507952B460A9EC5
:1051500002988642E8B26AD80490069308920198B1
:10516000801BB84200D33846099A10602046324668
:105170001AF098FF4119C8B27B1E01252A469A40B1
:105180009042059500DA00252B46BB4090420A96D6
:1051900000DB48421818089A5049895C9600504A2A
:1051A0009219079F7B00D218525D92005118000699
:1051B000800D001F042290430818099908602046BA
:1051C00000F0F0FB6800474989190918049A895CC6
:1051D0000391454989190818C75D079720780490FD
:1051E000811E42488019405C0A9E36181420089A95
:1051F00050433F4A1218052041435118069D4D5D0A
:10520000216C720992008A581F233340DA40059BB3
:105210001A40039F7A4042430A20089B5843354B6B
:1052200018188018425D2B463D46049F90E70128E0
:1052300010D107988000C01C099E30602E4D20467A
:10524000A847012030602046A84702203060204651
:10525000A84727789925032F3BD30020C043089007
:10526000B91E01200A908840FE30099EC7B20A98F4
:105270003060002F11D07A1C2046394604F030FEF1
:105280000A9830602078801E08998140C9432046E2
:105290003A4604F025FE781EE8E72078801E089F35
:1052A00039468140CA43002107912046134B984755
:1052B0000A9830602078801E8740FA432046079F76
:1052C00039460E4B98470A9A3260204639460B4BB6
:1052D000984728460BB0F0BDD55C000070AF0200C7
:1052E000DCAB0200ACAB0200F4AB0200C4AB0200CA
:1052F000B4A002007CA50200A5590000E19E0000B8
:105300007FB51546D14A82181D2A00D934E15200D2
:105310007A449288520097441D002F01C500500026
:10532000BA0060009A00DE002F01E4002F012F0177
:10533000230115012F014500A50078003E00EF0074
:105340000001440139012F0128002F018E004D0179
:1053500033006A001824012900D069E12878022866
:1053600000D965E1BA49C87061E11824012900D06B
:105370005EE1002D00D15BE12878B549087056E167
:105380001824012900D053E12878012800D94FE1E1
:10539000AF4908754BE1012900D0DFE0287820F003
:1053A00053FA44E11824012900D041E12878042867
:1053B00000D93DE1A649887439E11824012900D0BB
:1053C00036E12878042800D932E1A1490871032880
:1053D00000D02CE100244C7178E0102900D0BDE011
:1053E0009B4854301022294620F0E2FA1FE118248D
:1053F000012900D01CE1002D00D119E128780128F5
:1054000000D915E19249887011E11824012900D0D2
:105410000EE12878022800D90AE1002800D107E12E
:105420008B49C873022800D00BE1102008740120BA
:1054300021F098FBFBE0002900D08FE021F004FD73
:10544000002800D1E0E082480121C174EFE0182477
:10545000012900D0ECE02878012800D9E8E07C4957
:105460000872E4E0072979D1691C01AE06223046B2
:1054700020F0B6FA29780024009403AA3046234687
:1054800021F061F9002800D1A7E03424D0E01824ED
:10549000012900D0CCE02878012800D9C8E06C4967
:1054A000C871C4E01824012900D0C1E0287801287F
:1054B00000D9BDE06649012803D10A79032A00D149
:1054C00084E04871002800D0B1E000248C712046AF
:1054D00020F0E0FFACE0012940D128785C49487316
:1054E000A5E000293AD121F0AFFC002800D192E0DC
:1054F0005748012181739AE0554E707A182400288C
:1055000000D095E0602978D1002D76D051486022F6
:10551000294620F04DFA012074E01824012900D01A
:1055200086E02878012800D982E0494948720024A1
:1055300000287DD00120887246484749602220F02B
:1055400037FA75E0012909D141494A7C2878487425
:105550000024002A6CD1012863D069E0182467E098
:105560001824012964D13A48C27B2978022A2FD114
:1055700010295DD110212EE002240E2858D80229CE
:1055800056D129881AF0BCF8044651E000240129BC
:105590004ED1287801284BD82D49C87220F072FFCF
:1055A00046E01824012943D12878012840D8284909
:1055B00008733CE0182401293AD12878012837D80B
:1055C0002349012830D14A79002A2DD102242FE025
:1055D000CA1F0A2A2CD2017429E01D4D287B0028FD
:1055E00004D121F031FC002802D0287B012822D1EF
:1055F00003A8007807F08CFE0FE0012918D1002DD8
:1056000016D02878B07212E00DF024FE0446502027
:105610001EF034F80CE01EF009FC044650201EF089
:105620002DF817F00FFC03E0887120F033FF002401
:10563000204604B070BD686A03A90978012242546B
:10564000F6E70024204621F08DFAF1E700FCFFFF89
:10565000C07000202471002094A10200F0B58BB02E
:105660000C4620F0A7FF05462046294621F0CEFF34
:10567000002D01D00020A860012660003CD5B507B0
:10568000681C21F069FD02D121F0DCFFB4432846FB
:10569000403021F061FD03D121F0D0FF4020844350
:1056A0002846203021F058FD03D121F0C9FF2020E9
:1056B0008443281D21F050FD03D121F0C7FF0420B1
:1056C0008443A81C21F048FD03D121F0C0FF022033
:1056D00084432846083021F03FFD03D121F0B3FF79
:1056E000082084432846103021F036FD03D121F0F4
:1056F000A8FF10208443AC43E00234D53705B81C22
:1057000021F02AFD03D121F078FF02208443781C88
:1057100021F022FD02D121F06FFFB443384608305A
:1057200021F01AFD03D121F069FF08208443381DC0
:1057300021F012FD16D1032021F086FE00280FD0A3
:10574000024688301546943501680A91526AC38C26
:10575000018DC06B0091019028460A9921F0F1FD5E
:1057600004208443BC43204621F082FC044620F000
:1057700021FF0546200403D521F0A6FCF003844355
:10578000600328D5002D10D02888402819D0310278
:1057900088420DD080281CD177480078082801D095
:1057A00021F008FF21F03CFF13E021F003FF10E09F
:1057B000714800780E2801D021F0FCFE21F03AFF5C
:1057C00007E06D480078072801D021F0F3FE21F0B2
:1057D0005BFCB0048443600103D521F06DFCB0068E
:1057E0008443200703D521F042FF08208443E006CC
:1057F00012D562480890FF2000210091019102918A
:105800000391049105910691079002200A460B46E8
:1058100008F0EAF810208443A00603D521F029FF00
:1058200020208443200303D521F0F5FEF0048443B7
:10583000A00303D521F014FF70048443200103D595
:1058400021F092FBF0068443E00003D521F0E1FE55
:1058500030078443E0030AD521F012FC012802D16D
:1058600021F0BAFB01E021F0F3FB30048443A000F7
:1058700003D521F0CFFE70078443600703D521F0E4
:10588000EEFE04208443200603D521F0EEFE8020A6
:105890008443A00703D521F0E1FE022084432002C7
:1058A0000CD535480078052804D0112804D121F002
:1058B000B3FB01E021F0BFFEF0058443204621F058
:1058C000D1FE0446800416D521F066FB2C4820F05A
:1058D000A1FD2C49086019F093FF002804D02A4844
:1058E000026803200146904728481BF0EFF907F0B3
:1058F000AFFA70038443600203D505F06FF9B00579
:105900008443A00503D520F0CBFA70028443204DD8
:10591000600402D4681C044005E0812017F0EEFD0D
:10592000112080028443E00705D01A48006800284F
:1059300000D080472C40E0041BD5174D28680D305F
:1059400020F007F9002804D12868C11D0D3016F099
:1059500037FC21F0A1FB1148007811494A68350352
:10596000294619F033FC002802D08E2017F0C6FD1E
:10597000AC4320460BB0F0BDD9690020FFFF00000A
:10598000FFF9000098690020F077002004690020EA
:10599000FEFBFFFFA069002094690020BA69002087
:1059A000E4680020F0B589B0044680202158C8087A
:1059B0000D460391E26F511C4143E06DC9B28F0067
:1059C000C019616F636C06AE0BC6A807060F05A869
:1059D0008159206EA36F0092BB4D0A46A847606EA6
:1059E00021F09CF905A88059A16CA36FE26F009289
:1059F000B64D0A46A847E06E216FA26C636E069210
:105A00000791089305A98959E26DD2190497236E6D
:105A1000E56C06920793089505AA21F093F9AA4D23
:105A2000A847606EE16EE26C06AB07C305A880591B
:105A3000E26F521C20F02AFEE06E216F0690079163
:105A4000089005A88059216E21F04CF99F4DA84778
:105A5000206FA16E06900790089105A88059A16D4E
:105A6000C919226E636E06AD0EC505A98959A26CCF
:105A7000E36C656F06930795089205AA21F062F919
:105A8000914DA847606F216E06900791089005A878
:105A90008059A16E21F026F98C4DA847234660332A
:105AA0000ECB06930791089205A88759E56C606FA5
:105AB00006910795089005A98959069207900893C1
:105AC00005A88259A36FE06F009038467E4DA84725
:105AD000226E606E616F06AB07C305A88559E16E43
