:1000000000900020B16C02007B7A02007B7A020033
:100010007B7A02007B7A02007B7A02007B7A020004
:100020007B7A02007B7A02007B7A0200737D0200F9
:100030007B7A02007B7A020001FA01004947020044
:100040007B7A02007B7A02007B7A02007B7A0200D4
:100050007B7A02007B7A02007B7A02007B7A0200C4
:100060007B7A02007B7A02007B7A02007B7A0200B4
:100070007B7A02007B7A02007B7A02007B7A0200A4
:0C0080007B7A02007B7A02007B7A02008F
:10009000F0B591B00791044606463036011D0125A2
:1000A000069250040D9408910995019607D408888A
:1000B00089780904401800260496039669E124F023
:1000C000A9F8039027F0CAF93078304C48216054E1
:1000D0002A4625464835014611408207D20F51185D
:1000E0004007C00F0F1820341421204627F048F88D
:1000F000277500266675A675E6750D9C244825496A
:100100000160254825490860254FB88D1F49C881E1
:1001100023F0A1F9B8862148868010200F901B4952
:100120000F464871EE70AE80608823F06BFC0328A8
:100130003DD122F063FE388100267E61A06B103035
:1001400024F0E6F824F0EEFC7881A16B088B134FC5
:10015000F883488B3884888B78842420085C800757
:10016000C00F388388680327002867D0827B121865
:10017000D37B0F221A40072A14D8C0467A4412793A
:10018000520097442B190F0F0F0F323900610020D6
:1001900040140840D6BE898E005555553C20094074
:1001A0000620094049200026F34A165422E0014661
:1001B0000496089D0746DDE008462430CA8BEF4BC5
:1001C0001A860A8C5A86498C9986007809990840C3
:1001D00098834920E84A115405260BE049200999E3
:1001E000E54A11540326374604E049200999E24ABA
:1001F00011540226089D23E000266E700999E970CB
:10020000817B0918497C890617D000210E460EF023
:10021000EDFA3520D84A105C0028089D10D060887F
:10022000032738401146213189780904490D884255
:1002300006D04C200999115402E08427089DCE4A2B
:100240000E964B26905D00280BD0104600233832C6
:100250008363C363137253819381A06B08300121C0
:1002600004E0A06B08300221002213460EF0ACF827
:10027000002100282DD00C96109102220E9E3146AE
:100280000B9211404A424A41431E581E8341134378
:100290000493012B21D1D64806800022B74E7281EB
:1002A000A36B2525585D03240440F482585D400863
:1002B00004263040CF4C2085585DC006C00F6085B5
:1002C00000290A960CD10020C94988810D9CAA4EAC
:1002D0001BE0832704910E464CE08327A64E33E0B3
:1002E000586825331B78D90707D1C3495A073340CB
:1002F000D41721405A00204001E0C049491C0D9C00
:100300009D4EBB4B27F0D0FAB9490E98C00703D1D8
:1003100000200882089D17E0A26B1068525D9307C9
:100320000AD4B54D0A9B13405207D1170D405A000D
:100330002B460840AE4902E0B04A531C0022089DFB
:100340000B82A23121F0EDFA0C98305C002810D01D
:10035000A06B083023F0A6FF002801D18421717121
:100360000B990172B16B884201D10020B0630F9EDE
:1003700000E0109E2888A978090440183902FF225D
:1003800012029043401828800F2F01D902210E43FA
:10039000099DFF210902014003200E9000028142C5
:1003A00061D1A8040590964B29020846B030079AFF
:1003B000024202915BD0104608400B90069D2846F1
:1003C00018400A906C4F8F48C06A04285BD310967F
:1003D00000200C9022F05CF880B2441D21460E985B
:1003E000814378690F911FF081F80646786986424B
:1003F00004D008201099014310917E61002E3AD05C
:10040000A108F0893518103528461CF0E7F90B983B
:100410000028594F16D04B20385C002812D068684D
:100420000F21090401400E98000481420AD1284698
:1004300022F07EFDC00602D535200C9939544D209E
:1004400009993954F0893118FA79CA740F9940180A
:10045000F0810420109E06430D9CA06B103023F009
:1004600057FF0A9DAFE7B00700D5D1E2D6E210965C
:10047000069E354611E085203F4F78716248099904
:1004800001600D9C109E1096B879002804D0E06B96
:100490005E49C9681FF07CFD069E05980640680607
:1004A0002946C50F0F4608460299084003D0324935
:1004B0004A2201238B54B30C10990D430799C907A5
:1004C00012D0059939400FD14A490988042920D111
:1004D0002A48406D28498A69801A60634020487123
:1004E000032000BF00BF4FE00798000401D4049927
:1004F00057E021484079102803D13E48008821F078
:100500002BFA26F061FC424A26F0EAFA002319464B
:1005100047E0BA0529D41093CB1F5A425A41164CD2
:100520004A23E35C5E1EB341002829D11A4327D138
:10053000022903D13520205C002825D10120049018
:100540004820205C002800D198E12E480521016058
:10055000A07900280D9C04D0E06B2C49C9681FF0DD
:1005600017FD22F035FC0023C1E7032017F01AFE27
:100570000149487108E0C046006100203C20094064
:10058000022017F00FFE60712248407926F01CFC13
:100590001F4A26F0A5FA032000BF00BF002319461A
:1005A0000D9CF803109307D5A06B10300E4623F076
:1005B000AFFE3146124807402646313600295CD04E
:1005C0000F95144A48200C901056002828D47578AE
:1005D000052D00D9002507210840801E052829D8AF
:1005E0007844007940008744191723211D27C0460D
:1005F00096200940062009400A8000000A80FFFF7B
:10060000FFFFFEFFA0110840301008409465002055
:10061000FF00FF0000610020E8070BD026250DE059
:1006200005460BE001200540263507E0E80701D02C
:10063000272503E0252501E06D0825352020105CE5
:10064000918920F0B5FE0A90E8B20B901AF022F8DA
:10065000002803D027F034F9002827D0089A26F084
:1006600093FEF04908404121490201431180000CEA
:10067000907002200F9D05430D9C1098002800D11A
:10068000BCE1FD482127C15D3F20084010901AF0D1
:1006900001F8002803D027F013F900281CD0089A8D
:1006A00026F072FEF34925F0B0FDA7E1099880031A
:1006B000079001212046069106F0BCFB21F0A0FE28
:1006C000079807422DD1B078002800D19CE0EB4874
:1006D00025F0D2FB04464BE02046099906F0AAFB20
:1006E00021F08EFE0D98806B81680020002953D088
:1006F0000B910C900F954C26DF4CA55D2020205CC3
:10070000A18920F055FE0146002D57D002984118CE
:10071000E0310A91DA48008D23F074F90020A055E9
:100720004DE00D9803991CF0ADF804460F2838D819
:100730004B20D14A105C00280AD03520105C0028DC
:1007400006D00C9826F0CCFC002801D17D20C443B3
:100750000D98C06BCA4FF9681CF0E0FDC64A907155
:100760004A2000211154387F800701D025F04AFF2C
:10077000089FE0B21028069B14D2C249002088834B
:100780006CB20B99402901D240202843BA4ABE4F8F
:10079000002C57D4054657E00A900D9CB64A0646F1
:1007A00003E1089F3888B978090440182102B14A4A
:1007B000104001433980000CB8705AE70A910F9D30
:1007C0000B98817B0A18D17B0F263140072913D162
:1007D000547C002529460EF009F8A009022800D112
:1007E000C6E02B46012800D1ACE000280F9DA24EA8
:1007F00000D0D3E04920D4E0089A26F0C5FD9D49F9
:1008000025F003FD9C4ACFE04B209B49085C002863
:10081000089F67D03520085C002863D00A9826F02E
:10082000F2FD601A80009721C9004018703025F051
:1008300023FB04460C98904A26F052FC002898D1DD
:100840008224AFE77F200540E8B27886107900283F
:1008500004D028068D4941408D4801604920105C34
:1008600000283AD0154623F095F9AA79B88D894920
:10087000002A0F9D3AD0803108463AE03520205CAE
:10088000002800D180E62120205C264621367178A0
:1008900009020818B178090440187F4901408029ED
:1008A00000D071E67D480721016022F091FA4C20CA
:1008B000215C0020002900D10AE2B1780904490D29
:1008C0000D9C6288042313400B436D490B85012165
:1008D000C9030D430146109B63E6D803401C0F9DDE
:1008E0001F4607E026F0BFFA044642E78007800E65
:1008F0004840069F26F06CF9FC48C78326F0B0F804
:10090000022000BF00BFFC4805210160002C14D468
:100910000B9825388740F24A0C99505CB8435054E4
:10092000B17800290D9C00D1A7E6002800D0A4E6EC
:10093000019800780C9950549FE60020E8490C9AE1
:10094000885499E63520E64E305C00280F9D00D192
:100950004BE149203354089A26F016FDE849084037
:10096000B90201431180000C90700220054319E088
:100970003520DB4B185C002800D14BE149200021D9
:100980001954089A26F000FDDD490840B90226F006
:10099000A1FB0F9D05430D9C1A4605E049203354E9
:1009A000352033540D9C32460C9EA06B08303832F3
:1009B000012133460DF008FD074633463246002F2D
:1009C0000CD0781E414241410E4207D10992411E8E
:1009D0008841012219465140014325D12846089BF0
:1009E00019889A7812048918C54A11408322120284
:1009F0000A431A80090C997002250543A80701D4FF
:100A00002E460BE0E06BBD49C9681FF0C1FA2E46C7
:100A100022F0DEF925F060FD24F05AFE304611B0D8
:100A2000F0BDC046FF00FF0007930B920C960F9598
:100A30009720C5000A984019703026F0E4FC601A2F
:100A400084004D20A64E305C002829D04836F0792D
:100A5000A3498989069120F0ABFC0A900C200699E5
:100A600020F0A6FC61190A9A89180C1800207071F0
:100A70009B4E16E0FF00FF0000610020881300007D
:100A8000946500209620094006200940D6BE898E34
:100A9000401408403181000080FF1F00A011084071
:100AA0000834204625F0E8F90A903520305C00280B
:100AB00012D02020305CB18920F07AFC4821715C92
:100AC0003246483212790FF0AFFA00280D9904D15E
:100AD0007D20C0430A9000E00D99099A8348028066
:100AE0007D4804254581896B25240A5D0E9B1A40AB
:100AF0007A4BC282085D400828401885085DC00610
:100B0000C00F58855020305C002802D0588D2843F3
:100B100058850C980028079B0CD0486825310A7826
:100B2000D1070CD1724953072A40DB1719401840EE
:100B3000520007E000206D4988810B9A07E06D495B
:100B4000491C0022694B26F0AFFE0B9A079B002B35
:100B50000DD00D98816B08680A5D91070ED4644929
:100B600015405207D217114010406A0009E00020DA
:100B70005E4908820D9C0F9D10990CE05D49491C4F
:100B800000220F9D594B19821946A23120F0C9FE4F
:100B90000D9C10990B9A0A9BD8B2102808D3089A7A
:100BA00026F0F2FB1902564B184026F093FA24E780
:100BB00000254E48858340314848418630790028D9
:100BC00004D0080648494140464801604920305C4D
:100BD000002857D022F0DEFFB2794048808D494985
:100BE000002A52D08031084652E049200121315478
:100BF0000B980068002868D00D9CA06B08300F4649
:100C00003246383202211E460DF0DEFB3A460746D8
:100C1000099BD4E64920012119540B980468002C43
:100C20000F9D52D0A07B0019C17B314007290CD108
:100C3000407C3F2809D80B99887B0818007C0B3032
:100C4000FC21014020460DF0D1FD0D98806B08304D
:100C5000234A3832022726460024394623460DF01F
:100C6000B3FB3A4623460746B07B3018007C1C494C
:100C7000483188710B9CA07B20180D9C007CC871AA
:100C8000099E9CE6D003401C02E08007800E48408D
:100C900025F09EFF25F0E4FE14480B99C183164809
:100CA00005210160A06B083023F0FCFA002801D177
:100CB0008421717102210172B16B884200D1B56348
:100CC0007F1EEFD110200F9D97E628460D9C86E6EB
:100CD000049B014664E4C0463C20094006200940CC
:100CE0000061002040140840D6BE898E962009403D
:100CF0000A8000000A80FFFF301008409465002041
:100D0000FF00FF0031810000F0B597B00F460646A6
:100D10004C1C0D782846214624F058FD002806D0AA
:100D200028463146224626F022FF17B0F0BD129425
:100D30000F972320C000301810902A2D34461395A9
:100D400000D95AE2DD20400020180D906720800075
:100D500020180C905720800020181190FF22104678
:100D6000063020180E902346F03320468C300B902E
:100D700020468A300A90264677362546763527461D
:100D8000673713984000C046784480884000874405
:100D90004B0185011901EB0134023402F8011C01F9
:100DA0009D01B2012502FB01CB00340234023F0158
:100DB00034020501C400E70139003900FE013402A4
:100DC000A00034023402340230003402340234020F
:100DD0003402340234022A002A002A003402340287
:100DE00034023402300020461299139A26F06DFF27
:100DF0009BE7139A82480079800700D5C9E01098D4
:100E0000427205E309941398142803D178790028D5
:100E100000D16AE10F9B5878997809020918D878AF
:100E20001A791202161858799A7912021218D8797A
:100E30001B7A1B021818139B152B00D0E1E189B215
:100E40001B2312931B290F4600D8129F2923DD0074
:100E50001B292B4600D33346FB24FB2F00D3274608
:100E6000684EFB29314600D8194689B2CB08292B98
:100E7000129B00D33B46A9420E4600D82E46614F36
:100E8000B942214600D819465E4B9E4200D35D4EC2
:100E900097B21B2F3A4600D8129A1B2F2B4600D32D
:100EA0000346FB2A00D32246FB2F564C204600D88F
:100EB000184683B2D80829280D9F00D31292AB425E
:100EC000184600D82846A34200D811E2FB2220464B
:100ED0000FE20C9B32460D9D0F984178807881423D
:100EE000264609D107200840129C207000D124E337
:100EF000491E014200D16EE318211E2430462246CD
:100F00001DF0D4FFB17900222046134617F03CFFB4
:100F1000A87840210143A97007E70E980078C00621
:100F200000D58BE1122071E23D4609940E9F387C7A
:100F3000012817D00F98811C4078109A10708D20CE
:100F400040003E46099F38180224224624F075FDD1
:100F500001464720800038183746224624F06DFDB0
:100F6000012030746879002800D1BEE0B87C0028E8
:100F700000D0DAE63C46787C002800D0D5E60C218B
:100F8000099806F0F7F9002800D148E20120A07482
:100F9000CBE6204612991DF09CFAC6E6119F0F98E9
:100FA00041788278204626F0A7FB2878012800D0D7
:100FB00046E1307801460F39022900D338E201209A
:100FC0007873B2E61298007890E0119F1E460C9D4F
:100FD0000E9B0D9A129800780E38082800D9A4E6C6
:100FE0004000C04678448088400087440E00CA0212
:100FF0000D000D00C6020D00D2020D00D802C04641
:101000009E670020904200008FE6032030758CE63A
:1010100012950E9D1396A07926F067FD002800D149
:1010200012E10F213A225FE113960F98811C40785C
:101030000B9D2870A81CFD4E02270F903A46B04722
:101040000146281D12903A46B0470146A81D0E9051
:101050003A46B0470146284608300D903A46B04718
:1010600001462878002827462C460A9D14D0129A5B
:101070001288531E9BB2082B00D3082383420BD344
:101080000F9B1B88934207D8062A05D32E46254678
:10109000EC4CA24200D240E3302027E0119D2046D4
:1010A00062300522129924F0C8FC01460B9F384695
:1010B0000C30022224F0C1FCB8892189401A80B288
:1010C000E149884200D8C5E028200FE02046129967
:1010D0001DF080FE7879002807D0092120461DF0F8
:1010E00081F8012800D020E699E13D20109908728E
:1010F0000120C87119E61546119A0994187D012836
:1011000000D012E61E46099F3846129914461DF07B
:1011100061FE02203075B9790E357A1900201AF077
:10112000A1FE22460E984078000702D4C748D08618
:101130005086C7484078800600D4F6E5908E1B287C
:101140000BD1108E1B2808D12920C000D18E8142DE
:1011500003D1518E814200D1E7E51421099849E07D
:10116000002011990872E0E50E980078C00778D148
:101170001A205873187B0D2101283AD1F4222046F9
:10118000ADE001209873D0E50120D873CDE50C9D2A
:101190000D9A0E9840780921084200D135E10F9B45
:1011A0005878997801400720084058701746D17840
:1011B0000140517000D1B3E1481E084200D1F4E172
:1011C000032900D905E22B460220020600D13DE2A8
:1011D000084200D03DE2C0B24008F6E70B98807BA1
:1011E00001287FD100203870787118800120187391
:1011F0000B21204619F0E4FA97E5109813994172F3
:1012000006E18BB21B2B0D9F14D3FB2B12D8B3B26C
:10121000DC08292C0ED38F4CA3420BD893B21B2B86
:1012200008D3FB2B06D82923DD0083B2AB4201D3C0
:10123000A3425ED914211E22099856E01321E8E04A
:10124000002024F037FA70E52878800700D503E104
:101250000F20DBE00121B9720020E08329702046D5
:10126000B3E1002038707871254620469C301390F9
:101270000120089318742046B430714C0826129946
:101280003246A04701462846BC300222A04701460C
:101290002C46A4342F46AC3738463246684B984724
:1012A00012903846314623F00DFC2E46A036042716
:1012B000304612993A46624B98473046394623F0F9
:1012C00001FC204626F030F8139826F028F80898FC
:1012D000007B0421012800D0DBE1F422284615F030
:1012E0006FFF22E514211E2220461DF0DFFD1CE5C4
:1012F000129A119B5987DE871A87988780B25A8E77
:10130000824200D302463878A9231B019A42144630
:1013100000D81C46042800D014460C9FFD88FC8091
:1013200004280DD109981BF0D3FB0246B888131A84
:10133000581E8341BA80119E718F0D9800780CE081
:10134000119AD28EB3B29A4200D31A460C9FBB8830
:10135000D31A5E1EB341BA80119E651B6C1EA54157
:10136000B78E89B28F4200D30F461D430C9C218853
:101370007E1A711E8E4127800D99097901231293DF
:101380001EF0A2F9874201D2208805E00D99087865
:101390000979A28826F021FC11993543E0820B8E51
:1013A000088F834200D303466088191A4A1E914170
:1013B0000C9A0D4353808342099E03D9107D8021EE
:1013C00001431175002D11D011980386D5884586EB
:1013D0001188818614469288C2861398142800D0FA
:1013E000A0E0B07900951DF025FA03E013981428C9
:1013F00000D09CE01521304605F0BCFF002800D04D
:1014000093E4E948007812990CE01620109948728C
:101410000721204605F0AEFF002800D085E4E24811
:1014200000780121890311F05FFB7EE43B5A020042
:10143000162800D079E40D9DA87801216AE5C04600
:101440003B5A0200810C0000FE7F000048080000AB
:101450009E670020904200002F4609940F9B587809
:1014600006909E78D8781979090208180D90587955
:101470009979090208180C90D879197A0902081884
:101480000890587A0790987A0590DC7A187B597BF7
:101490000902091814A80180997BDA7B12025118FD
:1014A0004180197C5A7C120251188180997CDA7C27
:1014B00012025118C180197D5A7D12025118018102
:1014C000997DDA7D120251184181052025F00EFF29
:1014D000002800D19CE030020699461820020599A8
:1014E0004218099C208914A9069292B2089B9FB2C7
:1014F0000097019007980290039204910596B1B26B
:101500000D9882B20C9886B220460F92334613F0A3
:1015100086FF002800D1C1E00D991E262F4679E0F4
:10152000387897E0217D08200843224600E0107DAE
:10153000202101431175FFF7F8FB107816282F467C
:101540001A4607D1B17914463A780020134617F0AD
:101550001BFC2246022090763878107601247C719C
:101560001188139139791546928823461EF0ACF8FC
:10157000139981421BD228881EE000203872FFF7A1
:10158000D4FB012038731878FD2101401970FFF752
:10159000CCFB287D122101432975FFF7C6FB90780B
:1015A000122101439170FFF7C0FB084653E0287EEB
:1015B0003979AA8826F011FB119AE882B87840217F
:1015C0000143B97014701821304626F098FBFFF7DC
:1015D000ACFB04203EE068700F9AD17812791202B9
:1015E000511899833289891A89B2704A914200D977
:1015F0006AE51C460121997604281A462F46ACD18B
:10160000304614461BF064FA2246A0807878A4E79E
:101610000D991A2638784007099D05D40F20109996
:10162000487207212846F5E60C460F212846324627
:101630001DF03CFCA979089880B20090A2B20C98E9
:1016400083B230461DF0D2F8FFF76FFB08461D4607
:1016500001E01D4678702E46C1B2042904D120460F
:101660001BF036FAB08078782546C0B223F070FDC2
:10167000307634883979B28826F0AFFA844201D2C4
:10168000308804E0307E3979B28826F0A6FAF082FC
:101690001721284614F096F9FFF747FB10960E978E
:1016A000119D059828820D9B6B820C9EAE82089836
:1016B000E8820799297606996983149F1599169AE5
:1016C000EF6129626A620B998B80CE8008810220CB
:1016D000087000204880A08EC11D0A9A1180618E7A
:1016E00049080F9A8A4226460AD11099814207D1A9
:1016F000F08E00090E99814202D110213046C9E7CF
:10170000129800780128139932D108780F282FD128
:10171000F121304619F054F834E02C4635464000AB
:101720002070580060805000A08020890001208136
:101730000222304624F081F930883989401A80B27B
:101740001A49884200D9BFE40D9800880E9909888B
:10175000491C129A12884A435100884221D901201B
:10176000139948740021F983119A107038462CE7B8
:10177000887A002802D008781A280DD1F121304645
:1017800014F020F9B079298A6A8AAB8AEC8A00942D
:1017900018F0B2FBFFF7C9FA0F20C873F3213046E7
:1017A00028E53B20A2E4C046DA690020FE7F000065
:1017B000F0B591B0002902D4002400F0FFFC0C46E3
:1017C000294F387816F056FE002801D100F0F3FCBE
:1017D00005460078A2280D955FD0B02801D000F012
:1017E000E7FC0EA800210180204E7068002808D177
:1017F00025F018FC26F0D0F87060002801D100F028
:10180000D2FC06943E461436002418223046214667
:101810000B9225F027F8287901210C91811E1629B9
:1018200001D900F0B9FC401C059007964900C0465C
:101830007944898849008F441B00AF04AF04AF048A
:10184000D400AF047100AF040C02AF044302AF0434
:101850007700AF044C01AF04D901AF04AF04AF046B
:10186000AE02AF047902C046F4730020F872002083
:1018700025F0D8FBB8826888314623F063F8002849
:1018800000D1F3E22889B98A884200D30846B88299
:1018900001200C90032000F06DFC687965282ED1A2
:1018A0000C370C97384626F003FA002819D0064664
:1018B0000089B17A37460C373A460FF037FC0546B7
:1018C000142801D0002D0CD10C98314624F094FB43
:1018D000142D03D1B17A384625F082F8304626F02F
:1018E00063F80C9826F054F800280D9D07D0F148B5
:1018F0000078F1490870F14900220A7001E0ED48D2
:101900000078FF2801D100F053FC294622F0B0FEF8
:10191000002801D000F04CFC00F04DFC00210EAA84
:1019200028460AF0E5FA1EE3688823F01BF80490C5
:10193000401E0B90B88A00242246A9898A4200D30F
:10194000B1E280B20B99814200DCACE2089225F052
:1019500042FA80B210A91DF0B9FC012700280C97AB
:1019600000D1A9E201460A946888099010AA128859
:10197000EB48436828790B9CA7B20026E94CA51CCC
:101980000095019602970390099806F02FFB002816
:1019900000D08DE2A06900280D9D079E09D16888BE
:1019A0000F210023E04A14F005FDA061002800D1BA
:1019B000E5E2A18A62885318049FBB4203D30B9AC5
:1019C000521A628092B24018D549496824F020FB2F
:1019D0006088A18A0818A082089A521C0A9CA41C3C
:1019E000ABE7688822F0BEFF25F013FA10AC009434
:1019F00017F05AF90546781F0A90F81FC94F0024BE
:101A000080B20990B81C0890A1B2002D00D11CE250
:101A10000A98884200DC18E20B910C940D9F78889C
:101A200010A90A88BE494B6839790024089E00969F
:101A30000194099E02960391294606F0D7FA0028E0
:101A40001CD13A8AB7484088824217D17869B44994
:101A5000496823F0D7F90028B24F10D0B8690028A0
:101A60000AD10D98408807210023AF4A14F0A2FC48
:101A7000B861002800D12BE36C8900E0A94F0D98D4
:101A8000418910A802880FAB284614F021FA0546B8
:101A9000002C13D0B8690C9A511C0B9BC454200A1B
:101AA0001446BA69A31C89B25054002D99B207D0CC
:101AB0000F98BA6950540FA8407804E00C9CA3E733
:101AC000BA69FF205054E11CBA69241D89B25054F0
:101AD0009AE7688822F046FF25F09BF910AC009445
:101AE00017F0E2F80146B81F0A9000258D48801CC7
:101AF000099008950C950D46002D00D1EFE10D9C45
:101B0000608810A90A88294616F0B4FF002800D082
:101B1000E7E10C9F60880B9010A90A8880494B6808
:101B200020790A9CA4B200262946099D00953546D5
:101B30000196029403900B980E4606F057FA00287F
:101B400000D0D0E1BCB2002C0FD07648C18A4088CA
:101B5000021D8A4200D0F3E100190A9988422F46FB
:101B600000DDEEE16F4FB86910E00D984088112755
:101B7000002339466C4A14F01DFC6A4A9061002823
:101B800000D178E25188091DD1821746B17A0C9BA9
:101B90005A1C0155F07AB9699C1C92B288540D9870
:101BA000418910A802880FAB304614F091F9054620
:101BB0000028A1B205D00F98BA6950540FA84078F8
:101BC00002E0BA69FF2050540C9BD91CBA6989B253
:101BD00050541C1DB869A1B24018514949687A880F
:101BE00024F016FA788800190C9085E70124287CE7
:101BF0000027022804D1687C012801D10327002492
:101C0000288910A91DF062FB002C00D128E10646AE
:101C1000002800D124E1307A80060CD510A8008875
:101C200024F0FCFD002800D122E20346688812223D
:101C3000314698470746002F079E00D038E2688853
:101C40002989EA686B896C7C002C00D11AE2522544
:101C500019E2288910A91DF039FB002800D10EE1F6
:101C6000064668880B21304A0FAB14F0A3FBB8611D
:101C7000002800D12CE1034668880C9010A90A883E
:101C80000FA908882C7900270799009101970290E5
:101C900003940C98314606F0A9F9002800D139E1E7
:101CA00006462048806912F099FC162E00D138E1D2
:101CB0003746E5E06679002065790020307A00201B
:101CC000288910A91DF002FB002800D1DCE006469F
:101CD00068880D21144A0FAB14F06CFBB861002822
:101CE00000D1F6E10346688810A90A8869890FAC1B
:101CF00024882D79079F009701AF32C7314606F03F
:101D000075F9002800D10FE107460648806912F0F6
:101D100065FC162F0D9D079E00D10DE12BE1C046FD
:101D2000F8720020F4730020FFFF0000688808901C
:101D300021F008FF0A90002800D1A8E0287A0128A5
:101D400000D0E9E1FC48857809942046C6B2AE424D
:101D500000D321E10A9A52680C237343D75A002F0B
:101D600000D11AE1002C0ED0BC4200D046E1D218BE
:101D700053888EB29E4200D040E19288099BD318CE
:101D80000993511805E0D1188A8849880992891861
:101D90003C46401CDAE768880124214622F0C6FB55
:101DA000002876D00C942E460836308810A91DF0F5
:101DB0008DFA002800D190E00746007A800600D511
:101DC00097E06F88384621F0BDFE002806D1DB4839
:101DD00021F0B8FE002800D1B0E00780D6498A780B
:101DE0000C2151430C3100231A460C32914200D190
:101DF000A4E04468E35A002B1346F6D1A0180C382F
:101E00000C2731463A4624F003F9079C2046314618
:101E10003A4624F0FDF86888AA89172100273B4636
:101E200014F0C8FAF549C861002800D188E1296991
:101E3000AA8924F0EDF86888214620F0E5FD002805
:101E4000264600D0CDE10746CCE1200425D0880805
:101E5000B8820D9D6888079E314620F039F980E0F0
:101E6000002C079E00D121E1012721E16888298902
:101E7000BA8A914200D311461BF0FEFD8CE1012786
:101E800028890EA908804CE00127079E73E0089876
:101E900047E1142068700E2720E10D9D28890EA9C6
:101EA00008800A2719E16888314620F0D9FD3AE117
:101EB00007460D9D079E0A9C24F08DFF0EA9088001
:101EC000CE488069002800D140E112F087FB3DE157
:101ED00028890EA90880112723E00C9F32E1089F72
:101EE0002FE0074601E00746354668890EA90880BD
:101EF00027E010A8008824F091FC002800D1BFE062
:101F000003466888122239469847002800D158E7CE
:101F1000074617E16888079920F0B8FD002800D02F
:101F2000162701200C9010E10D9D6888079E314610
:101F300020F080FD002818D10027CFE0092701E11B
:101F40002F460C980004079E11D0AC4DE98A0C98DE
:101F500080B21EF07DF8A8820D9D6888314620F081
:101F6000CFF8002801D10746B8E01627B6E0002FC9
:101F700000D10A270D9D28890EA90880AEE0A86827
:101F80000A9A8118805C4978090208180EA908800D
:101F900001200C901127DDE02846C0B201280998E5
:101FA00060D900042AD0099880B21AF039FE0028BE
:101FB00024D00B90B54200D335460C276F43002444
:101FC00025460A984668A74200D18AE03619B168CA
:101FD00000290AD0A8B20B9A1018B28824F018F879
:101FE000B0884519B06812F0F9FA002C04D000212D
:101FF0000C22304624F036FC0C34E2E700220123A8
:102000001746591E7E48807881420D9D079E00D359
:10201000DDE00A994C68A15A002900D1D7E083423B
:102020000B9806D0A0188089002801D0162000E067
:1020300018206F880C92A618B2680993B388758827
:1020400000950190384613F0FDFE099B07460028D5
:1020500004D0162F00D0B4E00020B0600C9A0C32EF
:102060005B1CCEE70A984668B268B3880D9D3FE0D6
:102070000E27079E1CE070890EA908800D9D2CE09C
:102080000E275FE02D7900240094019513F0DAFE0D
:10209000162819D0074600280D9D07D1687C002816
:1020A00000D1A1E001200C90274606E0002F09D0C6
:1020B00028890EA9088001200C90687C002845D052
:1020C000002743E00027F6E70C9427460D9DF4E730
:1020D0000D9D28890EA908801127079E01200C90CC
:1020E00034E00B9AB260099BB3800D9D688808901C
:1020F000318870881824009001949BB2089813F0DE
:10210000A1FE002808D00746162811D10020B06093
:102110000A981BF05DFF3FE00A981BF059FF079EED
:10212000688824F01DFC01210C91002826D133E0A1
:1021300030880EA9088049E0F8720020FFFF0000F7
:102140000C97112730880EA90880079E002F13D006
:10215000162F11D0687814280ED0287927490875D1
:102160000E98C8820F766888314623F01DFD00283E
:1021700002D00120059001E0162F0DD16888059945
:10218000CDB22946324613F0FDFA002803D030467E
:10219000294624F025FC0D9D28461DF0B9FD0C981C
:1021A0000028069C04D028460830297924F018FC21
:1021B000284622F047FE0120C0078443204611B084
:1021C000F0BD0C98205A0EA908800D9D079E0A9814
:1021D0001BF0FEFE01200C90162FDDD0002F9FD0AB
:1021E000B4E7162700207AE7688824F0C1FB0121B4
:1021F0000C91002800D157E71627A7E7F4730020B9
:10220000F8720020F0B591B00446807800251028BF
:1022100000D99CE34000C046784480884000874451
:102220001000960396039603960356003A00960311
:10223000960320015000E500FC0096036E01370173
:1022400070036078002800D081E324F0B5FE079089
:1022500024F0A8FF089021F011FC0BAC207002269E
:10226000102730463946079AB04B98470320394625
:10227000089AAE4FB847042001212246B84720787B
:102280003043032800D062E3012016F0D5FC02465B
:1022900006200146F9E0A0881DF03AFF25F038F944
:1022A000002800D053E3A24CA07B012800D05FE1BE
:1022B00022F0BEF80021A173606A627D24F0D2FA98
:1022C0005DE16078002800D140E10025FDE2607802
:1022D000FC2802D0002800D039E30126E178201D37
:1022E00062890892277B00250095314009AA2B4678
:1022F00024F07FFD00286DD109A8007822F07BFA38
:1023000004463E46083E701E86418948C07D8000D6
:1023100025F042FB0790002800D177E109A806903C
:1023200001788348C078801E42424241009208985A
:10233000059422463B4618F06FFB0BAC0027142295
:102340002046394624F08EFA069800780621069138
:10235000484324301021224623F08CFA002818D15B
:102360000BA8FF21102222F002FF002811D109A89A
:1023700001780698484325300BAC224610320421E0
:1023800023F078FA012105980140089822461AF0B6
:10239000D5FE09A800785321890040186449C97DF9
:1023A0008900079A23F066FA002800D16DE16048A1
:1023B000007E002807D10598800704D55D48017884
:1023C00008981CF05FF909A8007818F097FD0798A5
:1023D00025F0EAFA002E00D1B9E25548C07802286B
:1023E00000D0B4E2089825F043F9B0E2012524F0CA
:1023F000EFFA002800D1AAE24D48C06A002800D1B7
:10240000A1E00668002E00D19DE0E01C6189227BDE
:10241000637B24690094B04799E2A588277B28460E
:102420001DF0CAF8002800D190E2044624F0D0FA4A
:10243000002800D08AE2A01D6179002300930126C4
:1024400031400BAA24F0D5FC002800D1E2E0384846
:10245000C078002800D074E20521284622F0E1FD72
:1024600074E2201DE17800230093012529400BAA86
:1024700024F0BFFC002800D069E20BA801780620F8
:10248000484325300C340421224623F0F1FD5EE25E
:10249000274FF86A002806D04368002B03D0A08895
:1024A00000210A469847F978A088002953D01DF0EA
:1024B00083F8002800D14AE20646A07AC00715D06A
:1024C000B01D727900230093012111401A46089330
:1024D00024F08FFC002809D07079022806D3A08947
:1024E00053218900B431084200D1F0E0F87B022882
:1024F00036D1A07A000733D4A08803212DE060787C
:10250000062800D0B2E0A0881DF056F8002800D1BF
:10251000ACE00749897C491E032900D9A6E0C046E2
:102520007944097949008F440799949E71600200AB
:10253000D87100209F680020A388417900221846A6
:1025400011F010FE92E06089012106E0A079C00739
:102550001BD10025BEE10125052122F062FDF6E137
:102560000125A08808347179224611F0FBFDEEE1C7
:10257000E07C002839D011F009F90020E0745020E7
:1025800021F058FB1AF042FFE1E109A800250826D6
:102590002946324624F066F9A0881DF00DF800287F
:1025A0004CD007466069002815D006970790113077
:1025B00000210622089022F0DAFD002800D1A4E0D4
:1025C000002706220798394622F0D1FD002800D1C5
:1025D00083E06761069F78790121014009A8817134
:1025E000B91D062223F014FDB4E0607D002686426A
:1025F000C5D2616A895D012906D1F0B20AF01CFFDB
:10260000606A00218155607D761CF0E7042023F08C
:1026100051F89CE10BA8007822F0EDF8FF2800D1DA
:102620008FE10246780745D4002A43D10BA80178F0
:10263000A37C0096284618F0EFF987E122F012FB00
:10264000002800D196E0CE480078042110F04CFA22
:1026500090E0CD4800210A4602F052FEA0880521F4
:102660001BF072F902E0A0881EF03EFA0125C54871
:10267000C06A002800D16AE14368002B00D166E1FE
:10268000A08862780221984761E1079C204622F0E9
:10269000F9FABC48C07D874200D388E6218800292A
:1026A00005D0A278089822F0CBFCB648C07D7F1CEC
:1026B000241DF0E70C2007400C2F00D13CE1082F2F
:1026C00000D135E1042FB1D1D007AFD139E1A088D5
:1026D000032122F0A6FC089D39E105960798007CAD
:1026E0000121014007913E46761C0898067000972C
:1026F00007993A463B4624F07CFB002801D130067E
:10270000F2D13006059E00D163E76269002A069F78
:1027100020D00596107C0121014009A88171089202
:10272000164611360622314623F072FC78790128CC
:1027300005D138460C30B91D062223F069FCB81DBE
:102740000622314623F064FC0898007C02210143F4
:102750007971059EA1793879FD220240480802234B
:102760000340D018090702D4DF21084001E02021EE
:1027700008433871A0794107C90F09AAD3790640E7
:102780001E430E43D6716169002921D00BAE10277C
:1027900030463A4623F03CFC3046394622F092F966
:1027A0007A4800780D277A4E854211D23168C919CE
:1027B0000A460D3A1278FF2A07D00BA8102222F001
:1027C00021FB012805D0714800786D1C1E37EBE70E
:1027D000FF2509A881790026009610AA334624F027
:1027E00008FBFF2D1DD034281BD16648007D012831
:1027F00062D0002815D1664801681E226A438818F5
:10280000401C895C0025009510AA2B4624F0F1FAA3
:10281000002806D110A800780AF00EFE002800D18A
:1028200098E009A88179009610AA334624F0E1FACD
:10283000002804D01DF02CFC10A908701DE061696F
:1028400010A80078002918D0062343432333102111
:102850000BAA184623F00EF800280CD10BA8FF2174
:10286000102222F084FC002805D109A98A790120D0
:10287000104022F0B9FD10A800784249497D8842F5
:1028800018D2A26825460C352ACD0F690095019112
:102890000297039609A909F0D9FD0546A08814F00E
:1028A00083FF002D38D010A800780AF0C5FD1AF07B
:1028B000ADFD06E0152504E0A08805211BF044F8D5
:1028C0000125A0881DF024FC60780B2802D1A08887
:1028D0001EF00AF92B4EF06A002812D04368002B34
:1028E0000FD0A0886278012198476078002808D12D
:1028F000A079C00705D0F06A4368A08803212A4662
:102900009847012522F0AEF9002820D01C48007815
:10291000042110F0E9F81AE01A48817DA088002906
:1029200002D01DF0F5FB01E01CF034F93546CBE791
:102930000920024205D079E6D00702D0100700D561
:1029400074E661790022284611F00CFC0125284626
:1029500011B0F0BD1AF05AFD1DF09AFB10A90870D5
:10296000A1680891E1682369626900292F4600D0B7
:102970000F69009201910297039509A9089A8AE7C5
:102980009F680020D871002009040000056A00201B
:10299000B4690020F0B595B00F46097806260029E5
:1029A00002D17C78012C02D1304615B0F0BD0692E0
:1029B000BD781D2D01D01B2D1CD132490978FF296E
:1029C000F2D000261D2D079070D121F07FF800284D
:1029D0006CD00546827A002A67D050B200260028C3
:1029E000E2D41D21079822F06DF9A87A80210143D5
:1029F000A972D9E7079021F069F80024002800D1D6
:102A0000BCE2012D06D10546B868B98809AA22F0B2
:102A1000F9FA0BE0817804268D42C5D14368002B7A
:102A2000C2D00546B868B98809AA98470646002862
:102A3000BAD12E46A878401FC1B2C2014908511828
:102A4000C9B2092900D9A3E001252A468A405723A3
:102A50001A4200D196E0BF78E8410928059500D9CF
:102A60005EE2059D4000C04678448088400087446F
:102A70000B001A0198005702390157025101570201
:102A80005702E1001C790020052F00D026E124F038
:102A900069FC09A98A780A980988012A00D0EAE124
:102AA00089004018011FC01EEBE12E460596BA684A
:102AB000BB8809A8009000252846214620F0C2FDC9
:102AC00006460028079A00D06EE70FA8FF21017084
:102AD00008A80570F54E706800280AD00368002B1E
:102AE00007D008A914460FAA204698472246002876
:102AF0001CD03078BB7809A90091002411462246E9
:102B000019F014FF0646002800D04DE70A98002867
:102B100001D0069804700599002900D12EE2B878FA
:102B20001D2800D02AE21D20887227E20FA8017814
:102B300008A80278204617F0E3FA22460028D8D0E9
:102B40000A98002802D001200699087005990029EA
:102B500008D0B8781D2805D11D20887210461FF0B6
:102B6000E5FE2246706800280AD04468002C07D091
:102B70001046164623F01CFA012801D13046A04722
:102B80002E4611E7092903D13169002900D062E7F7
:102B90003546707AC6490978884200D0DEE00026C2
:102BA000F1E0092F00D000E109A801884A1E408801
:102BB00042432423F55C6D1CF5540A9B92B29D1888
:102BC0009A5C6B781B029A180292327B012A00D021
:102BD0004FE10197414309AA0027178089B2039169
:102BE0000496354613353946CEB203998E4200D34A
:102BF0003DE10499897C0A9A9219521D401F83B2C3
:102C000028461AF0BBFD002810D0B8B2864206D084
:102C10000A990818891909AA528823F0F9F909A90B
:102C20004888C719099A521C0A8001E009A84088FF
:102C30003118D9E7307B012800D0C2E0172F00D02F
:102C4000E7E03069717D0C256943425A09AB1B8866
:102C50009A4200D0DDE04018418809AA528891428A
:102C600000D0D6E0828809A989888A4200D0D0E0C5
:102C700080680B9922F0C6F8002800D1C9E00197BE
:102C8000707D411CC8B271753746317D884200D3D2
:102C90007EE1396945434E193888495B7288B388AB
:102CA000B5680095AAE0072F18D124F05BFB0A98BD
:102CB00009A9098889004018011F0978C01E0078F9
:102CC00000024018F189884200D31AE131460C31E4
:102CD000401CB081308819F0DAFBE0E009A80079E7
:102CE0000A28A4E00D2F00D09EE024F03BFB09A8A9
:102CF0000588308821F036FE401EA84200DD00E144
:102D000031460C310998F2891018F081308822F090
:102D100093FFC4E0112F00D092E00998401E09A94A
:102D2000498841432420325C521C32540A9889B2AB
:102D300040188178C07800024018002599498842DF
:102D400000D1F3E0411CB181F189814200D8EDE06E
:102D500031460C31308821F007F9A0E0BB7809A991
:102D6000009100240799224619F0E0FD064600284C
:102D700009D1B97809A81CF0DBFB0028264602D04F
:102D80000026069806702946A8780328079808D1D7
:102D9000898909AA1288914200D311461AF06CFE63
:102DA0002946084614F0EFFEFEE509A8007906283A
:102DB00001D00A287ED12420305C00283ED1012099
:102DC0007BE0172F25D1308821F0CCFD401FB18B3F
:102DD0000A18B283718A511A8BB2B18A8B4200D31E
:102DE00091E00197CD1A854200DB05463088318A93
:102DF0003746B669F3180093ABB292B21AF009F8ED
:102E0000002800D1BCE00FA8002101703E46019FC0
:102E100002E00FA80021017030880FA922F0D0FE37
:102E2000012F17D101201EE009A800790728059D70
:102E300076D12420305C0028059D71D0002556E015
:102E400009A800790A28059D6AD12420305C4542F2
:102E500045414CE0307A514918F03AFD1920B070E4
:102E60004F48706016200125012859D084E0049E47
:102E7000019F029925E012224A4380180146123927
:102E800011380978007800024018F189884238D258
:102E900031460C31401CB081308822F09DFE307AE2
:102EA0003E4918F015FD162540E0C0461C7900206B
:102EB000EB6900202420305C401C2421705409A8B8
:102EC0004188481E00250A46374988420FD8308A73
:102ED00082420CD2521CF281317B012916D10FA9FA
:102EE0000A804880314888802820887110E0012FAE
:102EF00016D1002D14D109A800790A2801D1012585
:102F00002DE0002512E00FA8012184E731460E31A3
:102F1000308821F03BF8307A204918F0D9FC16258A
:102F200009A8092F02D10088002813D0707A09A9B6
:102F30000091002207993B4619F0F8FC002802D0C6
:102F40000120059006E009A839461CF0F1FA41423B
:102F500041410591162D0ED0002D059D07D1707AA7
:102F6000B378002100911A22079919F0DFFC30464E
:102F700014F009FE00E0059D06980570264613E54D
:102F80003E46387A054918F0A3FC1620019F6AE7EF
:102F90003E46B87D0FA9087039E7C046307500007D
:102FA000E9740200FFFF0000FDFF000002030000C3
:102FB000F0B593B0002800D12BE204461B2000019D
:102FC00020180D905B20800020180E90FF200146F5
:102FD000663163182321C90061180A910146063140
:102FE00061180B912146F0310F91214684311091E7
:102FF00026467736214676311191214667310C916C
:103000000E3020180490581C03902046E0300790A2
:103010002046A43006902046D03005902046B4309B
:1030200009902046BC3008901F4F1293B07A0025BB
:10303000002800D155E2317808462D380D2800D8F7
:10304000ECE1881E282846D84000C0467844808895
:1030500040008744F00149002B00E000B300FC0071
:1030600049008000490003012F017B009B001001F3
:10307000720041015B014900620049004E008E0070
:103080004900490049004900EC0149004900490054
:10309000490049004900E801E801E8014900490008
:1030A00049004900EC01C0461067002024F0C0FB35
:1030B00000D0ECE1F87A002800D1C4E100200C999E
:1030C0004871F12124F092FCA0790999089A1BF02B
:1030D000D5FB129BAAE7F22900D11DE1F12900D10D
:1030E000FFE1F32900D1E4E1002022F0E3FA129B92
:1030F0009CE724F09DFB00D0ADE10D9A107B4106CA
:1031000040D4C10700D079E1810700D400E2BC219E
:1031100008401073A1791A2076E124F089FB00D0D1
:103120009BE10D9A1078810600D523E1810700D438
:1031300089E1DD21084010702EE124F079FB00D0F8
:10314000A9E11879012800D19DE038E124F070FB55
:1031500000D1C5E085E124F06BFB00D099E1F87A5D
:10316000002800D16FE1608CE08302200F99087580
:1031700029E124F05DFB00D08FE10D9A107B410620
:1031800000D460E1BF21084010731CE124F050FB23
:1031900000D06AE1F87A002800D014E10F9F387D52
:1031A000032800D0AAE1A1791A20049A18F05AFE47
:1031B00000203875204617F031FF45E024F038FB39
:1031C00000D062E1F87A002800D13CE1608CE08315
:1031D000204617F023FF01250C9F3D70204619F073
:1031E0006AFE7D710F9D297B0B980278102010409C
:1031F000012900D0ECE0002808D0002012990870C6
:1032000048780A99896C490818F062FBA079002176
:103210001EF08EFCEBE024F00BFB00D083E0F87A8C
:1032200000280F9F09D0012110988175A0790A46C6
:1032300024F053FC00207860B860B87B012800D0EF
:1032400001E1062124F0D2FB129BC14FEEE60721DB
:1032500024F008FD012800D1B5E042E124F0E8FAAD
:1032600074D10F98C07B012800D0ECE0F12124F04C
:10327000BDFB129BDAE624F0DBFA00D003E11879FB
:10328000012800D08CE00E98007E0F2803D000208B
:1032900022F010FA129B002018710E98407EA1793E
:1032A000109DAA895208EB892D8A2D0900951BF0E3
:1032B00079FA88E024F0BCFA00D0DFE00B99087CB2
:1032C000012800D0EBE0487C01287CD123F0AFFD41
:1032D00000201CF01AFC76E024F0AAFA00D0BEE030
:1032E000F87A002810D0002210988275A079012762
:1032F000394624F0F2FB02960C9E3770204619F0F6
:10330000DAFD7771924F029EB87A5AE024F090FA73
:1033100000D0A8E0F87A54E01098817824F066FB99
:10332000012011990FE00F990878012800D1DBE006
:103330004878002800D1D4E007980699059A19F03A
:10334000C5FF01200F990870129B6FE60B2124F036
:1033500089FC012800D0C4E000220F98C2731098A5
:103360008275A0790125294624F0B7FB11980570D4
:10337000129B5BE6DF210140117001070CD5D721BC
:1033800008400D990870A0790E9D298EAA8E6B8E2B
:10339000ED8E00951BF04EFA00200E99887712E012
:1033A000D87801280BD10020D870A179109DA88968
:1033B0004208EB89288A000900901A2077E71098C4
:1033C000007900283FD0204617F028FE129B2DE6FA
:1033D000002807D00A98806C42085E482146039B6B
:1033E00023F028FFA079002101221EF087FB584F0F
:1033F000002028732874E881129B17E6BE2108403C
:1034000010730E98407EA1790022134615F0BCFC83
:10341000D9E7002022F04EF9012562E0204624F091
:10342000A8FB05465DE0204624F077FBF9E720463F
:1034300024F067FBF5E724F0FBF94DD1B87A0028BA
:1034400001D0162103E023F031FE4AD1222120468B
:1034500020F0B4FBE0E716213FE014213DE011210C
:103460003BE00D2139E0122137E00E2124F0FAFB78
:103470001199087001200F99087532E001200B990D
:1034800088740C2129E00F2127E0062125E0042182
:1034900023E0092121E010211FE017211DE023F086
:1034A00005FE1ED123F0C3FC222528461CF02DFB6F
:1034B00038E01098817808460C38082842D8C04671
:1034C0007844007940008744043D04303D3D3D3D53
:1034D000040024F08BFA0FE0022124F0C3FB1199C1
:1034E0000870284613B0F0BD052124F0BBFB01286D
:1034F000F7D100250F9885730120F0E723F0D6FD62
:10350000EFD1A17922252846049A18F0ABFC09E0F6
:1035100023F0CCFDE5D1A1792225002228461346CF
:1035200015F032FC2046294692E7F12124F05EFA9C
:10353000A0790E9C21886288A388E488009416F004
:10354000DBFCCEE70025284622F0B4F8C9E7C046E8
:1035500010670020E5660100F0B5A5B00446FB4801
:103560004068002802D0804700284BD00321F84B48
:10357000F8480078421E1394002C0E9200D00122CD
:103580000904159159780F9199781691DA731F46AD
:10359000183700241494844222D21698A0421AD0DC
:1035A000E5B2002117AA04262846334622F004FC7F
:1035B00017981599084202D01499491C1491304368
:1035C000C0B27C2806D10621F8262846324622F0D1
:1035D000FFFB3E70DE4B641CDE4800780C37DAE7F8
:1035E0001499C9B2401E884204D15879002801D1EB
:1035F00000201FE201200490C2021399002903D089
:10360000084602E00B2015E21020511A0591129293
:10361000101A089000200C9007900F9D0E9C0C999A
:10362000200400D1D4E11491D87B002801D10120DD
:10363000D873EEB2002717AA04233046394622F089
:10364000BBFB17981399002913D01599084213D082
:10365000701CFC4909781CF0FBFC0D46F84B1298D5
:1036600018825973D87B401ED873641E1499491C64
:10367000D6E70B970F9D02E00E9414990B910F95CE
:10368000C0B2702804D00F98C0B270211EF09EFA0C
:103690001698C4B2002517AE0423204629463246A8
:1036A00022F08AFB3078FE2803D0FE2120461EF04F
:1036B0008DFA0621FE262046324622F089FB0C2296
:1036C000104660431194DE4F394616310C18A01C89
:1036D0000A90A67016983873129838820F987873EB
:1036E000C3B216931492104658430818C6887E82B7
:1036F000FF20B873BD827D208100D448069123F05D
:103700003FFDCE480570F87BCF49169A511808182E
:10371000CC49097800B2169118F08EFE0F9B3A46FC
:10372000119F1091A01D0990E0880D902946DCB2F0
:10373000BC4200D1BCE0E80700D0CEE0B7B2162F03
:1037400000D89CE0BD480078002800D050E71691D2
:103750000F93F01F039081B218AD20462A4616F051
:103760000DF8E98908461030B8420DD8A87A962895
:103770000AD10398451A18A8427AA8B203912346A1
:1037800017F092FF002828D0751EAD4A0F9B119F9D
:10379000A8B2172800D219E1362802D82E46163EC4
:1037A00000E02026AD1BB3B2A9B21DAA204622F02C
:1037B00003FBA34A0F9B3004EAD0B0B21DA9401806
:1037C000401E0078962801D0761EF4E77619002571
:1037D00016999C4800781690A9E7019518A8C07A18
:1037E0000025C107964A119F04D180070F9B04D47E
:1037F000019EEDE7019E0F9BEAE70398C11D0D981E
:1038000080B2039189B2091812980091814201D9BE
:10381000049DDDE789480078019F039E310420D094
:1038200000281ED10396B6B20698864200D3069EA3
:10383000B9B220460297854A334622F0BDFA0D9F61
:10384000B9B21198814A33461DF096FD7B49087044
:10385000BF190D97029FBF1903998E1B784A0F9BC2
:10386000DCE71699491C1298009C844203D1019E02
:103870000D90049D01E0019E0D94119FA9E7002980
:1038800003D014986043101886831098C0B2844205
:10389000119F29D0601C169989B21CF0D9FB684A87
:1038A0000B460846149948431018868B00253DE7BF
:1038B00062480078002800D09AE6169A11B2624851
:1038C0001018001900B218F0B7FD5D4A0B46C8B2D7
:1038D000149948431018868B0CE0002905D01498E1
:1038E00044431019868300E0109B54480078002858
:1038F00000D07DE60D99118296829373099801801C
:10390000517B1220125E01243846234620F03EF8F7
:103910004B48817B14204A4A125E0223384620F02D
:1039200035F84748008A1399002907D00599814244
:1039300007990B9E04DB2146079401E000210B9EB2
:1039400011910899814207DB7C2106E0A4730020D5
:10395000C4610020DB690020782138461EF036F96A
:103960000CF01EF805463846354FF97B491BF973B4
:103970000621FC24224622F02BFA0A980470B8781B
:10398000B1B2691808182F490E7831461CF060FB57
:10399000B9701691481CC0B231461CF059FB7970C1
:1039A000B97B149848433818808B102805D1481CDF
:1039B00031461CF04DFB224B00E03B460F910E9828
:1039C000401B0E901198C00702D126E610268CE706
:1039D0007C201EF075FD0446FF281AD17E201EF0C3
:1039E0006FFD0446FF2814D115494C780C20604324
:1039F0000818807DFF2808D0887812490978401877
:103A0000401E18F019FD0C4603E07E2120461EF0F2
:103A1000DDF80B4DEC70E0B20C2141436818808B4F
:103A2000E880A878FE211EF0D1F800206871288A6D
:103A30001299081A00B225B0F0BDC046A473002048
:103A4000C4610020DB690020FFFF00005455002006
:103A5000F0B59DB00446FB4E3078FB4D287003282E
:103A600000D024E100203070287011A823F0F4FB6E
:103A7000002800D019E101200F9011902846243031
:103A800011A91BF0EDFE002800D00EE10F98C00236
:103A90000D90EE4F5E21384623F072FB0C370A2161
:103AA000FF2238460C9223F0EDF91FF0D3F90020E5
:103AB000109021461AF0BAFFA86029460C3123F075
:103AC00047FC2C696D69204629461CF0C1FAC1B239
:103AD000062900D30621DD480170DD4F39700D98AD
:103AE000854200D0E1E0C802844200D2DDE0D64841
:103AF0008068002800D1D8E0D44A109E56710C9BF3
:103B0000D3700F98C002D080069609960796059646
:103B1000049608960A96019302930393CCB2A642A8
:103B200000D3C6E0F4B200251CAA0423204629468F
:103B300022F042F91BAA20460E952946F14DA847CE
:103B400001271AAA20463946A847022119AA204669
:103B5000A8471C99C8B20246703A0E2A04D83B46C0
:103B60009340E94A134203D10246FE3A022A03D2A5
:103B70008A0CE64B9A421FD020460FF0E3F9DD494C
:103B80000870002800D0CAE0354600261CAA04238D
:103B90002046314622F010F91BAA204631462E4617
:103BA000D84DA84701211AAA2046A847022119AAE0
:103BB0002046A8471C99C8B20C2210967243CE4BDF
:103BC0009E183346163318700A0AF2758903890F56
:103BD00071761BA989783176FD2801D9102126E05C
:103BE0001BA90988CA4A914221D10B930E981490BF
:103BF0000D9DA8B2051FA9B214AA0423204622F0E5
:103C0000DBF81498411C03D12946C24A1140F0D177
:103C100039460B9BFAB2042A06D8C2B2FF2A00D05A
:103C20003946000A7F1CF5E7C8B229181878B18315
:103C30001AA98978B1761A99F18319A98978F17648
:103C400019993184702828D07828AC4F109E20D044
:103C50007C280AD07E2812D0FE280BD0FF2814D151
:103C60000698401C069003961CE00598401C0590A1
:103C7000029617E00998401C09900C9612E0B0B229
:103C800001900798401C07900CE00A98401C0A908D
:103C900008E00498401C049004E00898401C089038
:103CA000964F109E761C397838E7012030701DB091
:103CB000F0BD0A9800060BD10998C0B2012807D8B8
:103CC0000898C0B2012803D80798C0B2012810D9BB
:103CD0008B48042202700024CAB2E0B290420FD294
:103CE0000FF030F9834A117801431170641C397860
:103CF000F2E70698C0B2A04214D1814800220270B7
:103D000000207D4C6070491EA170E070A18BE180A5
:103D10007E211DF05BFFA078FE211DF057FF754846
:103D20000078C4E70898000624D00998000605D159
:103D30000698000603980C9000D18BE07048022191
:103D400001706D4E0C9FB770781C80B221461CF03C
:103D50007FF97170FCB220460FF0F4F865490870E5
:103D6000FE2120461DF032FF0F9870710020FFF7F2
:103D7000F3FBD4E7099800061ED00C980390604826
:103D80000F9A02705C4C0398A070401C80B2C9B2BC
:103D90001CF05EF96170029880B2FF2822D1019870
:103DA000FF2800D098E0544AD17088B20C214143DA
:103DB0005018808BD080B2E70598049A1043000613
:103DC0004E4F85D01FF0CEFDA04247D30698000687
:103DD00000D18AE048488078FE211DF0F7FE474870
:103DE0000178CCE7444A0299D1700C214143501824
:103DF000808BD080182892D3C11F0298C0B289B29C
:103E000014AC224615F0BAFCE07A4007AED53A4928
:103E1000C878C98814ACE289891AC91F00220092A7
:103E200089B20323224607F0D7FC002800D076E7AA
:103E3000A189002900D172E714A8007C1CF028F8A1
:103E40006DE7C046F3760020A4730020C461002013
:103E5000DB6900201FF086FDA04246D228480321DE
:103E600001701FF07FFD0446234E30730C25284659
:103E700060433018817E7173C07EB0730BF090FD8B
:103E800000191E490C7821461CF0E2F8B170481C5C
:103E9000C0B221461CF0DCF871707C201EF010FBD3
:103EA000FF2810D17E201EF00BFBFF280BD1FF2036
:103EB0001EF006FBFF2806D178201EF001FBFF282C
:103EC00001D10D4840780C49C870C0B2454348192B
:103ED000808BC88088781FE70749019ACA700C2038
:103EE00050430818808BC88019E7054806210170E7
:103EF000FEE7C046A4730020C4610020DB690020F7
:103F0000E6690020916A020001510000832500004B
:103F1000FFFF0000FCFF0000F0B587B01646054625
:103F2000041D50040595029440D40191C805C00EAB
:103F300000D189E0052080033146814303910020B0
:103F40000690824C82480068042800D288E00496DB
:103F500000201EF09DFA80B2451D2F467D48074087
:103F6000606939461BF0C2FA06466069864204D091
:103F700008200699014306916661002E69D0A908C0
:103F8000F08935461035281818F028FCF0892918D2
:103F9000E279CA70C019F0810420069901430691A4
:103FA000059D686B23F06EFE039ECBE704962E46BC
:103FB0003036F94C20F02EF9039023F04FFA6F6B56
:103FC0007969B869009121600002F5490860F548F7
:103FD000808DF64CE0811FF03EFAF2498886002081
:103FE0000190EE4908830697788AED498880102071
:103FF000607168881FF006FD0446307816F04AFBB1
:1040000029468227002822D005460846313000780C
:1040100029461DF095F9002800D0AFE0032C00D010
:10402000ABE00698007C41424141284602F002FF85
:104030001EF0E6F9D948019AC286B056C1B24029AD
:1040400000D2CDE01146CDE00020069011E00D46F3
:1040500095E085206071D84801210160059D049E8E
:10406000A079002804D0A86BD149C96816F044FB98
:10407000029C0198800431D50496CC4E7089CF49BA
:104080004968411A4220375A0391B94225D2442047
:10409000345A686B20F006F9002810D00221017212
:1040A0008189B26B904202D10020B063F063481D59
:1040B000C34908403F1A641E0398B842E9D30398E5
:1040C00087420DD1002C0BD4383603987081B4810F
:1040D000102006990143029C09E0049E06990AE01B
:1040E00084207071B44801210160029C0699B44893
:1040F000001D049E06437006C70F0F430120C50331
:10410000681C019901422FD0032000BF00BFA448C2
:1041100080880599496B48820224A4484079102878
:104120001CD1019828409F48008815D1411E0629BE
:1041300000D997E01320C0467944097949008F449B
:104140000D03939191959700142007E000610020E2
:10415000CC110840FCFF01001DF0FEFB2743029C30
:104160002178000208182080B807059D14D5A86B97
:104170008F49C96816F0C0FA0EE02746059D049ED7
:10418000F8B20F2801D8002000E00120029C21781D
:104190003A02891821804700607800020321090251
:1041A000884212D1F00305D5686B23F06BFD012026
:1041B000000486438248001D064206D0686B7B4A95
:1041C00038320023D9430AF0FFF8B80705D51EF0AE
:1041D000FFFD22F081F921F07BFA384607B0F0BDEF
:1041E000402211437F240028059D049E01D40846E7
:1041F00000E020406B4948866C490979002904D0C9
:1042000000060099484068490860FF206449888298
:104210002846039918F036FB07460F28B0D8A86B3C
:104220000025002829465D4B45D06149C9681962BF
:104230001C820021417084700278D2071CD1584A38
:10424000D186118751879187D187198059809980AC
:10425000D980198159819981D98101758160C160A5
:10426000016124E0102079E7152077E7412075E708
:10427000022013F097FF71E7017A494AD186417A0B
:104280001187817A5187C17A9187017BD187417BE0
:104290001980817B5980C17B9980017CD980417CC8
:1042A0001981817C5981C17C9981017DD9810078F6
:1042B0000221014049083D48817102980078012897
:1042C000284604D13A48C0680599096A081A01903D
:1042D0001FF060FC1EF092FD344F38817D6105981F
:1042E000406B23F0CFFC012620F01CFC788106985F
:1042F000017C00292B4604D0428A182111404B42F0
:104300004B413704294C22463832A563E5631672C7
:1043100055819581022103920AF056F8A27921482D
:10432000808D2449002A02D08031084602E04007EF
:10433000400E4840059D0499B943049122F048FC81
:104340000698007C002806D0698E01984018002845
:1043500004DC132703E0042410490DE00327049E26
:10436000002902D0012800DA0AE7002900D1084616
:104370000A494882032400260E8722F071FB02209E
:1043800000BF00BF0C4804600023D9430698039A7D
:104390000AF01AF80327F2E6401408407C2009408E
:1043A0003C200940062009404014084000610020DC
:1043B0009465002071A1000030100840CC11084025
:1043C000FCFF0100F0B595B022F038FEFF2800D1C7
:1043D000F0E10446F848456822F030FE7B22910067
:1043E0004143681871218900405CC00700D0E1E1B9
:1043F0000B92E0B223F084F906460746FF202030F6
:10440000315C012903D1301841783846D0E10F20C2
:10441000400130180F90DB204000301812909F248C
:104420003546763523F082FCA87C022814D10F98FB
:10443000808800070ED5B979788E4208BB8EF88E39
:104440000009009000201AF0ADF90F9A9088182109
:10445000884390800020A87403954B21912260002E
:10446000334696330D93129B1B78022B02D1002307
:10447000129C237089005500341830462E30059068
:104480000D98007802280BD1002014910D99087026
:10449000B87931466231059A127B1BF0B9FC149948
:1044A000139777180A9670190C90218B002902D067
:1044B000A07D0EF019FB0720049023F038FC139A1E
:1044C00050891081BD4E717C707B11904318F07B38
:1044D00014901818B37BC018357C089540191090BB
:1044E000B748056892793C200790029250432818FB
:1044F0003025405D0690B88809914018B880F07C5E
:10450000FD882818F880307D3D8928183881788901
:10451000119A80187881B8890E93C018089BB881C9
:10452000F88914994018F881388AC0183882B07C0C
:10453000258828182080707A658828186080F07A8D
:10454000A5882818A080B07AE5882818E080307BFC
:10455000658928186081307AA5892818A0810C9A6D
:104560009088401C908010881099401810805088C6
:10457000119C001950803D68002D10D021460698EE
:1045800040002A182B5A109C1B192B524A20135AF0
:1045900059181152B07B0E90F07B1490337C09981F
:1045A00000280A9D27D10E98002824D114980028AD
:1045B00021D1002B1FD10020139CE0830F9E306877
:1045C000B188049A11400127FA070240501803D01D
:1045D0000021029819F0E0FD784B587B00281BD091
:1045E000207C002801D0E089A081207F012830D1E3
:1045F000608CE0832DE00027129807840F9E3068BE
:10460000C10F139C47D0B1884A07920F3AD00021BE
:10461000029819F0C1FD3EE00C99C888401CC88082
:10462000207C0227002814D0606940000599097891
:10463000644A4A4380180B99090140181490604954
:104640000968A2793846079F7A4307468918149863
:1046500048862089A189884204D0401A25D95A4920
:10466000884222DCB088800606D40C980088002896
:1046700000D19BE008219AE0A0793E2123F089FA3D
:10468000FD2194E0CAB2521C03231340049A9143C3
:1046900059183060B1802089E1890818A081207FF5
:1046A0000128464B01D1608CE0832B20C0002918E3
:1046B000587A00280FD0012020770398007800282E
:1046C00009D10398807C002805D10D980078002836
:1046D00001D1608CE083087900280BD0022804D136
:1046E000987B002801D1002003E0187D002801D02C
:1046F00002200871587800280FD058682168C860D7
:104700002F480168A079079A4243891800224A86F7
:10471000B188012212020A4311E029480268A079F7
:10472000079B4343D218538E0B60244B116A2268B7
:10473000D1600021E1832177B188244A0A40B28008
:10474000743599787F2900D181212970812901D080
:1047500023F0EBF9204623F00FF801282AD000259A
:104760002046294622F08DFB2046294620F095FC64
:1047700023F00AF923F0F9F9204623F0C9FA22F0D0
:10478000FFFF1348103015F073F938461099224690
:104790000CF058FF022F00D0257400F01BFA23F014
:1047A000FAF9002806D006F019FA03E03E21204667
:1047B0001FF004FA15B0F0BDEC680020106700206F
:1047C000B8790020C4090000AA100000FFFE000014
:1047D000B8750020F0B591B00646002710970F97E6
:1047E0001E20002E00D1DAE10C90356E0FA910AA20
:1047F00030460BF0EFFD072801D10720CFE132460C
:104800002932706E132140567F2805D100211046B1
:1048100014461FF0EDFC0AE010700021144621F050
:10482000B3FAC0B222F08AFD002800D1E2E00D9474
:1048300030465D3008902846C0300A9028468030C7
:104840000990284665300B902C463034291DD548F8
:10485000286006918F700F80EF71D348A8602846BA
:104860000C30242122F08CFC07202070601C0F21CA
:1048700022F086FC0D98C057394621F085FA607009
:10488000706E407A2070069B188801221043FE212A
:104890000491884318800592EA7123F075F87D2110
:1048A0004901401828620794A7703046294622F033
:1048B00097FF2846403029466831A863E9632A21DA
:1048C000009022F05DFC7F200B994871EF662F6706
:1048D0006F67286A3061B548007808990870B44855
:1048E000007800280D9A16D0507E049908400228BE
:1048F00011D1B04800680D30144621F05AFC224610
:10490000002808D130463030AA490968C91D06225E
:1049100021F07EFB2246507E411E8841079B1946AE
:10492000343103910E9634240294195DFD220A401D
:1049300040001018185528465830303606969E4BC1
:104940000624314622469847099E37709B48F080DE
:104950000895059D358108988C3006992246964B1E
:104960009847F4723C20019737540A9E9348708010
:10497000B58008990298079A105C4001402207927E
:104980001040001DB0710D460846C83006992246F9
:10499000894B9847F4710E98807B012801D0042838
:1049A0002AD1039E30784001079908400D99897EED
:1049B000C9014018401C099FB8720C20F8722C469F
:1049C000284692300E9D3C3506220792294621F05A
:1049D0001FFB0D98807E3178059A1040049A114093
:1049E0000818307020465E302946079A21F010FBE7
:1049F0000A9B41E01220D2E027460E9B986E0028C9
:104A00002C4612D0C11C0A78497809028A180CD0A9
:104A1000411D204692301E4621F0ECFB3346B06E1D
:104A2000C078099AD17A0818D072D86E0028019EF1
:104A300011D0C11C0A78497809028A180BD0411D8F
:104A40002046CE3021F0D6FB0E9BD86EC0780A9A55
:104A5000D1790818D071987B0228394600D03146A8
:104A6000032800D102210A9B099F03980078400186
:104A7000079A10404018B872214678312546B4355F
:104A8000F87A801DB880D879801D18804C488078CD
:104A9000400606D5B87A20221043B87298791043A0
:104AA000987127464837384621F0F2F938462946AA
:104AB00021F0EEF9254650351FF0B6FD0146284697
:104AC00021F0B6F90E98006FC17800790002411804
:104AD00002D03C48484300E03B48E0623B480026A7
:104AE000022726616761A0610E9B586E807C0B9D3A
:104AF000297803220240FC20084080182870586E54
:104B0000807C002803D12A480078012817D122F0A0
:104B100037FD054622F038FD014628461DF05EFAB5
:104B200000280C983BD10B9A107818210143117082
:104B30001F48007801281FD10098056028E0022056
:104B40001EF058FD002824D0044617F0BFFA0028B4
:104B50001FD10B9A107804210143117020796179DB
:104B600009020818A1790904E279120651180818F7
:104B7000001F009908600CE00E98406E807C04993C
:104B80000140022901D100990D603843032800D16A
:104B900065640F98002801D00D498180304611B01E
:104BA000F0BDC04601100000910000004E7A0020C8
:104BB000F4680020B46900201160020003020000C4
:104BC0009E670020409C000000204E00A59601003A
:104BD000AC0D0000F0B589B022F030FA0446FF2891
:104BE00002D1002020F066FDE0B222F089FD0446EB
:104BF0001B200001231820560028079306D57F218B
:104C000008401870204612F01BFB079B2246883292
:104C100021462E31A06E00680068002802D00020D6
:104C2000E08311E04820085C00280DD110780028AE
:104C30000AD1907B002807D19879002804D1207FE1
:104C4000012801D1608CEBE708920091DD272B2031
:104C500006902189E08B04914E1C35186581204611
:104C60001FF088FC002803D1C1480078012803D137
:104C70000020E083668135467E000698C0000590DE
:104C8000089F387801280BD17A88A9B204981DF0C2
:104C90001FFD002804D022F0D1F82DD07A8821E021
:104CA000B87B01280BD1208961893A8A1DF010FD5B
:104CB000002804D022F0C2F81ED03A8A12E0079BE6
:104CC0009879012818D1208961891A891DF000FD81
:104CD000079B002810D062892189481C80B282423B
:104CE0000AD01A89824207D0501E608180B222F019
:104CF000B2FE401EE083079BA519059826189879F7
:104D000000210291012814D118892189491C89B2F6
:104D100088420ED820461F4622F0D6FF6A782A70B5
:104D20000220B871089FA17900200292134614F066
:104D30002BF83079002804D00020E0832089401C23
:104D40006081039638780128069510D178882189EA
:104D50004A1C92B290420AD1608122F07CFE618EA0
:104D60004143F8880E18204610F010FB00E0668ED4
:104D70000F21254620357F48E28B0592571C77434B
:104D800002467A432668F068019210180790F06096
:104D900079483822825C002A06D0784A5278002A64
:104DA00004D0774800220280608A0EE00491744AA1
:104DB00013885A1C72490A80002B01D0608A03E0D4
:104DC000408F039AD28810180499784349010491BE
:104DD000192109011BF03CF9401C6061A76105998C
:104DE0002970684B1968A2793C256A4389180A6AB8
:104DF0003261079A101A0862B06008798880A08A28
:104E00001A68A67929467143079252181146323121
:104E1000538E400018185086089A1278022A05D13D
:104E2000009A1278534B5A4310180880049AA3181A
:104E30002027524A5278002A089305D0998839428F
:104E400010D13146079A1DE0029A042A03D1E122CB
:104E50001201801808809888384201D0002008800C
:104E6000069F2BE0002130461E4622F092FEB088BD
:104E7000B843B08043480268A179284648431018D7
:104E8000408E0E466943079251180A6A3E4BD2186B
:104E90000A6223689A60019FD21B1A617B22120169
:104EA00082184A86069F3B78042B04D13231572260
:104EB000920182180A8090B203990860618E33488B
:104EC000027C437C1B029A18837C1B04C07C000676
:104ED000C01880180068484364211BF0B9F82549C0
:104EE00041432948401890306E4307998919C86298
:104EF000FF20063020180421062220F050FD002853
:104F00000CD022F0B3F841B21E4E3268A3796B4345
:104F1000D318491001220240184609E0194E3068A2
:104F2000A1796943401808998968092289560022A5
:104F30001CF0CEF93978002903D1002020F0BAFB0B
:104F40003978A0793A7914F04FFC204622F010FF0E
:104F50003068A1794D434019216848600C48072109
:104F60000170204615F034F9002009B0F0BDC046AC
:104F7000086A0020C4090000407400201067002067
:104F8000187A0020B8790020C0FAFFFF34B202007E
:104F9000F9690020F0B58BB00446016CC26A1CF0C0
:104FA000EFF8E16F4A1C904201D9352591E10028C4
:104FB00013D0206C8A0087180837891C384621F0E6
:104FC00059FFA168384621F0DEF8002807D0E66FC7
:104FD000711C884205D9C6257BE1532579E16C25F2
:104FE00077E123786625022B00D272E1052B00D9E8
:104FF0006FE10890216C0A68981E434243410125E5
:105000002A405A4080200A9022500898E0672046A3
:105010003A460B4612F0D4F920784000001F29468A
:1050200081400A982150216C20460A461CF08AFFD4
:10503000E667E16C20460A952A4621F0F1F8626E97
:10504000A06EE16CA36FE56F0095A34DA847A26E1B
:10505000E06E22F0CEF9A06EE26E22F0CAF9216F66
:10506000226B20461CF08CF8E56FA84201D93C2544
:105070002FE100280ED0606CE26E216F22F0CEFC92
:10508000216F626B20461CF07BF8E56FA84203D9C4
:1050900065251EE1C3251CE1074600280ED0A06C43
:1050A000216FA26E22F0BAFCE16EE26820461CF08D
:1050B00067F8E56FAF4203D95C250AE1562508E1A0
:1050C00026468036A26EE16E206F22F0A7FCE26CCD
:1050D000206D216FA36FE56F009500F0FBFDE06F81
:1050E000421C09963260656D0026277822F051F93E
:1050F00009DA616C284621F01FFE099802689000C9
:105100002D18761CF1E7A56D002622F042F906DA8B
:10511000A16C284621F010FE21F09EFEF5E7E56D1A
:10512000002622F036F906DAE16C284621F004FE6A
:1051300021F092FEF5E7216C08688007C20F0898FD
:1051400040010290401C0190002507952B460A9EC5
:1051500002988642E8B26AD80490069308920198B1
:10516000801BB84200D33846099A10602046324668
:105170001BF080FA4119C8B27B1E01252A469A40CD
:105180009042059500DA00252B46BB4090420A96D6
:1051900000DB48421818089A5049895C9600504A2A
:1051A0009219079F7B00D218525D92005118000699
:1051B000800D001F042290430818099908602046BA
:1051C00000F0F0FB6800474989190918049A895CC6
:1051D0000391454989190818C75D079720780490FD
:1051E000811E42488019405C0A9E36181420089A95
:1051F00050433F4A1218052041435118069D4D5D0A
:10520000216C720992008A581F233340DA40059BB3
:105210001A40039F7A4042430A20089B5843354B6B
:1052200018188018425D2B463D46049F90E70128E0
:1052300010D107988000C01C099E30602E4D20467A
:10524000A847012030602046A84702203060204651
:10525000A84727789925032F3BD30020C043089007
:10526000B91E01200A908840FE30099EC7B20A98F4
:105270003060002F11D07A1C2046394604F030FEF1
:105280000A9830602078801E08998140C9432046E2
:105290003A4604F025FE781EE8E72078801E089F35
:1052A00039468140CA43002107912046134B984755
:1052B0000A9830602078801E8740FA432046079F76
:1052C00039460E4B98470A9A3260204639460B4BB6
:1052D000984728460BB0F0BDD55C000048B70200E7
:1052E000A0B3020070B30200B8B3020088B302009A
:1052F00078A8020040AD0200A5590000E19E000020
:105300007FB51546D14A82181D2A00D934E15200D2
:105310007A449288520097441D002F01C500500026
:10532000BA0060009A00DE002F01E4002F012F0177
:10533000230115012F014500A50078003E00EF0074
:105340000001440139012F0128002F018E004D0179
:1053500033006A001824012900D069E12878022866
:1053600000D965E1BA49C87061E11824012900D06B
:105370005EE1002D00D15BE12878B549087056E167
:105380001824012900D053E12878012800D94FE1E1
:10539000AF4908754BE1012900D0DFE0287820F003
:1053A00083FD44E11824012900D041E12878042834
:1053B00000D93DE1A649887439E11824012900D0BB
:1053C00036E12878042800D932E1A1490871032880
:1053D00000D02CE100244C7178E0102900D0BDE011
:1053E0009B4854301022294620F012FE1FE1182459
:1053F000012900D01CE1002D00D119E128780128F5
:1054000000D915E19249887011E11824012900D0D2
:105410000EE12878022800D90AE1002800D107E12E
:105420008B49C873022800D00BE1102008740120BA
:1054300021F0F4FEFBE0002900D08FE022F068F8B4
:10544000002800D1E0E082480121C174EFE0182477
:10545000012900D0ECE02878012800D9E8E07C4957
:105460000872E4E0072979D1691C01AE06223046B2
:1054700020F0E6FD29780024009403AA3046234654
:1054800021F0B7FC002800D1A7E03424D0E0182494
:10549000012900D0CCE02878012800D9C8E06C4967
:1054A000C871C4E01824012900D0C1E0287801287F
:1054B00000D9BDE06649012803D10A79032A00D149
:1054C00084E04871002800D0B1E000248C712046AF
:1054D00021F036FBACE0012940D128785C494873C3
:1054E000A5E000293AD122F013F8002800D192E07B
:1054F0005748012181739AE0554E707A182400288C
:1055000000D095E0602978D1002D76D051486022F6
:10551000294620F07DFD012074E01824012900D0E7
:1055200086E02878012800D982E0494948720024A1
:1055300000287DD00120887246484749602220F02B
:1055400067FD75E0012909D141494A7C28784874F2
:105550000024002A6CD1012863D069E0182467E098
:105560001824012964D13A48C27B2978022A2FD114
:1055700010295DD110212EE002240E2858D80229CE
:1055800056D129881AF0A4FB044651E000240129D1
:105590004ED1287801284BD82D49C87221F0C8FA7D
:1055A00046E01824012943D12878012840D8284909
:1055B00008733CE0182401293AD12878012837D80B
:1055C0002349012830D14A79002A2DD102242FE025
:1055D000CA1F0A2A2CD2017429E01D4D287B0028FD
:1055E00004D121F095FF002802D0287B012822D188
:1055F00003A8007807F020FF0FE0012918D1002D43
:1056000016D02878B07212E00EF0C0F80446502090
:105610001EF010FB0CE01EF00BFF044650201EF0A5
:1056200009FB17F0F3FE03E0887121F089FA0024EA
:10563000204604B070BD686A03A90978012242546B
:10564000F6E70024204621F0E9FDF1E700FCFFFF2A
:10565000D87100203C72002058A90200F0B58BB030
:105660000C4621F0FDFA05462046294622F031FB82
:10567000002D01D00020A860012660003CD5B507B0
:10568000681C22F0CDF802D122F03FFBB44328463B
:10569000403022F0C5F803D122F033FB4020844390
:1056A0002846203022F0BCF803D122F02CFB202029
:1056B0008443281D22F0B4F803D122F02AFB0420F1
:1056C0008443A81C22F0ACF803D122F023FB022073
:1056D00084432846083022F0A3F803D122F016FBB9
:1056E000082084432846103022F09AF803D122F093
:1056F0000BFB10208443AC43E00234D53705B81CC3
:1057000022F08EF803D122F0DBFA02208443781CC9
:1057100022F086F802D122F062FAB443384608300B
:1057200022F07EF803D122F0CCFA08208443381D01
:1057300022F076F816D1032022F0E9F900280FD0E4
:10574000024688301546943501680A91526AC38C26
:10575000018DC06B0091019028460A9922F055F9FD
:1057600004208443BC43204621F0E6FF044621F098
:1057700077FA0546200403D522F00AF8F0038443A3
:10578000600328D5002D10D02888402819D0310278
:1057900088420DD080281CD177480078082801D095
:1057A00022F06CFA22F09FFA13E022F067FA10E080
:1057B000714800780E2801D022F060FA22F09DFA9C
:1057C00007E06D480078072801D022F057FA21F051
:1057D000BFFFB0048443600103D521F0D1FFB006C0
:1057E0008443200703D522F0A5FA08208443E0066D
:1057F00012D562480890FF2000210091019102918A
:105800000391049105910691079002200A460B46E8
:1058100008F07EF910208443A00603D522F08CFA0C
:1058200020208443200303D522F058FAF004844357
:10583000A00303D522F077FA70048443200103D536
:1058400021F0F6FEF0068443E00003D522F044FA8E
:1058500030078443E0030AD521F076FF012802D106
:1058600021F01EFF01E021F057FF30048443A00027
:1058700003D522F032FA70078443600703D522F083
:1058800051FA04208443200603D522F051FA8020E7
:105890008443A00703D522F044FA02208443200267
:1058A0000CD535480078052804D0112804D121F002
:1058B00017FF01E022F022FAF0058443204622F08F
:1058C00034FA0446800416D521F0CAFE2C4821F093
:1058D000F7F82C4908601AF07BFA002804D02A480F
:1058E000026803200146904728481BF0B9FC07F0E6
:1058F000AFFA70038443600203D505F06FF9B00579
:105900008443A00503D520F00FFE70028443204D90
:10591000600402D4681C044005E0812018F0D2F82D
:10592000112080028443E00705D01A48006800284F
:1059300000D080472C40E0041BD5174D28680D305F
:1059400020F037FC002804D12868C11D0D3016F066
:105950001BFF21F005FF1148007811494A68350303
:10596000294619F017FF002802D08E2018F0AAF857
:10597000AC4320460BB0F0BDF9690020FFFF0000EA
:10598000FFF90000B8690020A07900201469002008
:10599000FEFBFFFFC0690020B4690020DA69002027
:1059A000F4680020F0B589B0044680202158C8086A
:1059B0000D460391E26F511C4143E06DC9B28F0067
:1059C000C019616F636C06AE0BC6A807060F05A869
:1059D0008159206EA36F0092BB4D0A46A847606EA6
:1059E00021F0F8FC05A88059A16CA36FE26F00922A
:1059F000B64D0A46A847E06E216FA26C636E069210
:105A00000791089305A98959E26DD2190497236E6D
:105A1000E56C06920793089505AA21F0EFFCAA4DC4
:105A2000A847606EE16EE26C06AB07C305A880591B
:105A3000E26F521C21F080F9E06E216F0690079111
:105A4000089005A88059216E21F0A8FC9F4DA84719
:105A5000206FA16E06900790089105A88059A16D4E
:105A6000C919226E636E06AD0EC505A98959A26CCF
:105A7000E36C656F06930795089205AA21F0BEFCBA
:105A8000914DA847606F216E06900791089005A878
:105A90008059A16E21F082FC8C4DA84723466033CB
:105AA0000ECB06930791089205A88759E56C606FA5
:105AB00006910795089005A98959069207900893C1
:105AC00005A88259A36FE06F009038467E4DA84725
:105AD000226E606E616F06AB07C305A88559E16E43
