:10000000503C0020DD080000ED080000ED08000075
:10001000ED080000ED080000ED080000ED0800000C
:10002000ED080000ED080000ED080000D53A0000E2
:10003000ED080000ED080000313B0000753B0000BA
:10004000ED080000ED080000ED080000ED080000DC
:10005000ED080000ED080000ED080000ED080000CC
:10006000ED080000ED080000ED080000ED080000BC
:10007000ED080000ED080000ED080000ED080000AC
:0C008000ED080000ED080000ED08000095
:10009000002243088B4274D303098B425FD3030AC7
:1000A0008B4244D3030B8B4228D3030C8B420DD3DA
:1000B000FF22090212BA030C8B4202D31212090268
:1000C00065D0030B8B4219D300E0090AC30B8B42A6
:1000D00001D3CB03C01A5241830B8B4201D38B0354
:1000E000C01A5241430B8B4201D34B03C01A5241F9
:1000F000030B8B4201D30B03C01A5241C30A8B423C
:1001000001D3CB02C01A5241830A8B4201D38B0226
:10011000C01A5241430A8B4201D34B02C01A5241CA
:10012000030A8B4201D30B02C01A5241CDD2C3093C
:100130008B4201D3CB01C01A524183098B4201D3B8
:100140008B01C01A524143098B4201D34B01C01AA3
:10015000524103098B4201D30B01C01A5241C3081B
:100160008B4201D3CB00C01A524183088B4201D38A
:100170008B00C01A524143088B4201D34B00C01A76
:100180005241411A00D20146524110467047FFE7E2
:1001900001B5002000F006F802BDC0460029F7D0E6
:1001A00076E770477047C0461C2101231B04984224
:1001B00001D3000C10391B0A984201D3000A0839F8
:1001C0001B09984201D30009043902A2105C4018AF
:1001D0007047C04604030202010101010000000053
:1001E00000000000002B11D1002A0FD1002900D1FE
:1001F000002802D00021C943081C07B4024802A10C
:100200004018029003BDC0469DFFFFFF03B468463F
:1002100001B5029800F006F8019B9E4602B00CBCA6
:100220007047C046F0B557464E464546DE46E0B5F7
:1002300004000D009246994683B08B4230D82DD0F1
:100240004946504600F0BAF829000600200000F0A8
:10025000B5F8331A9846203B9B4633D45A4653464A
:10026000934042461F00534693401E00AF423AD887
:10027000AF4200D178E05B46A41BBD41002B00DA01
:1002800075E0002200230092019301235A46934017
:100290000193012342469340009328E08242CFD944
:1002A00000220023009201930C9B002B01D01C60C4
:1002B0005D600098019903B0F0BCBB46B246A94608
:1002C000A046F0BD424620239B1A5246DA404146E2
:1002D00013004A468A40170042461F435346934044
:1002E0001E00AF42C4D9002200230092019343466E
:1002F000002BD9D0FB0772081A4346467B080EE054
:10030000AB4201D1A2420CD8A41A9D41012024196C
:100310006D410021013E24184D41002E06D0AB4214
:10032000EED9013E24196D41002EF8D100980199B3
:100330005B4600196941002B24DB2B005A464446DA
:10034000D3402A00E2401C005B461500002B2ADB4C
:1003500026009E40330026004746BE403200801AE9
:100360009941009001919FE7A342BCD883E74246A0
:10037000202300219B1A0022009101920122DA40E1
:10038000019286E7424620239B1A2A0046469A405D
:100390002300F340444613432A00E2401C005B461E
:1003A0001500002BD4DA42462F0020232600974068
:1003B0009B1ADE403B003343CDE7C04610B5002911
:1003C00003D1FFF7F1FE203002E0081CFFF7ECFE3E
:1003D00010BDC04610B588B000F0F0F903A803F0D6
:1003E0006FF9012302A903A8029303F07DF901210B
:1003F000040003A803F070F980210443C90003A896
:1004000003F07CF9044300D0FEE70023064A03A969
:1004100001A803F077F9041E00D0FEE700F0A2FE69
:10042000200008B010BDC0463506000010B504001D
:10043000044B0A0018682100002305F075F84342B8
:10044000584110BDF43100200A2807D0092800D0F7
:100450007047054A136802331360F9E7034A1368CB
:1004600002331360F4E7C046FC310020EC31002079
:1004700010B50400002900D010BD0A2004F026F8B1
:100480000122030020781340904318432070F3E7C3
:1004900010B50400002900D010BD092004F016F8A2
:1004A0000122030020781340904318432070F3E7A3
:1004B00070B504000D1E25D0012900D070BD037851
:1004C0009A072AD45A0731D41A0737D4DB06F5D550
:1004D0000388DB041B0EF1D000250E2004F044F845
:1004E00023680135DA00120C5001801A8000801850
:1004F000C00003F08FFA2388DB041B0E5B009D42D3
:10050000EBDBDBE70E2003F0E1FF012203002078A4
:100510001340904318432070D0E701210E2004F0CF
:100520002DF80122237813432370C7E700210E2002
:1005300004F024F82378AB432370BFE70E2004F0C7
:1005400013F801212278D307DB0F4B402B40AA433D
:1005500013432370B2E7C04670B504000D1E25D0CA
:10056000012900D070BD03789A072AD45A0731D4E4
:100570001A0737D4DB06F5D50388DB041B0EF1D050
:1005800000250F2003F0F0FF23680135DA00120C7C
:100590005001801A80008018C00003F03BFA2388C5
:1005A000DB041B0E5B009D42EBDBDBE70F2003F05F
:1005B0008DFF0122030020781340904318432070E0
:1005C000D0E701210F2003F0D9FF01222378134344
:1005D0002370C7E700210F2003F0D0FF2378AB433F
:1005E0002370BFE70F2003F0BFFF01212278D3075C
:1005F000DB0F4B402B40AA4313432370B2E7C046A6
:1006000070B5049B0C00002B0ED1002A08D0074EB9
:100610008D1821783000013403F0B6FCA542F8D1E2
:10062000034803F0AFF970BDFEE7C0465004002058
:100630007806002070B582B003F0BEFE80210E2047
:10064000890503F04BFF80210F20890503F046FF49
:1006500023490A2003F042FF2149092003F03EFF0D
:10066000204C0A20210003F043FE2100092003F062
:100670003FFE0A2003F092FE092003F08FFE1A4D80
:1006800000220021280003F02FF9002800D000BE2E
:10069000164C200004F084FC01232370144B21002D
:1006A0006360E12300205B02A36105F03FF8114C79
:1006B0002060002811D0104E694600230122073126
:1006C00004F0AEFD002800D000BE280003F09AF927
:1006D000300003F0D3FC2068EEE700BE2068EAE7B4
:1006E000024005604904000078060020C83100205F
:1006F00001060000F43100205004002070B52B49A1
:10070000062003F0EBFE0021062003F037FF012056
:1007100005F0CCFC0121062003F030FF8C20800086
:1007200005F0C4FC2149062003F0D8FE2049122020
:1007300003F0D4FE1E490D2003F0D0FE1D490C200D
:1007400003F0CCFE0021062003F018FF0724B92691
:1007500001250021122003F011FF310021410D205D
:10076000294003F00BFF1220012103F007FF0820AE
:1007700005F09CFC013CECD20021122003F0FEFEAF
:100780000121062003F0FAFEAF20800005F08EFC68
:10079000062003F0BBFD122003F0B8FD0D2003F08E
:1007A000B5FD0C2003F0B2FD70BDC0460104002071
:1007B00000040020022004607047C04610B504F019
:1007C0009BF904F0F3FA0121064A13680B43136006
:1007D00003F0F2FD03F05CFDFFF790FFFFF7ECFF85
:1007E00010BDC04614000040F0B5364B364C1F68B3
:1007F00023688C465A699E68DD685168B5606E60F2
:100800001E1DB14256D000255D611368013B136087
:100810001368431C37D0236838185860874216D9AC
:100820002A4B1D6820682B004168041D08334A1CB0
:1008300042D01A005B681E68B142FAD283609C60A5
:100840002B68C2600133546045612B60F0BD204BC2
:100850001D6824682B006168261D08334A1C2ED0B1
:100860001A005B681F68B942FAD2A3609E602B68C9
:10087000E2600133566065612B60164B1A68824254
:10088000E4D91860E2E76346002BC4D0124B21681C
:100890005A6890688A602168C8602168906804314D
:1008A0004160216804319160226853611A68013205
:1008B0001A60CBE75560A6E72A695368BEE72A6944
:1008C0005368D2E7842F0020880700209807002073
:1008D00090070020D82E00205C2F002002480068DE
:1008E000854602F089FE00000000000072B6FEE7B7
:1008F000074B10B55A68FF231340064A9B009B58CC
:10090000002B04D098685B68984703F0E5F810BDA9
:1009100000ED00E0F8060020F0B5C64600B5040082
:1009200003F0E6F86E4A1368013313606D4B984686
:100930001B68002B37D06C4E3368002B29D0E06A3F
:100940006A4A6B4B1968013119606A4B6164196816
:10095000814200D2186083001B189B00D718796869
:100960008868A160E0608D68201D68608860D1584B
:1009700067610131D15003F0C7F83368002B05D00F
:1009800043461B68DA6AE36A9A4215D380BCB846CC
:10099000F0BD43461B68E06ADB6A834201D84346E8
:1009A0001C60524ACDE741460C601268012A06D00D
:1009B000E06A4E4A4C4EC4E703F08EF8E6E74B4A35
:1009C0000121100008305060D060106110001C3010
:1009D00090611062506210003030D06250639063BA
:1009E0001000443010649064D0641000583050659A
:1009F000D065106610006C3090661067506710006C
:100A00008026494280301360D067536191609362C1
:100A1000D161D36311631365516453669165D166E7
:100A2000915104369051043690511000083694309C
:100A300090510436915104369051043690518C20D7
:100A40009367135010000836A83090510436915126
:100A50000436905104369051A020135010000836EF
:100A6000BC30905104369151043690510436905167
:100A7000B420214E13503000082508307060F0601B
:100A800030611E48AC46070008374760C760076101
:100A90001B4F3360BC44654603607D60B16081607C
:100AA000B960FD603D610825AC463B60154FBC4414
:100AB00065467D60FD603D610825AC463B60B960E0
:100AC000114FBC4465463B60104B7D601E60104B6F
:100AD000054E1860B960E06AFD603D6131E7C046CF
:100AE000A829002088070020002F0020A007002050
:100AF000B42B0020B82D0020E42D0020F82D00207C
:100B0000EC2E0020702F00205C2F0020900700208A
:100B100098070020F0B5CE4600B5089C960032003C
:100B200007000D00206BA521994605F0A8FC236B5A
:100B3000043E9C46072366449E432664002D47D00E
:100B40002A782D33E2542B78002B3ED035236A7857
:100B5000E2546B78002B38D03623AA78E254AB7875
:100B6000002B32D03723EA78E254EB78002B2CD0DC
:100B700038232A79E2542B79002B26D039236A793D
:100B8000E2546B79002B20D03A23AA79E254AB7956
:100B9000002B1AD03B23EA79E254EB79002B14D0D6
:100BA0003C232A7AE2542B7A002B0ED03D236A7A1A
:100BB000E2546B7A002B08D03E23AA7AE254AB7A37
:100BC000002B02D03F23EA7AE2543F230022E25472
:100BD000069B092B00D90923002220006261A26232
:100BE0000A32E362E364D31A0021A361563224611E
:100BF0006462583005F043FC094B4A46E365094BF3
:100C000039002366084B3000636602F053FF079BF0
:100C10002060002B00D01C6080BCB946F0BDC046EF
:100C200098670000B86700007867000070B504009E
:100C300041600061914205D8D21AA36901209A420D
:100C40001DD370BD9A4216D3174B251D186803009B
:100C500008334A1C25D01A005B681E68B142FAD2DC
:100C60005368A3609D600368E26001335560606172
:100C700003600020E5E701209942E2D2E4E70B4B54
:100C8000251D1868030008334A1C0AD01A005B6847
:100C90001E68B142E4D31A005B681E68B142F5D207
:100CA000DEE70269DCE7C0468C0700209C070020D5
:100CB000F8B50122DE4657464E464546504BE0B554
:100CC0001A60504B5B68DB05DC0D002B00D191E016
:100CD000EFF3108482F3108801224B4B4B4F1B68BB
:100CE0003A704B4A9146002249460A70494A1668B2
:100CF00090469B1B9B46434B5B68DB0500D176E02F
:100D000084F31088444B00249A465B461B1B9B4689
:100D10005346361901241D686442002D0BD118E09A
:100D20002B7D002B04D0EB689B1B9C4200D91C0040
:100D30002D68002D0DD02B7D002BF9D0EB689E4245
:100D4000EED12B69E869002B4AD12B75AB69984726
:100D5000E6E7A345D9D22B4B5B68DB05DD0D002B05
:100D600042D0EFF31085012383F310884B461B78A4
:100D7000002B13D053461B68002B12D00124644271
:100D80001A7D002A07D01A7D002A04D0DA68921B47
:100D9000944200D914001B68002BF1D11F4B9C42D8
:100DA00000D91E4C01221E4B20201A601D4B341905
:100DB00099461B6805F00EFA4B461C6043461C60C2
:100DC00000233B70184B1E600E4B5B68DB0514D094
:100DD00085F31088F0BCBB46B246A946A046F8BDD4
:100DE000EA689B18EB60B1E702F082FEBEE702F012
:100DF0008BFE87E702F07CFE6EE702F085FEE9E7F6
:100E00005420024000ED00E004210240E0060020F2
:100E1000F0060020EC060020E4060020FFFFBFFFE4
:100E20004821024020210240F40600200122002136
:100E3000F8B52E4B1C682E4B1A602E4B19602E4BAA
:100E40001A602E4B5B68DB05DD0D002B42D0EFF303
:100E5000108582F310882A4B2A4A5A6000229A6031
:100E6000264B5B68DB053ED085F3108801261B21ED
:100E7000254805F025F9254B25481E6003F0B6F9F5
:100E8000244B254A1C60254B254D9C46002313709E
:100E9000244A64441370244B2C601E70174B5B680B
:100EA000DB05DF0D002B1BD0EFF3108786F31088D6
:100EB00001221E4B1E4E2C6820201A60336805F05C
:100EC00089F90E4B34602C605B68DB0505D087F335
:100ED0001088F8BD02F00CFEBDE702F015FEF8E741
:100EE00002F006FEE4E702F00FFEBFE70421024035
:100EF000542002400C2102406020024000ED00E03E
:100F0000F8300020B10C00004404000058200240DA
:100F1000E4060020F4060020E0060020FFFFBFFFEB
:100F2000EC060020F0060020E106002048210240E7
:100F300020210240F0B5DE4657464E464546514B0D
:100F4000E0B51A6883B0013294461A60002A00D1D5
:100F500074E04D4B01931B6800279C4561D34B4BBC
:100F600098461B681B68002B57D0002362469946A1
:100F7000474BBC469A46474B474D9B46009238E04C
:100F8000494659611168013911609A6A002A0ED0E8
:100F9000D969186A56688860186A41601900183162
:100FA0008E4269D0494699621168013911605246F2
:100FB000D96A1268914201D9524611608A005218CA
:100FC0009200AE18706887689860DF6087687C6000
:100FD00084605E61AB580133AB505B461B68DB6AD3
:100FE000994201D901239C4643461B681B68002B8C
:100FF00012D043461B680099DB68DB685A6891424F
:101000003CD35A699868D9681C1D81604860506853
:10101000A042B5D15160B3E767460123019A5B4214
:1010200013601E4B1B68002B00D00127380003B053
:10103000F0BCBB46B246A946A046F0BD134B184AC9
:10104000196810681860116016490A6801320A6050
:101050001A681268002A07D10B4B1A00019301236A
:101060005B421360130076E71B68074ADB68019256
:101070001B68136013006EE7506093E7019B67469F
:101080001A60CEE7842F0020D82E00209007002081
:10109000B82D002088070020A00700205030002035
:1010A00098070020DC2E0020F8B502F021FD264E26
:1010B0003568002D02D002F027FDF8BD234A012734
:1010C000130008335360D3601361214B7F42190032
:1010D00008315960D96019611E4915600A6097602E
:1010E0001D4A9F6013601D60012246231B4CE25481
:1010F0001B4B23601423E363043B236402F0F8FCDE
:10110000216CE36B22684B43D0185B1AD318E36061
:1011100044236260FF22A563E7540133E2542300B5
:1011200018336361E361236223002C332561A362DA
:1011300023636363A060A761E762656202F0E4FC79
:101140004C233460E554B6E7882F0020BC2D0020E6
:10115000D02D00208C0700209C0700200C2F0020A1
:1011600068280020F8B5DE4657464E4645464C4CAA
:10117000E0B5C0220021200005F081F9BD23994689
:10118000BB3B9A464B465246464DE254FF32A521A0
:1011900028002563FF3205F072F90723FD35FF357E
:1011A0009D439846404BAB46256463630025382336
:1011B0003F272000E5542E3B60220021A361E55526
:1011C00024616462583005F05AF9384B384E236672
:1011D000384B0022636638495846E66502F06AFCDF
:1011E00020602000FFF798FBFFF75EFF334B1B6882
:1011F000002B4CD0324CC0220021200005F03FF9DA
:10120000304B52469B4623634B46E254FF32A521A6
:101210005846FF3205F033F95B464246FD33FF3353
:1012200093439B462364284B20006363274B002194
:10123000A3630523E555E362E364A3616561A562E9
:10124000246164625932583005F019F9174B0022B5
:101250002366184B1E4963665846E66502F02AFC71
:1012600020602000FFF758FB1A4B1C6072B61A4B27
:101270001A4A1B68583313600122194B52421A60F4
:10128000184B02321A60184B1D6002F0ABFC174B72
:101290001B68F0BCBB46B246A946A046F8BDC04696
:1012A000102E0020B029002049444C45B8670000AA
:1012B000986700007867000081140000882F0020E4
:1012C000902F0020B82B0020546D722053766300BD
:1012D000691C00008C2F00208807002014060020C5
:1012E000D82E0020002F0020842F00200806002088
:1012F000F0B5DE46454657464E46E0B583B002F0AF
:10130000F7FB554D2B68013B2B602B68002B63D1FD
:10131000524B1B68002B5FD0514B99461B68002B2A
:1013200000D196E04F4B504F9A46504B504E9B4643
:1013300001239C4601974B46DB68DB68D969186A34
:101340009A6A88601C6A61601900546818318C427E
:1013500000D17CE0002199621168013911605A695D
:101360009868D968546881604860181D84426CD0C0
:101370001168013911605146DA6A09688A4201D957
:1013800051460A609100891889008846741861687E
:101390008F689960DF608F68786088605C61434621
:1013A0004146F358013373505B461B68DB6A9A422F
:1013B0001DD36346019A13604B461B68002BBAD1BC
:1013C0002C4B17001A681268002A1AD01B68DB68B9
:1013D0001A68294B1A6017E0002402F095FB2000E0
:1013E00003B0F0BCBB46B246A946A046F0BD4B4692
:1013F0001B68002B9FD11F4B019F1A681268002A9F
:10140000E4D11D4B013A1A601C4E3468002C15D0F3
:101410000123984608E0FFF78DFD002801D04346E0
:101420003B60013C002C08D02B68002BF3D03368C4
:10143000013C01333360002CF6D134603B68002B53
:10144000CAD002F049FB0124C7E7516090E7506021
:1014500080E7054FD8E7C046B02B0020A829002020
:10146000EC2E0020B82D00205030002088070020EE
:10147000A007002090070020D82E0020E82E002092
:10148000F0B54546DE4657464E46924BE0B59A4685
:10149000914B83B09846914B914D0093914B924E56
:1014A0009B462B68002B59D002F022FB4346DB6899
:1014B000DC686369A168E26858688A605160211D30
:1014C000884200D190E0002262611A68013A1A60F5
:1014D0001B68864B854A1B68013B13602B68013BE8
:1014E0002B6002F011FB3068583004F0DDFFBD23A3
:1014F000E35C002B48D0012BD3D1083C6368002B60
:10150000CFDA2268002ACCD15B005B086360784B9D
:10151000774A1B682100013313606368009A9C4678
:10152000136863441360734B1A001B689C42FBD81A
:1015300050681718BC4252D060460818834218D031
:101540000B608A4200D011605B465A461B6801332B
:101550001360FFF7CDFE2B68002BA5D153461B6807
:10156000002B43D03368DB6A002B9AD1624B1B6897
:1015700097E76248006801908342E1D058681B6891
:10158000604448600B60DCE7236B002B06D0083B0F
:101590005A68002A02DA196800294BD0083C6368AF
:1015A000002B00DB7DE72268002A00D079E75B0092
:1015B0005B0863604E4B4E4A1B6821000133136089
:1015C0006368009A9C46136863441360494B1A0091
:1015D0001B689C42FBD850681718BC42ACD18444AD
:1015E000614651601100A7E75A606CE73368DB6A17
:1015F000002B00D055E7404B1B68012B00D950E76A
:101600003F4B404A1B6812689B1A012B00D848E7E1
:10161000374B374A1B680133136053461B68002B56
:101620003DD03368DB6A002B01D1334B1B68FFF7D9
:101630005FFE36E7520052085A602D4A2C49126864
:10164000180001320A605A68009994460A68624498
:101650000A60284A110012689342FBD84F68B946C5
:10166000894401974B452ED06346C3189A420BD04C
:101670000260814200D008605B465A461B68013315
:101680001360FFF735FE89E71C4B1B6801939A42F4
:10169000EED053686344436013680360E9E733683E
:1016A000DB6A002BC3D1144B1B68012BBFD8144B32
:1016B000144A1B6812689B1A012BB8D9124A13608E
:1016C00003F0A6FAB3E7019B08009946CC446346B1
:1016D0004B60C9E7B82D0020702F00200C2E002091
:1016E000AC290020E42E002088070020A829002033
:1016F000B02B0020042F0020A0070020940700201A
:10170000D82E0020842F002084070020F8B54E46F4
:101710004546DE465746E0B5344E05003368013392
:101720003360C36A002B23D0314A9046314A934636
:10173000314A91461A681C69EA626268002A01D03F
:10174000216811602168002900D04A609A681268F7
:10175000002A03D0D868002800D09047083C63686E
:10176000002B02DA2268002A0AD0EB6A002BE1D1B2
:10177000FFF7BEFDF0BCBB46B246A946A046F8BD89
:101780005B005B08636033682100013333604346CC
:1017900042461B6860681B181360184B1A001B68D0
:1017A0009C42FBD857689246BC46E244544519D047
:1017B0000C18A3420BD00B608A4200D011605B462C
:1017C0005A461B6801331360FFF792FDCDE74C4684
:1017D0002468A342EFD05C681B68A446604448605C
:1017E0000B60E9E7604411005060E1E7B02B002096
:1017F0000C2E0020E42E002094070020042F00204F
:10180000064B10B51B68002B02D1FFF793FB10BDF0
:10181000034A0020136801331360F8E7B02B00205F
:10182000E82E0020C368F0B5DB68D869196A9A6AA7
:1018300081604860180054681830844252D00021FA
:1018400099621168013911602C4A1268002A2BD163
:101850009968D8685A698860D8681D1D41605168C8
:10186000A94241D0116801391160254AD96A10682E
:10187000814200D911608A00224C52189200A618A9
:10188000706887689860DF6087687D6085605E61EA
:10189000A3580133A3501C4B1A681268002A1BD1AD
:1018A0001A4B013A1A600CE0194A51688C68D961E8
:1018B0001C628C686060886011689A6201311160F6
:1018C000D96A144B00201B68DB6A8B4203D20122C9
:1018D000114B01301A60F0BD1B68DB681A680B4BB6
:1018E0001A60EEE75160AAE7116850600139116093
:1018F000034AD96A10688142BDD9BBE7B02B0020EA
:10190000B82D0020A007002090070020D82E00202E
:10191000EC2E00208807002050300020F0B5DE4675
:10192000454657464E46E0B583B0040002F0E0F865
:101930004523E55C6DB2002D14DD2600544B0127D4
:10194000984624360BE03000FFF76CFF002801D0EA
:1019500043461F60013DEBB26DB2002B02D0636ABB
:10196000002BF0D14523FF22E25402F0CDF802F023
:10197000BFF84423E25C52B2002A7CDD454B1500DF
:101980009A46454B454E9B46454B019343E099682B
:10199000D8685A698860D8684160191D8C465168BA
:1019A000614566D01168013911605A46D96A1268DA
:1019B000914201D95A4611608A003A485218920061
:1019C00091468046C8444046009262464068876817
:1019D0009860DF6087687A608260424648465A6154
:1019E000304B304A1B5801331350019B1B681B6856
:1019F000002B37D12C4A013B13602C4B1B68DB6A50
:101A00008B4203D20122224B1A601A60013DEAB2D6
:101A10006DB2002A2FD02369002B2CD0E369DB683C
:101A2000D869196A9A6A8160486018005768183046
:101A3000874215D000219962116801391160524620
:101A40001268002AA3D072689168DA6119629168FD
:101A5000486090603268D96A01329E623260CCE799
:101A60005160E7E7019B104A1B68DB681B68136045
:101A7000C3E7506096E74423FF22E25402F044F8A3
:101A800003B0F0BCBB46B246A946A046F0BDC04676
:101A900050300020B02B0020B82D0020EC2E00206C
:101AA00090070020A0070020D82E002088070020E3
:101AB000F0B557464E46DE464546674BE0B59B4679
:101AC000664B0027994653460400BA461500464621
:101AD0001F0083B0019102F00BF8A36B002B00D024
:101AE00097E0002D7DD05D4B98465346002B04D1E6
:101AF0005B461F684B46C8461E6802F005F8584A08
:101B000013680133136001F0F3FF4422A35C5BB25E
:101B1000013301D10023A3544522A35C5BB20133FE
:101B200001D10023A35401F0EFFF01F0E1FF434690
:101B30001B686A1C0DD0484A1168B94201D0B342F3
:101B40003CD2991BA94239D2ED1A43461768AD1908
:101B50001E6801F0D9FF01F0CBFFA36B002B4AD127
:101B600001F0D2FF242398463E4BA0441868182366
:101B70009C4623008169824684442C334A1C42D00F
:101B80001A005B6818688142FAD250466146C36108
:101B900099604346026251608362636A01210133A6
:101BA00028006362FEF720FE2000FFF7B7FEFFF774
:101BB0009FFB00282AD001239A468CE701F0A4FF5E
:101BC0002000FFF7ABFEFFF793FB01F091FFA36B43
:101BD000002B06D001F098FF01F08AFFA66B002EC3
:101BE00018D101F091FF002003B0F0BCBB46B24613
:101BF000A946A046F0BD01F087FF2000FFF78EFE4A
:101C0000FFF776FBD7E7626B5368BFE701F064FF2D
:101C1000D1E71E00226C002A08D0E3689918A36857
:101C2000E16099420BD2019804F020FC013EA663CA
:101C30002369002B06D101F067FF0120D4E721685A
:101C4000E160F0E720001030FFF7ECFD0028F2D053
:101C500001F042FFEFE7C046DC2E0020842F002079
:101C6000B02B002088070020D54BF0B5DE46574644
:101C70004E4645469A46D34BE0B59B46D24B89B07B
:101C80009846D24B994653461B6801261D68002D85
:101C900002D00026DB681D68CD4BCD4A1B6801339E
:101CA0001360CC4B1F685B461B689F4200D29AE0D2
:101CB0005B461F60002E00D13BE143461B681E6857
:101CC00073425E414B461C6801F012FF4422A35C44
:101CD0005BB2013301D10023A3544522A35C5BB264
:101CE000013301D10023A35401F00EFFA36B002B9D
:101CF00000D1DEE101F0FCFE45232700E55C012672
:101D00006DB22437002D0CDC0EE03800FFF78AFDA1
:101D1000002801D0B04B1E60013DEBB26DB2002B2C
:101D200002D0636A002BF0D14523FF22E25401F078
:101D3000EBFE01F0DDFE44232700E55C01266DB2D9
:101D40001037002D0CDC0EE03800FFF76BFD00288B
:101D500001D0A14B1E60013DEBB26DB2002B02D051
:101D60002369002BF0D14423FF22E25401F0CCFE82
:101D7000FFF7BEFA002800D1BDE14B4600221868EB
:101D800004A9FFF795FE002800D17CE7049B002BF7
:101D900000DAB3E0069F7A69002A0ED0B968F868C5
:101DA000546888604160391D8C4200D17FE1002178
:101DB00079611168013911601268864A16685A46BD
:101DC0001268964200D2F4E05A461660092BD4D825
:101DD000824A9B00D3589F46012293432732A35443
:101DE0002000236A984753461B681A68002A00D1CE
:101DF000D4E0DB68DC681A68A0686369E168261DC6
:101E0000816048605868864200D190E0002161619D
:101E10001968013919601B6828230421E35C194201
:101E2000DAD0A3692461D518D24365609A4213D2EF
:101E300043461A6813000833691C6DD019005B68AB
:101E40001868A842FAD9A3609E601368E160013364
:101E50004E6062611360C3E7236A200098472B003D
:101E6000DB43A2692461AD1865609A42F4D9DFE7CB
:101E700028220123B85C05990343BB54BA693F612A
:101E80008B187B609E4200D27CE1711A8A4200D896
:101E900034E1424610683C1D02000832591C00D152
:101EA000BEE1110052681568AB42FAD24B68BB60C4
:101EB0009C600368F96001334C60786103605CE703
:101EC000282101227B5C380013437B5405993300A1
:101ED000B96132007118FEF7A9FE4EE728210122F0
:101EE0007B5C93437B5448E72823FB5C9A0700D430
:101EF00059E1012293432732BB543EE7079B0193EC
:101F0000069B01990293059B029803939847049BB3
:101F1000002B00DA31E73DE711694B68A3609E6052
:101F20001368E16001334E606261136058E75960E5
:101F30006CE7BD4200D9C5E6FFF7DAF953461B68E6
:101F4000DB68DC686369A168E26858688A60516090
:101F5000211D884200D165E1002262611A68013AC0
:101F60001A601B682823E35C5A070DD401229343AF
:101F70002732A3542000236A9847FEE6A369200075
:101F80009C46236A65449847A3693A00E9182000F3
:101F90002B00FEF74BFE0028F0D1EBE741465246FE
:101FA00009681160424613605B461F60FFF7A0F9A5
:101FB000E3E6524612681168002958D001971BE0E9
:101FC0008C070020D02E00209C070020882F0020A6
:101FD000B02B0020842F0020503000200466000029
:101FE000012293432732A354236A20009847534683
:101FF0001A681368002B38D0D368DC681A68A068A8
:102000006369E168271D81604860586887424CD049
:10201000002161611968013919601B6828230421B6
:10202000E35C1942DCD0A36924619D18D24365604A
:10203000934223D943461A6813000833691C29D0F8
:1020400019005B681868A842FAD9A3609F601368FA
:10205000E16001334F6062611360236A200098479A
:1020600053461A681368002BC6D1019F049B404653
:1020700051460068086041460A60A5E6236A2000D0
:1020800098472B00DB43A2692461AD1865609A4232
:10209000F4D9CFE711694B68A3609F601368E160D2
:1020A00001334F6062611360D7E75960B0E7506059
:1020B0007DE65F4AA36A12689968D3615C4AE81BAF
:1020C000126811625A4A9968126818324A60584A6E
:1020D000126818329A602200554B24321B689A62AB
:1020E000636A01336362002E01D001204042310057
:1020F000FEF77AFBFEE501F0EFFC3EE6042101422B
:102100000CD1012398432733F85438003B6A984791
:1021100033E63B6A380098472300BA699C187C6014
:102120003F61A64218D3F31A9342F2D2434619688C
:10213000381D0B000833621C15D01A005B681D683F
:10214000AC42FAD25368BB6098600B68FA60013306
:10215000506079610B60D8E79E4206D35346381D24
:102160001968631C06D10A69ECE7A342D1D953462A
:102170001968381D0B0008331A005B681D68AC42F3
:10218000FAD2DFE78E4201D29942B7D9524610689F
:102190003C1D02000832591C42D0110052681568DB
:1021A000AB42FAD282E6083F7A68002A00DBE4E517
:1021B0003B68002B00D0E0E51E4B520052087A60CD
:1021C0001A68380001321A601B4B7C681B681A19A8
:1021D0000193194B1A60194A110012689742FBD8F3
:1021E0004D684E19B7421FD003199A420CD00260B5
:1021F000814200D00860124B114A1B6801930133E1
:102200001360FFF775F8B8E50E4B1B6801939A420F
:10221000EDD053689C461368644444600360E7E76C
:10222000016943E65A6097E6641908004C60DBE7F1
:1022300088070020B02B00200C2E0020042F002047
:10224000E42E00209407002070B5002821D0254AF4
:10225000C16A1368DB6A994214D28369002B04DBDC
:102260001368DC6A0A231B1B83618B005B181E4901
:102270009B004469CB189C420DD01368DB6AC36293
:10228000012005E01368C06CDB6A9842804140423F
:1022900070BD0020FCE78668C368051DB3605E6002
:1022A0006668B5421CD02368013B2360236813682D
:1022B000DA6A0E4BC2621C68A24200D91A6093000F
:1022C0009B189B00CC18626896688260C66096680E
:1022D00075609560CA58446101320120CA50D7E741
:1022E0006360E0E788070020A0070020B82D0020E9
:1022F00070B5002830D0036DC26CC16A013B036524
:10230000914229D0002B27D143698568C168041DFB
:10231000A9604D605D68AC4220D019680139196030
:102320001B680A239B1A83610D4BC26219688A429B
:1023300000D91A6093000B499A1892008D186B68A7
:102340009E688360C6609E6874609C608B5845611F
:10235000013301208B5000E0002070BD5960DCE7A4
:10236000B82D0020A0070020F0B5DE464E464546B9
:1023700057460400E0B5B74B83B015009B4601916A
:1023800001F0B6FBA36BE26B0026934200D28AE019
:10239000002D00D132E1002E00D19DE0AE4E01F0C3
:1023A000B3FBAE4A13680133136001F0A1FB442272
:1023B000A35C5BB2013301D10023A3544522A35C8B
:1023C0005BB2013301D10023A35401F09DFB01F066
:1023D0008FFB33686A1C00D194E0A14A0098116811
:1023E000814201D053457ED25146591AA9427AD230
:1023F000ED1A13685544009333689A4601F084FB44
:1024000001F076FBA36BE26B934200D183E001F015
:102410007BFB01F06DFB4523E65C213B984676B2E1
:102420000127A044002E0CDC0EE04046FFF7FAF92D
:10243000002801D05B461F60013EF3B276B2002B4C
:1024400002D0636A002BF0D14523FF22E25401F051
:102450005BFB01F04DFB4423E65C343B984676B2CF
:102460000127A044002E0CDC0EE04046FFF7DAF90D
:10247000002801D0774B1F60013EF3B276B2002BEB
:1024800002D02369002BF0D14423FF22E25401F053
:102490003BFBFEF72DFF012601F02AFBA36BE26B4D
:1024A000934200D374E7226CA56B002A00D0A9E008
:1024B0002668002E00D1BEE00135A563636A002BBB
:1024C00000D1B4E020002430FFF7ACF9002800D19F
:1024D000ADE001F001FBAAE0614B5F4E1B68009389
:1024E00033689A465BE701F00FFB2000FFF716FA0E
:1024F000FEF7FEFE002003B0F0BCBB46B246A94684
:10250000A046F0BD01F000FB01F0F2FAA36BE26B14
:10251000934200D07BE701F0F7FA524B27001A688C
:102520002300160090699446103718361833411C62
:1025300061D019005B681A689042FAD26246D36192
:102540009E602369116201334E6028009762012169
:102550002361FEF749F901F0CBFA4523E65C76B238
:10256000002E19DD213B98463A4BA044994643463C
:10257000A8461D000CE02800FFF754F9002802D0FF
:102580004B4601221A60013EF3B276B2002B02D014
:10259000636A002BEFD145464523FF22E25401F048
:1025A000B3FA01F0A5FA4423E65C76B2002E14DDFE
:1025B000284B9946012398460CE03800FFF732F982
:1025C000002802D04B4642461A60013EF3B276B272
:1025D000002B02D02369002BEFD14423FF22E254C9
:1025E00001F092FAFEF784FE002800D053E701F0D4
:1025F00073FA012650E7216A4B68A0E701F084FADC
:10260000002078E70199606803F030FF226C63686E
:102610009446A26863446360934200D24CE7236807
:102620000135A5636360636A002B00D04AE701F0BF
:102630006BFA01205FE7A0680135FFF759FEA5633B
:10264000636AA660002B00D03CE7002800D040E77A
:10265000EDE7C04650300020842F0020B02B002032
:10266000DC2E00208807002070B5002808D0C36C3D
:102670008B4206D3C26A9A4202D0016D012905D06D
:1026800070BDC26A0B009A42F7D1F9E78169C36253
:10269000002902DB0A21C91A816191008A181449B4
:1026A000920044698A189442EAD18668C268051D7E
:1026B000B26056606668B54218D02268013A22605E
:1026C00022680C4A14689C4200D213609A00D31806
:1026D0009B00CC18626896688260C66096687560D8
:1026E0009560CA5844610132CA50C9E76260E4E7A4
:1026F000A0070020B82D00200023F0B5DE46574685
:1027000045464E469B46754BE0B59A46744B0400D1
:1027100000279946434683B00D00B8461F0001F0DC
:10272000E7F9A36B002B72D1002D00D1ADE0434639
:102730006B4E002B04D153464E461B6837680193FD
:1027400001F0E2F9674A13680133136001F0D0F930
:102750004422A35C5BB2013301D10023A354452280
:10276000A35C5BB2013301D10023A35401F0CCF987
:1027700001F0BEF933686A1C0ED0584A01981168FE
:10278000814201D0BB424FD2D91BA9424CD2ED1A93
:102790001368ED193768019301F0B6F901F0A8F953
:1027A000A36B002B59D101F0AFF92368002B00D1A6
:1027B00076E024239C464C4BA44418682300060072
:1027C0008169804618362C334A1C63D01A005B6836
:1027D00018688142FAD24046C3619E606346026235
:1027E00056608362636A0121013328006362FDF74A
:1027F000FBFF2000FFF792F8FEF77AFD00284CD08F
:102800000123984601F074F9A36B002B8CD0013B97
:10281000A3632368002B55D02369002B49D101F015
:1028200073F901239B4610E001F06EF92000FFF7D9
:1028300075F8FEF75DFD01F05BF9A36B002B14D179
:1028400001F062F95B46002B13D1584603B0F0BC8F
:10285000BB46B246A946A046F0BD01F055F920009E
:10286000FFF75CF8FEF744FDCAE701F04DF90025DB
:10287000C6E701F03DF9616A002903D00A21236B04
:102880001B68C91AA068FFF7EFFE01F03DF90023AD
:102890009B46DAE7626B53689EE701F01DF9AFE7EC
:1028A00001F026F9A068FFF7CFFC834601F02CF970
:1028B0007FE720001030FEF7B5FF0028AFD001F011
:1028C0000BF9ACE7084B1A68002A03D019680A6DA7
:1028D00001320A651B68A3609EE7C046DC2E00201B
:1028E000842F0020B02B002088070020F8B5CE46AA
:1028F0004746494A80B5136801331360474A146854
:10290000002C41D00026002837D007221023024097
:102910009B1ADA43824230D3C01800282DDD404B89
:1029200098461B689C46834227D33E4F3D003B6838
:1029300004E01A68002A04D01D001300596881427F
:10294000F7D3A34258D01E001A6808362A600A1A24
:10295000102A3BD862464046521A02603248046848
:10296000A24200D2026080221206114300221A60A5
:102970002E4A5960136801331360FEF7B9FC30002A
:10298000C0BCB946B046F8BD294907340C4216D13F
:1029900080239B01CC180D000B000021214E083C28
:1029A000716035600726B44314601F4AE31A136050
:1029B0001B4A6160216013606B602C60A2E7CB1D35
:1029C000A3438024A4011D000C19E6E71D186A60CA
:1029D0003A005860110012689542FBD848680F18F9
:1029E000BD4214D068682F18BA4207D02A60A942A5
:1029F00000D00D605968ADE70026BEE7A242F5D0D1
:102A000054681268A146484468602A60EFE76D6820
:102A1000401948600D00E6E7B02B00209407002025
:102A20000C2E0020042F0020D42E0020E02E0020A9
:102A300068080020F0B5050008006843C64603009A
:102A40000E00170000B551333DD85030FFF74EFF50
:102A5000041E38D046230022C2540300002E37D172
:102A60002360E5632664002D2AD000232A0C9846B3
:102A7000330C34D1002A40D101F03AF8216CE36BD9
:102A800022684B43D0185B1AD318A060626040469E
:102A9000E3604422FF23A063A3540132A354230024
:102AA00018336361E36123622300463A2C332061CB
:102AB000A261A362E26223636363606201F024F8AF
:102AC0004C23E75400E00024200080BCB846F0BD51
:102AD00050332360E5632664002DF1D0C5E7002A5A
:102AE000EED12A1CB6B2ADB2754392B29BB253433B
:102AF0002D0C5D192D0CBFD0E2E7131C321CF1E741
:102B000070B5002806D008384368002B02DA026846
:102B1000002A00D070BD194A5B005B08436013684F
:102B2000010001331360164A446813681B191360CF
:102B3000144B1A001B689842FBD855685619B042CE
:102B400018D0081983420AD00B608A4200D0116065
:102B50000D4A136801331360FEF7CAFBDAE70B482E
:102B600000688342F0D058681B68844664444C6017
:102B70000B60EAE7641911005460E2E7B02B002013
:102B80000C2E0020042F0020E42E002094070020AB
:102B900070B5040000F0ACFF3C4D002C65D06369BB
:102BA000A168E268201D8A605160596888425AD045
:102BB000002262611A68013A1A601B68A36A002B3E
:102BC0000ED0E269216A5E6891604A602200183284
:102BD000964235D00022A2621A68013A1A601B6838
:102BE0002B4A1368013313602B68A3422AD0294A69
:102BF0001368013B1360284B1A681268002A1BD027
:102C00001B68DB681A68254B1A6000F07DFF2B6893
:102C1000A34209D02868583003F046FCBD23E35C8A
:102C2000002B24D0012B2CD01D4B1B68002B02D075
:102C30002B68A34222D070BD184B013A1A60E4E71A
:102C40005960C7E7174B5A689168A260E1609168C4
:102C5000486090601A68636101321A60124A136812
:102C600001331360D1E75A60A2E72C6897E7206B25
:102C7000FFF746FF2000FFF743FFD5E700F02CFFEA
:102C8000D9E72000FFF73CFFCEE7C04688070020C9
:102C9000B42B0020A829002090070020D82E002067
:102CA000002F0020702F0020AC290020FEE7C04636
:102CB0000022434B70B5434C1A60236842491B6B9A
:102CC0001A688A4202D1596891426AD02068216804
:102CD0003431FFF7EBFF3D4D3D4829688B005A1812
:102CE00092008258002A44D14E1EB20093199B00D4
:102CF000C358002B4FD18E1EB20093199B00C358AE
:102D0000002B48D1CE1EB20093199B00C358002B54
:102D100041D10E1FB20093199B00C358002B3AD12A
:102D20004E1FB20093199B00C358002B33D18E1F46
:102D3000B3009A1992008258002A3BD1CE1FB300EB
:102D40009A1992008258002A34D1013EB3009A1990
:102D500092008258002A2DD10A00093A93009B184C
:102D60009B00C358002B27D10A398B005A189200B8
:102D700082585B189B00C618726808335268C318E3
:102D800072609A420AD0D368124A2360296023688D
:102D90005833136070BD31001300EAE75268726067
:102DA000F1E79A688A4200D090E7DB68934200D04E
:102DB0008CE790E73100DCE711009300D9E7C046CB
:102DC0005030002088070020A5A5A5A5B82D00201B
:102DD000A007002014060020054B10B51B68002B2F
:102DE00003D00122034B1A6010BDFFF761FFFBE720
:102DF000B02B002050300020F8B5040000F078FE21
:102E0000394E002C61D06369A068E168221D8160A1
:102E100048605868824256D00021616119680139C2
:102E200019601B68A36A002B0ED0E169206A5D68F7
:102E300088604160210018318D4221D00021A162BB
:102E40001968013919601B68284D6B689968A3607F
:102E5000E16099684A609A60BC222B686561013321
:102E60002B60A35C012B01D10023A35400F04CFE86
:102E70001F4F3B68002B05D13368A34213D0F8BD28
:102E80005860DBE700F034FE1A4B1A681268002A1B
:102E90001DD01B68DB681A68174B1A6000F034FEFF
:102EA0003368A342EBD13B68002B16D1134A296843
:102EB000126891420FD0124B1B68002B10D00122D8
:102EC000104B1A60DBE75960A6E734689BE70A4BB2
:102ED000013A1A60E2E73360D1E700F0FDFDCEE78A
:102EE000FFF7E6FECBE7C046880700205C2F0020F6
:102EF000002F002090070020D82E0020A8290020B5
:102F0000B02B00205030002070B504000E000028C7
:102F10002DD00123002546228354C363006005643D
:102F200000F0E6FD216CE36B22684B43D0185B1A7E
:102F3000D3186260E3604422FF23A563A060A3541A
:102F40000132A35423001833463A6361E3612362DC
:102F50001433A2612561A362E26223636363656245
:102F600000F0D2FD4C230322E254002E01D12000B8
:102F700070BD002200212000FFF7F6F9F7E7C046F8
:102F8000F8B52A4B04005B680800DB050ED1FA2275
:102F9000002392000021FDF725F901002000FFF732
:102FA000ABFB0138431E98414042F8BD00F0B6FD2E
:102FB000A56B0700002D04D100F0B4FD01204042B4
:102FC000F3E74423226CE65C76B2002A08D0E3687B
:102FD0009918A368E16099421BD2002003F046FAD9
:102FE000013DA563731C0CD0114B1B68B3420BD978
:102FF0004423013676B23800E65400F093FD0020F9
:10300000D3E72369002B07D1380000F08BFD0020A7
:10301000CBE72168E160E0E720001030FEF702FC1A
:10302000380000F07FFD0020BFE7C04600ED00E063
:10303000A8290020154B70B55B680400DB0504D19E
:1030400000220021FFF790F970BD00F067FDA36B2F
:10305000E26B050093420DD24521625C013352B20E
:10306000A363531C0AD00A4B1B68934202D9013256
:1030700052B26254280000F055FDE5E7636A002B68
:10308000F8D020002430FEF7CDFBF3E700ED00E0A0
:10309000A8290020F8B5264B04005B68DB05DD0D90
:1030A000002B3AD0EFF31085012383F31088214BD6
:1030B0001B78002B10D0A2681F4B94461B681F4A38
:1030C0006344E360012323751370194B5B68DB05D0
:1030D00020D085F31088F8BD194B174F194E38686A
:1030E00031681A681B68821ACB1A9A4218D8A368EA
:1030F000091A1A18E260012222758B42E5D2124B9E
:10310000E468124F1A6020203B6803F063F83C60CB
:103110003460DAE700F0F8FCDDE700F0E9FCC6E730
:10312000A2683B6894466344E36001232375CCE7BF
:1031300000ED00E0E006002004210240F00600203F
:10314000F4060020EC060020482102402021024025
:1031500070B504001D00002814D0002B21D06B682E
:10316000A2602361AB68A161E361002323750E4B6C
:103170001B78002B08D021000C4801F041F82B7877
:10318000002B0AD1200070BDFDF750FE210007483A
:1031900001F036F82B78002BF4D02000FFF77AFFEF
:1031A000F0E7034DDBE7C046E1060020E40600201F
:1031B000D4060020F8B5CE4647462F4B04005B6886
:1031C00080B5DB05DD0D002B50D0EFF3108501231A
:1031D00083F3108800232375284B1B78002B0CD019
:1031E0000122274B1A70244B5B68DB053BD085F32B
:1031F0001088C0BCB946B046F8BDE368214C2268CF
:103200009342F0D1204A214F16683A683968B21AC1
:103210005B1A9A42E7D21E4B1B68002B29D0012172
:1032200049421A7D002A07D01A7D002A04D0DA68A4
:10323000921B914200D911001B68002BF1D1154B54
:10324000994216D80122144B88461A60134B20204D
:103250009946B0441B6802F0BDFF42464B461A60D7
:1032600022603E60BFE700F04FFCC2E700F040FC88
:10327000B0E70849E6E7C04600ED00E0E0060020C0
:10328000F0060020EC06002004210240F406002095
:10329000E4060020FFFFBFFF48210240202102403A
:1032A000F8B5114B04005B680E00DB051500DF0D5F
:1032B000002B0DD0EFF31087012383F310880A4B06
:1032C000A661E5615B68DB050AD087F31088F8BD6D
:1032D00000F00EFC044BA661E5615B68DB05F4D1F0
:1032E00000F012FCF3E7C04600ED00E00022014BC5
:1032F0000CC07047006CDC020120704710B502F072
:1033000069FF10BD70B504000E001D0084B00028D8
:103310001DD0002B1ED059681B79FF2B2DD0184BC8
:103320001B68B34201D0C02925D029681548B300D5
:103330001C5030006260A1602660134902F0C8FE94
:103340003000297902F0DCFE2B7A002B0FD120000F
:1033500004B070BD01210020494201230090019179
:1033600069466D460B72002180236B60DEE73000FA
:1033700002F01CFFEBE70024E9E72968F4E7C04608
:10338000F0050020F8060020F1080000084B10B5F9
:103390005B68DB05DC0D002B06D0EFF31084012306
:1033A00083F31088200010BD00F0A2FBFAE7C046AE
:1033B00000ED00E010B502F0F9FE10BDEFF3108053
:1033C00043425841C0B27047002805D00023036033
:1033D000013B4360023303727047C046054B10B592
:1033E0005B68DB0502D080F3108810BD00F08CFB19
:1033F000FBE7C04600ED00E0F0B5C646684B00B5FF
:103400005B68DB05DC0D002B32D0EFF31084012369
:1034100083F31088634B1B68002B03D1624B1B683E
:10342000002B08D05E4B5B68DB051ED084F3108850
:1034300080BCB846F0BD5D4D2B68002BF2D15C4BD3
:1034400004261B685B4B1B6801F0DCFB02231A009F
:1034500002409046064003420DD0002EE2D101F01A
:103460009DFC4F4B5B68DB05E0D100F04DFBDFE7D7
:1034700000F03EFBCEE701F07BFD0028D2D04E4BA2
:103480004E4A1B681768002B37D14D4A4D4B1968BF
:103490004801401A80004018C000904200D9100036
:1034A000FA235B009842D8D9474A13680133136066
:1034B000464B38181E6801F0CBFC454B1E603F4B55
:1034C0001868C01B00F0AEFE424F434A3B681268CA
:1034D000C3180600934259D00022052138683B4B9F
:1034E00086193E601A603D4A13680B431360384BDF
:1034F0003B4A1A60FDF7FCFE94E7DA073BD54046ED
:10350000384A2F491268D21B9142404141420A4039
:10351000990708D534492A480968C91B814233D81C
:103520008A4200D90A0059070AD53049B80009680B
:10353000091A2348814225D889088A4200D90A00FD
:1035400019070AD52A49B8000968091A1C48814296
:1035500016D889088A4200D90A00DB0696D5254B81
:10356000B9001B685B1A16498B4207D89B089A4220
:103570008CD91A008AE701225242C9E7002285E766
:103580000022EAE70022DBE70022CCE700F0B0FAF5
:103590002B68013E01332B6000F0B6FA9CE7C04671
:1035A00000ED00E0EC2E002050300020E82E00203E
:1035B0005C2F0020A8290020442002400421024062
:1035C000FFFFBFFF84070020B02B002018E000E0C1
:1035D00014E000E0842F0020D82E002010E000E04E
:1035E0007FBB00004C210240502102405421024088
:1035F000582102405C21024070B582B002F094FE76
:1036000072B6BFF34F8FBFF36F8F1E4801AB83427B
:1036100008D96B46DA1C121A92080132A5219200D1
:1036200002F02DFF1848194B984207D2013B1A1A95
:10363000920801320021920002F021FF144915483E
:10364000814209D0144B984206D2013B1A1A9208C3
:103650000132920002F00AFF0023104D104E019338
:10366000761BB61006D0002408CD0134984701948B
:10367000B442F9D10B4B0C4A1A60FCF7ABFE02B016
:1036800070BDC04650340020780600205034002021
:10369000E067000020040020780600207465000028
:1036A0007465000008ED00E0000000007047C046AF
:1036B00010B5002903D008390868FFF721FA10BDBA
:1036C000020010B5034B13CB13C203CB03C200207F
:1036D00010BDC046F4050020012902D80161002078
:1036E00070471620FCE7C0460B685A1E082A02D80D
:1036F0000360002070471620FCE7C0468160002070
:103700007047C046F0B546464F46D646C0B50D0098
:10371000070090461E0084B0002900D176E03420D6
:10372000FFF7E4F8041E00D177E0296986610B00F9
:103730005A1E934103744346436100232A68C360C1
:103740008360C3610362426083620363C3620029D2
:1037500065D03C4B01261B68002B4ED12B68994647
:103760002B899B0898009A46FFF7C0F8051E32D0B7
:10377000C020FFF7BBF88046002829D0C0220021D6
:1037800002F07DFE434641461D630022BD23CA541C
:103790004B4652462C48029100932C492300019439
:1037A000FDF7B8F94046FDF7B7F82568002D46D07B
:1037B00000F09EF96C6500F0A7F900253C60012E31
:1037C00018D1280004B0E0BCBA46B146A846F0BD06
:1037D0002800FFF795F9A068002803D04623C35CB2
:1037E000002B29D020000024FFF78AF90C253C602B
:1037F000012EE6D0FDF77CFDE3E7154B1E68724213
:1038000056411A68760001321A60A7E73420114D3C
:10381000FFF76CF8041E00D087E70C25D1E70322E0
:103820000120FFF707F9A060002800D091E72000F1
:10383000FFF766F90C25C4E7FFF762F9D2E7064BFC
:103840001D68B5E7002F0020D93800002C66000065
:10385000B02B0020F40500208807002070B51D4E15
:1038600005003468002C31D000F042F9646D00F09E
:103870004BF965623568002D2AD000F039F96D6D7D
:1038800000F042F90123EB61A36A002B08D01A680B
:103890001969986891625B689847A36A002BF6D112
:1038A0002000FDF733FF237C002B08D100220021EC
:1038B000A068FEF759FD0020FFF79EFA70BD2000BA
:1038C000FFF71EF90020FFF763F9F7E73468CBE74D
:1038D0003568D2E788070020030010B55B6980696E
:1038E0009847FFF7BBFF10BDF8B580230700150010
:1038F0005B029A423CD25020FEF7F8FF041E2FD004
:1039000000264623C6541E4B0060C363066400F0C5
:10391000EFF8216CE36B22684B43D0185B1AD31885
:103920006260E3604422FF23A663A060A3540132D7
:10393000A35423001833463A6361E36123621433CE
:10394000A2612661A362E26223636363666200F0A0
:10395000DBF84C2302220020E254A5633C60F8BD52
:10396000386002F07DFD1C23036001204042F6E731
:1039700002F076FD1623036001204042EFE7C046C7
:10398000FFFF00001D4B70B55B68DB0506D1002210
:1039900000210068FEF7E8FC002070BD046800F01C
:1039A000BDF8A36BE26B0500934211D24521625C26
:1039B000013352B2A363531C0FD0114B1B689342C7
:1039C0000ED9013252B2625400F0ACF80020E4E7A4
:1039D00000F0A8F801204042DFE7636A002B04D121
:1039E000280000F09FF80020D7E720002430FDF7E2
:1039F00019FF280000F096F80020CEE700ED00E067
:103A0000A8290020012110B500684942FEF774FE84
:103A1000002010BD114B10B5984218D8104A1368F9
:103A2000013313600F4BFA219C4689006044FCF778
:103A30002FFB00210130FCF7D7FEFDF759FC041ED7
:103A400003D100F049F8200010BD0024FBE702F08C
:103A500007FD0124162364420360F4E73F420F0090
:103A6000B02B0020E7030000002382B0019372B660
:103A7000019B002BFCD002B07047C0460000000044
:103A80000B4A13681868203080F30988022080F3FD
:103A90001488BFF36F8F3FBCAE4608BC04BC62B64F
:103AA0001847C046C046C046C046C046C046C0468D
:103AB0008807002010B58024031F64041C60043BA9
:103AC00019600349043B1960143B40381A6010BD6B
:103AD000693A00007047C0468022044B52051A60C4
:103AE000BFF34F8FBFF36F8F7047C04604ED00E008
:103AF00072B6044A136801331360BFF34F8FBFF3EC
:103B00006F8F70470C060020034A1368013B136057
:103B1000002B00D162B670470C060020EFF3108036
:103B200072B6704780F310887047C04600000000EE
:103B3000EFF309800E4B1A6820381060F0C044463D
:103B40004D4656465F46F0C008B572B6FFF744F9D9
:103B500062B60CBC116808681030F0C8A046A946CF
:103B6000B246BB4680F309882038F0C81847C046E3
:103B70008807002010B5FFF7D1FF0400FDF740FED5
:103B8000002803D08022034B52051A602000FFF763
:103B9000C9FF10BD04ED00E00A4B0B4A0B491A6047
:103BA0005E220B4BFF321A600A4BFF3A1A6000226A
:103BB000094B1A600A60094A0949116007221A6014
:103BC0007047C0465830002080BB000018E000E07D
:103BD0005C3000205430002010E000E014E000E0F1
:103BE0007FBB0000FF220E4B1204196810B50A4378
:103BF0001A60FF220024196812060A4382B01A6074
:103C0000FFF7CAFF074B1C60FFF73AFFFFF7E4F826
:103C1000019472B6019B002BFCD0002002B010BDB5
:103C200020ED00E00C060020F0B5D6464F46464693
:103C3000C0B54B788C46402B00D9BBE06246303B88
:103C40001B019278DBB25BB2402A00D9BBE0303A6C
:103C500052B2134362469149DBB24B70D778402F82
:103C600000D9BBE06246303F3F011279FFB27FB21C
:103C7000402A00D9BBE0303A52B217436246FFB245
:103C80008F705679402E00D9BBE06246303E360137
:103C90009279F6B276B2402A00D9BBE0303A52B2FD
:103CA00016436246F6B2CE70D579402D00D9BBE0FE
:103CB0006246303D2D01127AEDB26DB2402A00D934
:103CC000BBE0303A52B215436246EDB20D71547A00
:103CD000402C00D9BBE06246303C2401927AE4B229
:103CE00064B2402A00D9BBE0303A52B21443E2B287
:103CF0004A7192466246D27A402A00D9BBE06446B5
:103D0000303A247B1201D2B2A04652B2402C00D9E4
:103D1000BBE030246442A146C844444664B2224316
:103D2000D2B28A7190466246527B402A00D9B0E0F6
:103D3000303A1201D2B26446A47B52B2A446402C5F
:103D400000D9A4E030246442A146CC44644664B265
:103D50002243D2B2CA71D908017099088C46012158
:103D600064460C4044705C080C4019408470C1707B
:103D70002C04310621435446240221434446214366
:103D8000544607718160027340464549CB5C5F40F1
:103D9000CB5D5E408B5D5D404B5D5C400B5D4340A9
:103DA000CB5C5A40885C43425841E0BCBA46B146BD
:103DB000A846F0BD6246373B1B019278DBB25BB28E
:103DC000402A00D843E7373A52B213436246334998
:103DD000DBB24B70D778402F00D843E76246373FBD
:103DE0003F011279FFB27FB2402A00D843E7373A49
:103DF00052B217436246FFB28F705679402E00D8F8
:103E000043E76246373E36019279F6B276B2402AEF
:103E100000D843E7373A52B216436246F6B2CE7044
:103E2000D579402D00D843E76246373D2D01127AFF
:103E3000EDB26DB2402A00D843E7373A52B215438B
:103E40006246EDB20D71547A402C00D843E76246C9
:103E5000373C2401927AE4B264B2402A00D843E7A6
:103E6000373A52B21443E2B24A7192466246D27A6B
:103E7000402A00D843E76446373A247B1201D2B285
:103E8000A04652B2402C00D843E7372442E73724FB
:103E900059E7373A1201D2B24DE7C046AC300020A4
:103EA00044660000F8B52A23344D0C002B70073B04
:103EB0002B7203784278DB0092001343C2781343DD
:103EC000827852001343DBB26B700679AE7087685C
:103ED000380E390C3A0AFFB2BC46AF71284FE87071
:103EE000FB5CC9B25E40BB5D297158403B5CD2B2FD
:103EF00059407B5C6A715A40BB5C62465340FB5C34
:103F0000102200212000EB7102F0B9FA2B78237007
:103F10002B7AE37369781B4B0A099A5C62700F2253
:103F20001140595CA170A97808091140185C595CCE
:103F3000E0702171E97808091140185C595C6071E2
:103F4000A171297908091140185C595CE07121724E
:103F5000697908091140185C595C6072A172A979ED
:103F60000809185C1140E072595C2173E97908096D
:103F70000A40185C9B5C6073A373F8BDA0300020FE
:103F80004466000030660000F8B53A4E04000D00AB
:103F900010220021300002F072FA8A238C225B008A
:103FA000E5545200A3580F2B09DCE1181D31FF31F5
:103FB00001330D70A350232D02D0102B0DD0F8BD6E
:103FC000102B0AD000232000A3501D30093A0021F5
:103FD000FF3AFF3002F053FAF1E78E235B00E35C17
:103FE0002A2B0CD025001D35FF358C2300225B00C9
:103FF000E25000212800103202F041FADFE72C22C3
:104000002500FF32A25C1D35FF35232AEDD11A4968
:1040100030000B700A722900FFF706FE0028E4D07A
:10402000337822689A42E0D188235B00E258022A62
:10403000DBD0822600277600E750A3591022180112
:1040400004302900201802F011FAA3595A1C0F2B32
:104050000DD0A25186225200A3580133A350102B39
:10406000C3D101330B3AFF33FF3AE250BDE7A7510A
:10407000F0E7C04660300020AC300020F8B5CE46F6
:104080004746564D040010220021280080B502F05A
:10409000F6F988235B00E258012A00D185E08427E5
:1040A00000227F00E659E250310161189046280055
:1040B0001032043102F0DAF986225200A358013698
:1040C000013BE651A350102E00D173E0002B03D129
:1040D00001221133FF33E250414A2B781370E97B00
:1040E00011722A2B61D123295FD13E4B2900180080
:1040F0009946FFF799FD002857D098235B00E358B5
:10410000002B5AD096235B00E2584B4617001979D2
:1041100010680C230C3F81425BD09846D0180C33BA
:10412000FE588E42F9D14B46DB78002B03D04A462D
:10413000436892681A604B4682689B789C46002AC6
:104140003ED0002B3FD14B46DB789C46002B09D05C
:1041500001214068904796235B00E0584B469B78CE
:1041600040449C464268136898461F4F4E463A00AA
:104170000BCE0BC230686346106001227A70002BB0
:1041800001D04346BB6010220021280002F077F9DD
:1041900029003800FFF786FE9A235B00E358002BC6
:1041A00003D010212800984700E00020C0BCB94689
:1041B000B046F8BD4246E25188E74B469B789C46A4
:1041C00000239846D1E74B46D9780029CAD14068E8
:1041D000C0E7002310009846A5E7C04690300020B5
:1041E000AC300020703000208030002010B504007A
:1041F000FFF7CCF8002363602360FFF7EFF810BDF2
:1042000070B50C000500FFF7C1F8002323606B6850
:104210006360002B04D01C606C60FFF7DFF870BD9A
:104220002C60F9E7074B020C19000004000C434313
:10423000054851435043C018C009DE30400A4018B9
:10424000400A704712830000986E000010B50428E1
:1042500001D0002010BD0D3000F030FDFF22074BD3
:1042600011201A600123064A1360064A1168064AA3
:104270001160064A136000F059FDEAE72C60024025
:104280004C6002400066000008600240046002408A
:104290000F4B10B51A78002A00D010BD012404215C
:1042A0000C4A1C700C48002300F0C2FC112000F0E6
:1042B00005FDFF22094B11201A60094B1C60094BB8
:1042C0001A68094B1A60094B1C6000F02FFDE4E7E7
:1042D000CC3000204D420000B83000202C6002405D
:1042E0004C6002400066000008600240046002402A
:1042F000FF2807D0044B80005B681B181A689142A6
:1043000000D019607047C0467465000070B50400A5
:10431000FF2800D170BD00F037F8094EA5003368C2
:104320002000595900F0DAF873685B191A68002AFE
:1043300001D000221A600022B3685A51EAE7C04651
:1043400074650000F8B50D4B1C680D4B1C60002C0B
:1043500012D01F2601250B4F2000FBF725FF2B0055
:10436000301A83409C437B688200D358002B01D0D5
:10437000C0B29847002CEFD1F8BDC046543002407F
:104380006430024074650000FF2803D0012383409D
:10439000014A13607047C04674300240FF2805D0C0
:1043A00001238340024A1360024A13607047C046EB
:1043B000643002406C300240F0B5DE4657464E464F
:1043C0004546E0B587B0FEF7E1FF354B1A78002A85
:1043D0005ED101221A70FFF701F8002000F06EFC98
:1043E00003A8FEF7F1FF2F4C1521E3682E4A049332
:1043F0002E4803ABFEF786FF2D4B19782D4B18780E
:10440000002398460193814247D807339C46033BDB
:104410000227994612E04D461D4206D001258D40E7
:10442000AA46454656463543A846234DAA46654604
:104430005244AB431360013181422CD823688A0077
:104440009B58002BF7DB1F42E5D101258D40019ED3
:104450002E43012501961D40FF2908D0EDB2AA4642
:10446000164D5646AB468B445D462E70DDE707225F
:104470009343134A13603200124B1A604246124BA8
:104480001A6007B0F0BCBB46B246A946A046F0BDD4
:10449000FEF7A4FFF5E7019AEEE71A00ECE7C04645
:1044A000EC3000207465000045430000D03000204F
:1044B0008465000085650000003100400031024045
:1044C000FC3400400035024044300240024B9C4620
:1044D00060440078C0B2704700360240F0B5002951
:1044E0001CDBFF282ED0012407230E002500042208
:1044F0009E43164B8540C3180A409B008F070FD47C
:104500000C4013498C461349604404700D60002A26
:104510000ED0114A1560114A15601E600020F0BDD2
:10452000002A09D10E4A15601E600E4B1D60F5E78A
:104530000B4A15601E60F1E7074A1560074A1560CF
:104540001E60F2E701204042E9E7C046400C00103F
:104550000031024010350240643002406C300240AD
:104560007430024020350240FF2804D0024B9C46A4
:10457000012360440370704700330240FF2805D0D8
:10458000034B9C46012360440B4003707047C046B8
:104590000031024070B5002918DBFF282BD0174BE3
:1045A000C41801231D00A40085408E0710D4144EAA
:1045B0000B40B44660440370124B1D604B0712D48D
:1045C000114B1D600723994311432160002070BDEA
:1045D0004B070CD40C4B1D60072399430B4B114325
:1045E00021601D60F2E70A4B1D600A4BE9E7084BAA
:1045F0001D60084BEFE701204042E8E7400C001047
:104600000031024010350240743002402035024033
:10461000643002406C300240802302001B0270B5FF
:104620001A40184217D0284B284A80211A600123CB
:10463000274A89001360274A27481360274A1160D8
:10464000002227490A600132FF3202600B60254BCD
:104650001A60002070BDC3051BD5234B1B68002BBF
:1046600024DB95202149224E0C684000A5190B60DF
:1046700085421BD89D19854218D81B1B9533834250
:1046800014D8802314489B020360164803600A6014
:10469000DFE780239B021842DBD0164A11680A2903
:1046A0000DD00A2111600F4A1360D2E700220C4B93
:1046B0001A6001321A600B4BFF321A60C9E70E4BC9
:1046C0000E4A01201A60C5E71012004002020000E5
:1046D0001C120040C410004054100040181200404A
:1046E000001200405810004008120040F030002036
:1046F000351DE9FFC01000409C10004080841E80E2
:10470000024B1A68024B1A607047C0464C200040AA
:104710005420004070B5F024FEF738FEA0230F4966
:1047200064050A681B0522409A4202D0FEF756FE35
:1047300070BD0B4E0B4B35681D4080231B022B4375
:104740003360094D094B1D600B6823409342FBD039
:10475000064A13685B005B081360E7E7F01000404F
:104760001C110040FF0FFFFF12000180A01000404D
:1047700070B501251F4B1B681D4225D11E4C1F4BD8
:104780001F4E23604220B36C98471E4B06202360C7
:104790001D4C1E4B2360B36C984740221C4B1D4997
:1047A0001A6023682B4323602368AB4323600B68A4
:1047B0001A42FCD0144A184913680B4001211360B7
:1047C0000C4A13680B431360FEF7E0FD0221134A05
:1047D00013680B431360124A53780133DBB25370F2
:1047E000FEF7FCFD80230A4A1B0213600D4A13608A
:1047F00070BDC04684100040A81000400D0000802D
:104800004C00000F11000080A01000400000038049
:104810005410004048100040FFFFFE7FB4310020DC
:10482000B831002058100040274B10B51A687F237C
:1048300019001140120C13405B00994223D3234B03
:104840001A68120B12073DD5214A13685B005B08FA
:104850001360204A13685B005B0813600023136039
:10486000EFF314821C4C226083F314881B4B00204E
:104870001B689847236883F31488FFF779FF0122A8
:10488000174B1A7010BD114A5B1A1268120B092BD4
:10489000D8D9102BD8D90C231342D5D00124644287
:1048A0000A4A1048136811681B041B0F1B191B07C9
:1048B00001401B0C0B43012113600B4A13688B430F
:1048C0001360C1E70124EBE7E81000401C11004031
:1048D000A0100040A8100040F43000204C00000F51
:1048E00010060020FF0FFFFF841000406F4B70B5D3
:1048F0006F4A1C686F4B14601C6080231B021C42B3
:104900006AD10A221500254022420BD108252542F2
:1049100023D1694D2B68002B03D020009847002835
:104920002CD170BD012065490A6882430A60644940
:1049300064480A68520052080A6063490A680240E3
:104940001A430A60614A12681A4278D1FFF710FFD1
:104950005F4B1D6008252542DBD0FEF717FD5D4A41
:1049600013685B005B081360802311681B060B4310
:104970001360FEF733FD564B1D60CAE7002301228A
:1049800004212B60544B1A60544A13680B43136084
:10499000534B1C68002C0DD01025A3682B4206D069
:1049A000002110202269E3689847002802D124687A
:1049B000002CF2D1FEF7EAFC4A4A5378013BDBB205
:1049C00053705378002B04D10221474A13688B435C
:1049D0001360FEF703FDA4E78023444D9B021360A0
:1049E0002800FEF7E7FB002228000021FEF758FC14
:1049F000334B3F4A3F4D1A602B68002B31D098470C
:104A000000232B600A231D002540234200D17DE7AF
:104A100001212A4A13688B431360294A2A491368E3
:104A20005B005B0813600A68264B1A4080231B0258
:104A300013430B60FFF79CFE254B1D608AE7FEF7D2
:104A4000A5FC284A5378013BDBB253705378002B06
:104A500004D10221244A13688B431360FEF7BEFC85
:104A600074E71F4B1D68002D0DD00826AB6833423C
:104A700006D0002108202A69EB689847002802D157
:104A80002D68002DF2D1FEF781FC164A5378013BC8
:104A9000DBB253705378002B04D10221124A136801
:104AA0008B431360FEF79AFCACE7C0464C10004005
:104AB000541000405C100040C031002084100040C1
:104AC000A0100040FF0FFFFF1C11004044100040E9
:104AD00058100040A4100040B01000402C000040CE
:104AE00078310020B8310020B4310020143100208A
:104AF00011000380583100202D4B70B51A78002A20
:104B000053D12C4A012451681C700800451EA8414D
:104B1000294B92681870294B29481960294B132199
:104B20001A600023284AFEF7EDFB82200321C00013
:104B300001F0C6FA254B264A13201A60FEF73AFC0C
:104B400000232021234A2448FEF7DCFB234B244A80
:104B50001C60244B24491C60244B1C6013681B0BF5
:104B60001B0313600A68224B1A4080231B02134365
:104B70000B60FEF7C1FB0100FA204000FBF788FA4A
:104B80001C4C020000231C492000FEF7E1FAFFF74D
:104B9000EFFD2000FEF77EFA8023184A1B061168FD
:104BA0000B4313601022164B1A60002070BDC046E4
:104BB0008031002088650000813100208431002090
:104BC0005C31002058310020ED48000058100040B2
:104BD0000A80000001470000F83000205820004003
:104BE00028110040602000401C110040602002405D
:104BF000FF0FFFFF1431002015470000A4100040F4
:104C000000580040014B18687047C046B43100207E
:104C1000054B10B51B68002B04D0044A1278002AFB
:104C200000D0984710BDC04684310020813100205B
:104C300010B500280BD0002A09D00361054B816014
:104C4000C26001001800FFF7DBFA002010BD03204E
:104C50004042FBE77831002010B50400FEF796FBD8
:104C60000123A340064A11680B431360054A135DF4
:104C70000133DBB21355FEF7B1FB002010BDC04677
:104C8000B4310020B831002010B50400FEF77EFBDF
:104C9000084A135D013BDBB21355135D002B05D1B0
:104CA0000122A24004490B6893430B60FEF796FB78
:104CB000002010BDB8310020B431002070B50400D0
:104CC000FEF764FBFF2322001B0205001A401C4272
:104CD00012D1FF2312482340C15C4A1CD2B2C254F5
:104CE000002904D101229A4013000E4A13602800C3
:104CF000FEF774FB002070BD80235B009A42F6D162
:104D00000948013B2340C15C4A1CD2B2C25400296D
:104D1000EDD101209840002180B201F07BFAE6E756
:104D200094310020140002408831002070B5040046
:104D3000FEF72CFBFF2322001B0205001A401C4239
:104D400011D1FF22124922408B5C013BDBB28B5414
:104D5000002B03D1012393400E4A13602800FEF775
:104D60003DFB002070BD80235B009A42F6D1FF22FC
:104D7000094922408B5C013BDBB28B54002BEDD107
:104D800001209040002180B201F074FAE6E7C046AD
:104D9000943100202000024088310020024B1B6823
:104DA0005B0700D430BF7047B431002010B5012438
:104DB000194B1A4A1C601A4B1A60FEF7E7FA0221D7
:104DC000184A13680B431360174A53780133DBB258
:104DD0005370FEF703FBFEF7D9FA144B1A688023D1
:104DE00011001B0219401A4212D1114B114A1A60CC
:104DF000114B023A1C60114B1C60114B1A6080234E
:104E0000104A5B00116010490B6014600F4A136078
:104E1000FEF7E4FA10BDC0469010004019460000AD
:104E2000C0310020B4310020B831002044100040CF
:104E300010120040020200001C120040C41000408A
:104E4000181200400012004054100040581000405A
:104E5000F0B5C64601210400374A00B5136886B094
:104E60008B431360354B14221D68354B354901A81F
:104E70001E6801F0FBFA0421334801F021F92020DB
:104E8000FEF73CFA314B324A1B681268E31AB93B11
:104E9000DB089B182F4A13602F4B1C689846002C88
:104EA0000DD00127A3683B4206D0002101202269D2
:104EB000E3689847002806D12468002CF2D1FFF758
:104EC000B3FC002703E0254B1F7001277F4201231D
:104ED000234A20201360234A1360234B1B68FEF7EC
:104EE0000DFA1B21184801F0EBF8204A1368012B3A
:104EF000FCD1142201A9134801F0B8FA104B1E602E
:104F00000E4B1D6001F0E6F943461C68002C0DD0E5
:104F10000425A3682B4206D0002104202269E368FF
:104F20009847002802D12468002CF2D1380006B03E
:104F300080BCB846F0BDC04610E000E0442002400E
:104F4000442102404C21024044040000042102405C
:104F50001820004028200040783100201006002052
:104F60000C2000405420004000200040402102401E
:104F7000084B01201A6803231340012B00D070470F
:104F8000054A06491268002009689201F7D5480CC5
:104F90001840F4E7C0100040E01000404810004006
:104FA000020030B5034B32CB32C213CB13C213CB4A
:104FB00013C230BD4467000070B506680400FEF7F8
:104FC000E5F9737A0500002B03D02800FEF706FAF6
:104FD00070BD01337372200000F08AFF606800F03A
:104FE0009DFF200000F040FD0021200000F0A6FF02
:104FF000EBE7C046F0B5454657464E46DE46E0B5BF
:105000008146884615009A46046885B0002B02D078
:10501000002352461360FEF7B9F9E3798346002B6B
:1050200000D1C8E06427E65D002E00D0BEE0002D70
:1050300000D1B7E0484600F0DBFC0123E3554346CE
:1050400027004846A366E5662567A667A663A6729D
:105050002673FFF7B1FF484600F006FD4C3701E02C
:10506000002B6CD0380003A900F0ACFF236F0500C3
:105070000600834201D21D001E00A06F320003997A
:10508000404401F0F3F93100380000F081FF236F54
:10509000A26F9B1B92192367A267002DE0DC227987
:1050A000022A46D0002B4DD05846FEF797F92379B7
:1050B000002B15D00025FEF769F92379012B05D0C7
:1050C0005346002B02D05246A36F1360FEF786F9B9
:1050D000280005B0F0BCBB46B246A946A046F0BDCC
:1050E0002000236F7C30002B58D00E99FDF748FF2D
:1050F000002801D001232373FEF748F90600484633
:1051000000F076FC002364222367A3664846A3547C
:1051100000F0AAFC257B6B1E9D410C236D429D4334
:10512000A37A002B01D00E256D423000FEF756F910
:10513000C1E7002364222367A366A354B4E722795E
:10514000022AF6D000236421A66E6354A366012AC6
:10515000AAD158462274FEF741F9E37B002B19D1FE
:10516000237C002B16D0012300259846CC27FEF780
:105170000DF943462574E373FEF730F9A36CA26F73
:105180000095E15948468B463100D847237CE573AA
:10519000002BECD1FEF7FAF8834685E70021FDF7F6
:1051A000EFFE87E7FEF71AF90A3D91E70925FEF7BA
:1051B00015F96D428CE70F25FEF710F96D4287E770
:1051C000F0B54F464646D6469A460123C0B55B42E7
:1051D00007000E00914615000024984684B00CE0AC
:1051E00043462A1B31190093380003ABFFF702FF37
:1051F000039BE418ED1A002802D1002DF0D1002005
:105200005346002B00D01C604B46002B05D004B049
:10521000E0BCBA46B146A846F0BD0A204042F6E7D7
:1052200030B5046883B06568064C254203D1FFF7AA
:10523000C7FF03B030BD012464420094FFF7DAFEDB
:10524000F7E7C046FF00FF00F0B54546DE4657468B
:105250004E46E0B51F0043680600884615009B4691
:10526000046883B0002F01D000233B60002D00D1E3
:1052700094E0FEF7A3F80190FEF788F8E379814601
:10528000002B00D197E0E821625CD3B2002A00D065
:1052900087E0012262544146EB32A1500432A5500E
:1052A0000432A5500832A350E3636373E372631CB6
:1052B000FF33180000219A46FDF762FE584600F0C1
:1052C00035FE019B002B02D16379002B2AD03000E0
:1052D00000F01AFB4846FEF781F86379002B12D0E4
:1052E000002F02D0FC23E3583B60E37A002B5DD112
:1052F000637B002B4FD1002003B0F0BCBB46B2460D
:10530000A946A046F0BD50460C99FDF739FE00288D
:1053100001D001236373300000F020FCE823002259
:10532000E254DDE74846FEF759F873683468994659
:10533000636CDB0606D5226C1021924630000022F9
:10534000A36CD047FC239A46E258290042444846C1
:1053500000F0FAFD5346E2582D1A8218E250002D53
:10536000F3D1484600F004FE0028FAD0484600F089
:10537000C3FA636C9B0605D5002220213000A36C84
:10538000256CA847E8230022E254002FB3D0143341
:10539000E3583B60AFE70D204042ADE70A204042B2
:1053A000AAE7FEF71BF809204042A5E700230E20DC
:1053B000E3724042A0E7FEF711F80F2040429BE75E
:1053C000F0B54546DE464E4657469846E0B543683A
:1053D00087B00193434606008B4615000468002BF6
:1053E00002D0002342461360002D00D17DE0FDF77E
:1053F000CDFFE3790700002B00D17EE0E821625C5D
:10540000D3B2002A00D073E0012262545946EB3235
:10541000A1500432A5500432A5500832A35001987F
:10542000E3636373E37200F081FD3800FDF7D6FF9C
:10543000D0239A462C3399464346F427A244029639
:10544000039302E0E359002B25D0FDF79FFF05A948
:105450008046504600F010FEE359050006008342E6
:1054600001D21D001E004B46E158320059440598F8
:1054700000F0FCFF3100504600F0DCFDE3594A46E5
:105480009B1BE3514B46E35840469B19A350FDF745
:10549000A5FF002DD6DC039BFC279846029EFDF756
:1054A00075FFE3590500002B14D110260023764226
:1054B0004246002A00D01360E82300222800E2546C
:1054C000FDF78CFF300007B0F0BCBB46B246A946E2
:1054D000A046F0BD019800F029FD300000F014FA5C
:1054E000E3590026002BE3D1DFE70A267642E9E7FD
:1054F0000926FDF773FF7642E4E70F26FDF76EFFFE
:105500007642DFE710B5046882B06479022C05D0DA
:10551000049C0094FFF798FE02B010BD049C009418
:10552000FFF74EFFF8E7C04610B5012482B0644291
:105530000094FFF7E7FF02B010BDC0467047C046B9
:1055400010B55468012801D0002010BD5223E15C41
:10555000606A4B425941084B00229C46C0B26144EC
:10556000FFF718F8E369012BEED1E06A0022034946
:10557000C0B2FFF70FF8E7E70004002001040020A5
:1055800030B583B0050068460C00FDF7AFFE34224D
:105590003521A85C695C484A484B525C36211B5C4B
:1055A000695C1343464A2068525C019913432A6B95
:1055B00000F0DEFE2368434A5A64192223685A63C6
:1055C000E369012B36D022683F49136B0B4013630C
:1055D000E3692268012B3AD0136B3C490B401363FB
:1055E0005223E25C2368012A3ED0022A08D1062118
:1055F0001A6B0A431A6353222368A25C1A62236857
:105600001021DA6A0A43DA6222680F39136B0B43FE
:1056100013635623E35C002B04D022683F31136BE5
:105620000B431363E36B002B02D0A36B002B21D140
:1056300003B030BDA36AFF2BC5D0802322681B02B4
:10564000116B0B431363E3692268012BC4D1E36A36
:10565000FF2BC1D08023116BDB010B43136352235B
:10566000E25C2368012AC0D102211A6B0A431A6343
:105670002368C5E72568FDF789FE0122AB6C9343DB
:10568000AB64FDF7ABFEE36B114A02211360114AD4
:105690001360E06B00F0BEFEA06B022100F0BAFECA
:1056A0005523E06DE15C00F005FD5423A06DE15C45
:1056B00000F000FDBCE7C0467067000074670000A2
:1056C00068670000F2370000FF7FFFFFFFBFFFFFAA
:1056D0002C6002400465024010B51400042801D07B
:1056E000002010BD51681068FFF74AFF646802216E
:1056F000606A226CC0B2FEF74DFF206A626C0A49F4
:10570000C0B2FEF747FFE369012BE9D1A06AA26CA2
:105710000549C0B2FEF73EFFE06A0221E26CC0B26A
:10572000FEF738FFDCE7C04602000460F0B5C6466D
:1057300000B5694B0D001B7884B0834200D8AFE000
:10574000664BC000C21890465768C458002900D163
:10575000A9E02B78012B00D19EE06B78012B03D1BF
:10576000AB68002B00D19BE0FDF710FEE679002E20
:1057700000D09EE00123E371FDF730FE0023A66018
:10578000E681637426602A88A2802A7DA271CC22D9
:105790006968A150A9688432A1502969EA686164E6
:1057A000A96922642163A98BA1863621A87F605450
:1057B000296AA164EC2166500831A6666650043956
:1057C000266766500831E666A663E663666766503C
:1057D0009439635484316354002A66D05023F85AB4
:1057E000FFF76CFA1120FFF769FA20003A69F968AF
:1057F0004C3000F0C3FB2000BA697969D03000F06A
:10580000BDFB386800F0DAFD434620005968FFF719
:10581000B7FE43465D680221686A2A6CC0B2FEF793
:10582000B9FE286A6A6C2E49C0B2FEF7B3FEEB6976
:10583000012B43D02000593043460121294AFF3033
:10584000FFF7F6F920006D3043460421264AFF3069
:10585000FFF7EEF901A8FDF7B7FD434620000193DD
:105860003B7A224A79680293143001ABFDF74AFD76
:10587000200000217C30FDF747FB601C0021FF3039
:10588000FDF742FB7A6B3B6813603A6B536040460E
:1058900004B080BCB846F0BD6B68002B00D05CE75C
:1058A00000239846F3E7124D53E7124B62642364DA
:1058B00094E7FDF793FD00239846E8E7A86AAA6CF1
:1058C0000749C0B2FEF766FEE86A0221EA6CC0B280
:1058D000FEF760FEAEE7C046FC650000F465000020
:1058E0000200046041550000D9560000E15B000051
:1058F000446700003D55000002680249136B0B40ED
:1059000013637047FFFEFFFFF0B5F826046805003B
:10591000A35983B0002B52D163794768022B55D02D
:10592000F423FC22E058083BE358A258A0519B18EE
:105930000193002843D03A682849936B0B40936346
:10594000636CDB060CD5266C002E09D0237A002B65
:1059500006D12800A36C00221021B047F823E0589C
:105960008023DB0098422CD81D4B013801011940DF
:10597000019A3B6B12181A601A4AB86B9A609A68BF
:105980000A439A60012100F02BFDBA6B164B1A6096
:105990003D68FDF7FBFC0222AB6C1343AB64FDF7E3
:1059A0001DFD80233A685B01916B0B439363237A5F
:1059B000002B04D10120FFF74FF90123237203B01C
:1059C000F0BDF82206490948A350D1E7200001A9FB
:1059D000D03000F0F7FAA051ABE7C046FFF7FFFF69
:1059E000F03F0000014000C028600240FF030000BB
:1059F00070B50468636F002B00D170BD4568174B0C
:105A0000EA6B1A602E68FDF7C1FC0122B36C934368
:105A1000B364FDF7E3FCEA6B114B12491A602A6884
:105A2000686B936B0B40936380222B6892015A64DE
:105A300000F00AFD626FE37C111A002B09D1236F7D
:105A40009B1A1B182367A36F5B18A3670023636768
:105A5000D3E720004C3000F0EDFAF7E72C6002406D
:105A600004650240FFDFFFFFF0B5CE46474680B534
:105A700004684568637A6E6B83B0002B04D103B071
:105A8000C0BCB946B046F0BD2700FFF7B1FF636F59
:105A90004C37002B35D1A36E002B02D0236F002B87
:105AA0002FD1380001A900F0E7FA01236067E37401
:105AB0000028E4D00023A3738023DB00984241D860
:105AC00001380201019B01211B1873601F4BE86B19
:105AD000B360B3681343B36000F082FCEA6B1C4B05
